{
  "contractName": "FallbackManager",
  "abi": [
    {
      "anonymous": false,
      "inputs": [
        {
          "indexed": false,
          "internalType": "address",
          "name": "handler",
          "type": "address"
        }
      ],
      "name": "ChangedFallbackHandler",
      "type": "event"
    },
    {
      "stateMutability": "nonpayable",
      "type": "fallback"
    },
    {
      "inputs": [
        {
          "internalType": "address",
          "name": "handler",
          "type": "address"
        }
      ],
      "name": "setFallbackHandler",
      "outputs": [],
      "stateMutability": "nonpayable",
      "type": "function"
    }
  ],
  "bytecode": "0x608060405234801561001057600080fd5b506101c9806100206000396000f3fe608060405234801561001057600080fd5b506004361061002b5760003560e01c8063f08a032314610084575b7f6c9a6c4a39284e37ed1cf53d337577d14212a4870fb976a4366c693b939918d580548061005557005b36600080373360601b365260008060143601600080855af190503d6000803e8061007e573d6000fd5b503d6000f35b610097610092366004610132565b610099565b005b6100a16100e4565b6100aa8161010e565b7f5ac6c46c93c8d0e53714ba3b53db3e7c046da994313d7ed0d192028bc7c228b0816040516100d99190610160565b60405180910390a150565b33301461010c5760405162461bcd60e51b815260040161010390610174565b60405180910390fd5b565b7f6c9a6c4a39284e37ed1cf53d337577d14212a4870fb976a4366c693b939918d555565b600060208284031215610143578081fd5b81356001600160a01b0381168114610159578182fd5b9392505050565b6001600160a01b0391909116815260200190565b602080825260059082015264475330333160d81b60408201526060019056fea2646970667358221220234435c2393f35e008a8bfffa981008b11aee5dda55a84e1d4daae37077cfc7064736f6c63430008000033",
  "immutableReferences": {},
  "source": "/**\n * 資金入金を管理するコントラクト\n */\n\npragma solidity >=0.7.0 <0.9.0;\n// インポートする。\nimport \"../common/SelfAuthorized.sol\";\n\n/**\n * FallbackManagerコントラクト\n * SelfAuthorizedを継承する。\n * @title Fallback Manager - A contract that manages fallback calls made to this contract\n * @author Richard Meissner - <richard@gnosis.pm>\n */\ncontract FallbackManager is SelfAuthorized {\n    // イベントの定義\n    event ChangedFallbackHandler(address handler);\n    // keccak256(\"fallback_manager.handler.address\")\n    bytes32 internal constant FALLBACK_HANDLER_STORAGE_SLOT = 0x6c9a6c4a39284e37ed1cf53d337577d14212a4870fb976a4366c693b939918d5;\n\n    /**\n     * 資金入金制御用の関数\n     */\n    function internalSetFallbackHandler(address handler) internal {\n        bytes32 slot = FALLBACK_HANDLER_STORAGE_SLOT;\n        // solhint-disable-next-line no-inline-assembly\n        assembly {\n            sstore(slot, handler)\n        }\n    }\n\n    /// @dev Allows to add a contract to handle fallback calls.\n    ///      Only fallback calls without value and with data will be forwarded.\n    ///      This can only be done via a Safe transaction.\n    /// @param handler contract to handle fallback calls.\n    function setFallbackHandler(address handler) public authorized {\n        internalSetFallbackHandler(handler);\n        emit ChangedFallbackHandler(handler);\n    }\n\n    /**\n     * フォールバック関数\n     * solhint-disable-next-line payable-fallback,no-complex-fallback\n     */\n    fallback() external {\n        bytes32 slot = FALLBACK_HANDLER_STORAGE_SLOT;\n        // solhint-disable-next-line no-inline-assembly\n        assembly {\n            let handler := sload(slot)\n            if iszero(handler) {\n                return(0, 0)\n            }\n            calldatacopy(0, 0, calldatasize())\n            // The msg.sender address is shifted to the left by 12 bytes to remove the padding\n            // Then the address without padding is stored right after the calldata\n            mstore(calldatasize(), shl(96, caller()))\n            // Add 20 bytes for the address appended add the end\n            let success := call(gas(), handler, 0, 0, add(calldatasize(), 20), 0, 0)\n            returndatacopy(0, 0, returndatasize())\n            if iszero(success) {\n                revert(0, returndatasize())\n            }\n            return(0, returndatasize())\n        }\n    }\n}\n",
  "sourcePath": "/Users/harukikondo/git/TruffleRinkeby/MetaCoin/contracts/safeContracts/base/FallbackManager.sol",
  "compiler": {
    "name": "solc",
    "version": "0.8.0+commit.c7dfd78e.Emscripten.clang"
  },
  "schemaVersion": "3.2.0",
  "updatedAt": "2022-06-04T12:56:34.294Z",
  "devdoc": {
    "author": "Richard Meissner - <richard@gnosis.pm>",
    "kind": "dev",
    "methods": {
      "setFallbackHandler(address)": {
        "details": "Allows to add a contract to handle fallback calls.      Only fallback calls without value and with data will be forwarded.      This can only be done via a Safe transaction.",
        "params": {
          "handler": "contract to handle fallback calls."
        }
      }
    },
    "title": "Fallback Manager - A contract that manages fallback calls made to this contract",
    "version": 1
  },
  "userdoc": {
    "kind": "user",
    "methods": {},
    "notice": "FallbackManagerコントラクト SelfAuthorizedを継承する。",
    "version": 1
  }
}