{
  "contractName": "MyToken",
  "abi": [
    {
      "inputs": [
        {
          "internalType": "string",
          "name": "_name",
          "type": "string"
        },
        {
          "internalType": "string",
          "name": "_symbol",
          "type": "string"
        },
        {
          "internalType": "uint8",
          "name": "_decimal",
          "type": "uint8"
        }
      ],
      "stateMutability": "nonpayable",
      "type": "constructor"
    },
    {
      "anonymous": false,
      "inputs": [
        {
          "indexed": true,
          "internalType": "address",
          "name": "owner",
          "type": "address"
        },
        {
          "indexed": true,
          "internalType": "address",
          "name": "spender",
          "type": "address"
        },
        {
          "indexed": false,
          "internalType": "uint256",
          "name": "value",
          "type": "uint256"
        }
      ],
      "name": "Approval",
      "type": "event"
    },
    {
      "anonymous": false,
      "inputs": [
        {
          "indexed": true,
          "internalType": "address",
          "name": "delegator",
          "type": "address"
        },
        {
          "indexed": true,
          "internalType": "address",
          "name": "fromDelegate",
          "type": "address"
        },
        {
          "indexed": true,
          "internalType": "address",
          "name": "toDelegate",
          "type": "address"
        }
      ],
      "name": "DelegateChanged",
      "type": "event"
    },
    {
      "anonymous": false,
      "inputs": [
        {
          "indexed": true,
          "internalType": "address",
          "name": "delegate",
          "type": "address"
        },
        {
          "indexed": false,
          "internalType": "uint256",
          "name": "previousBalance",
          "type": "uint256"
        },
        {
          "indexed": false,
          "internalType": "uint256",
          "name": "newBalance",
          "type": "uint256"
        }
      ],
      "name": "DelegateVotesChanged",
      "type": "event"
    },
    {
      "anonymous": false,
      "inputs": [
        {
          "indexed": true,
          "internalType": "address",
          "name": "previousOwner",
          "type": "address"
        },
        {
          "indexed": true,
          "internalType": "address",
          "name": "newOwner",
          "type": "address"
        }
      ],
      "name": "OwnershipTransferred",
      "type": "event"
    },
    {
      "anonymous": false,
      "inputs": [
        {
          "indexed": false,
          "internalType": "address",
          "name": "account",
          "type": "address"
        }
      ],
      "name": "Paused",
      "type": "event"
    },
    {
      "anonymous": false,
      "inputs": [
        {
          "indexed": true,
          "internalType": "address",
          "name": "from",
          "type": "address"
        },
        {
          "indexed": true,
          "internalType": "address",
          "name": "to",
          "type": "address"
        },
        {
          "indexed": false,
          "internalType": "uint256",
          "name": "value",
          "type": "uint256"
        }
      ],
      "name": "Transfer",
      "type": "event"
    },
    {
      "anonymous": false,
      "inputs": [
        {
          "indexed": false,
          "internalType": "address",
          "name": "account",
          "type": "address"
        }
      ],
      "name": "Unpaused",
      "type": "event"
    },
    {
      "inputs": [],
      "name": "DOMAIN_SEPARATOR",
      "outputs": [
        {
          "internalType": "bytes32",
          "name": "",
          "type": "bytes32"
        }
      ],
      "stateMutability": "view",
      "type": "function"
    },
    {
      "inputs": [
        {
          "internalType": "address",
          "name": "owner",
          "type": "address"
        },
        {
          "internalType": "address",
          "name": "spender",
          "type": "address"
        }
      ],
      "name": "allowance",
      "outputs": [
        {
          "internalType": "uint256",
          "name": "",
          "type": "uint256"
        }
      ],
      "stateMutability": "view",
      "type": "function"
    },
    {
      "inputs": [
        {
          "internalType": "address",
          "name": "spender",
          "type": "address"
        },
        {
          "internalType": "uint256",
          "name": "amount",
          "type": "uint256"
        }
      ],
      "name": "approve",
      "outputs": [
        {
          "internalType": "bool",
          "name": "",
          "type": "bool"
        }
      ],
      "stateMutability": "nonpayable",
      "type": "function"
    },
    {
      "inputs": [
        {
          "internalType": "address",
          "name": "account",
          "type": "address"
        }
      ],
      "name": "balanceOf",
      "outputs": [
        {
          "internalType": "uint256",
          "name": "",
          "type": "uint256"
        }
      ],
      "stateMutability": "view",
      "type": "function"
    },
    {
      "inputs": [
        {
          "internalType": "address",
          "name": "account",
          "type": "address"
        },
        {
          "internalType": "uint256",
          "name": "amount",
          "type": "uint256"
        }
      ],
      "name": "burnFrom",
      "outputs": [],
      "stateMutability": "nonpayable",
      "type": "function"
    },
    {
      "inputs": [
        {
          "internalType": "address",
          "name": "account",
          "type": "address"
        },
        {
          "internalType": "uint32",
          "name": "pos",
          "type": "uint32"
        }
      ],
      "name": "checkpoints",
      "outputs": [
        {
          "components": [
            {
              "internalType": "uint32",
              "name": "fromBlock",
              "type": "uint32"
            },
            {
              "internalType": "uint224",
              "name": "votes",
              "type": "uint224"
            }
          ],
          "internalType": "struct ERC20Votes.Checkpoint",
          "name": "",
          "type": "tuple"
        }
      ],
      "stateMutability": "view",
      "type": "function"
    },
    {
      "inputs": [],
      "name": "decimals",
      "outputs": [
        {
          "internalType": "uint8",
          "name": "",
          "type": "uint8"
        }
      ],
      "stateMutability": "view",
      "type": "function"
    },
    {
      "inputs": [
        {
          "internalType": "address",
          "name": "spender",
          "type": "address"
        },
        {
          "internalType": "uint256",
          "name": "subtractedValue",
          "type": "uint256"
        }
      ],
      "name": "decreaseAllowance",
      "outputs": [
        {
          "internalType": "bool",
          "name": "",
          "type": "bool"
        }
      ],
      "stateMutability": "nonpayable",
      "type": "function"
    },
    {
      "inputs": [
        {
          "internalType": "address",
          "name": "delegatee",
          "type": "address"
        }
      ],
      "name": "delegate",
      "outputs": [],
      "stateMutability": "nonpayable",
      "type": "function"
    },
    {
      "inputs": [
        {
          "internalType": "address",
          "name": "delegatee",
          "type": "address"
        },
        {
          "internalType": "uint256",
          "name": "nonce",
          "type": "uint256"
        },
        {
          "internalType": "uint256",
          "name": "expiry",
          "type": "uint256"
        },
        {
          "internalType": "uint8",
          "name": "v",
          "type": "uint8"
        },
        {
          "internalType": "bytes32",
          "name": "r",
          "type": "bytes32"
        },
        {
          "internalType": "bytes32",
          "name": "s",
          "type": "bytes32"
        }
      ],
      "name": "delegateBySig",
      "outputs": [],
      "stateMutability": "nonpayable",
      "type": "function"
    },
    {
      "inputs": [
        {
          "internalType": "address",
          "name": "account",
          "type": "address"
        }
      ],
      "name": "delegates",
      "outputs": [
        {
          "internalType": "address",
          "name": "",
          "type": "address"
        }
      ],
      "stateMutability": "view",
      "type": "function"
    },
    {
      "inputs": [
        {
          "internalType": "uint256",
          "name": "blockNumber",
          "type": "uint256"
        }
      ],
      "name": "getPastTotalSupply",
      "outputs": [
        {
          "internalType": "uint256",
          "name": "",
          "type": "uint256"
        }
      ],
      "stateMutability": "view",
      "type": "function"
    },
    {
      "inputs": [
        {
          "internalType": "address",
          "name": "account",
          "type": "address"
        },
        {
          "internalType": "uint256",
          "name": "blockNumber",
          "type": "uint256"
        }
      ],
      "name": "getPastVotes",
      "outputs": [
        {
          "internalType": "uint256",
          "name": "",
          "type": "uint256"
        }
      ],
      "stateMutability": "view",
      "type": "function"
    },
    {
      "inputs": [
        {
          "internalType": "address",
          "name": "account",
          "type": "address"
        }
      ],
      "name": "getVotes",
      "outputs": [
        {
          "internalType": "uint256",
          "name": "",
          "type": "uint256"
        }
      ],
      "stateMutability": "view",
      "type": "function"
    },
    {
      "inputs": [
        {
          "internalType": "address",
          "name": "spender",
          "type": "address"
        },
        {
          "internalType": "uint256",
          "name": "addedValue",
          "type": "uint256"
        }
      ],
      "name": "increaseAllowance",
      "outputs": [
        {
          "internalType": "bool",
          "name": "",
          "type": "bool"
        }
      ],
      "stateMutability": "nonpayable",
      "type": "function"
    },
    {
      "inputs": [],
      "name": "name",
      "outputs": [
        {
          "internalType": "string",
          "name": "",
          "type": "string"
        }
      ],
      "stateMutability": "view",
      "type": "function"
    },
    {
      "inputs": [
        {
          "internalType": "address",
          "name": "owner",
          "type": "address"
        }
      ],
      "name": "nonces",
      "outputs": [
        {
          "internalType": "uint256",
          "name": "",
          "type": "uint256"
        }
      ],
      "stateMutability": "view",
      "type": "function"
    },
    {
      "inputs": [
        {
          "internalType": "address",
          "name": "account",
          "type": "address"
        }
      ],
      "name": "numCheckpoints",
      "outputs": [
        {
          "internalType": "uint32",
          "name": "",
          "type": "uint32"
        }
      ],
      "stateMutability": "view",
      "type": "function"
    },
    {
      "inputs": [],
      "name": "owner",
      "outputs": [
        {
          "internalType": "address",
          "name": "",
          "type": "address"
        }
      ],
      "stateMutability": "view",
      "type": "function"
    },
    {
      "inputs": [],
      "name": "paused",
      "outputs": [
        {
          "internalType": "bool",
          "name": "",
          "type": "bool"
        }
      ],
      "stateMutability": "view",
      "type": "function"
    },
    {
      "inputs": [
        {
          "internalType": "address",
          "name": "owner",
          "type": "address"
        },
        {
          "internalType": "address",
          "name": "spender",
          "type": "address"
        },
        {
          "internalType": "uint256",
          "name": "value",
          "type": "uint256"
        },
        {
          "internalType": "uint256",
          "name": "deadline",
          "type": "uint256"
        },
        {
          "internalType": "uint8",
          "name": "v",
          "type": "uint8"
        },
        {
          "internalType": "bytes32",
          "name": "r",
          "type": "bytes32"
        },
        {
          "internalType": "bytes32",
          "name": "s",
          "type": "bytes32"
        }
      ],
      "name": "permit",
      "outputs": [],
      "stateMutability": "nonpayable",
      "type": "function"
    },
    {
      "inputs": [],
      "name": "renounceOwnership",
      "outputs": [],
      "stateMutability": "nonpayable",
      "type": "function"
    },
    {
      "inputs": [],
      "name": "symbol",
      "outputs": [
        {
          "internalType": "string",
          "name": "",
          "type": "string"
        }
      ],
      "stateMutability": "view",
      "type": "function"
    },
    {
      "inputs": [],
      "name": "totalSupply",
      "outputs": [
        {
          "internalType": "uint256",
          "name": "",
          "type": "uint256"
        }
      ],
      "stateMutability": "view",
      "type": "function"
    },
    {
      "inputs": [
        {
          "internalType": "address",
          "name": "recipient",
          "type": "address"
        },
        {
          "internalType": "uint256",
          "name": "amount",
          "type": "uint256"
        }
      ],
      "name": "transfer",
      "outputs": [
        {
          "internalType": "bool",
          "name": "",
          "type": "bool"
        }
      ],
      "stateMutability": "nonpayable",
      "type": "function"
    },
    {
      "inputs": [
        {
          "internalType": "address",
          "name": "sender",
          "type": "address"
        },
        {
          "internalType": "address",
          "name": "recipient",
          "type": "address"
        },
        {
          "internalType": "uint256",
          "name": "amount",
          "type": "uint256"
        }
      ],
      "name": "transferFrom",
      "outputs": [
        {
          "internalType": "bool",
          "name": "",
          "type": "bool"
        }
      ],
      "stateMutability": "nonpayable",
      "type": "function"
    },
    {
      "inputs": [
        {
          "internalType": "address",
          "name": "newOwner",
          "type": "address"
        }
      ],
      "name": "transferOwnership",
      "outputs": [],
      "stateMutability": "nonpayable",
      "type": "function"
    },
    {
      "inputs": [],
      "name": "pause",
      "outputs": [],
      "stateMutability": "nonpayable",
      "type": "function"
    },
    {
      "inputs": [],
      "name": "unpause",
      "outputs": [],
      "stateMutability": "nonpayable",
      "type": "function"
    },
    {
      "inputs": [
        {
          "internalType": "address",
          "name": "to",
          "type": "address"
        },
        {
          "internalType": "uint256",
          "name": "amount",
          "type": "uint256"
        }
      ],
      "name": "mint",
      "outputs": [],
      "stateMutability": "nonpayable",
      "type": "function"
    },
    {
      "inputs": [
        {
          "internalType": "uint256",
          "name": "amount",
          "type": "uint256"
        }
      ],
      "name": "burn",
      "outputs": [],
      "stateMutability": "nonpayable",
      "type": "function"
    },
    {
      "inputs": [
        {
          "internalType": "address",
          "name": "to",
          "type": "address"
        },
        {
          "internalType": "uint256",
          "name": "amount",
          "type": "uint256"
        }
      ],
      "name": "burn",
      "outputs": [],
      "stateMutability": "nonpayable",
      "type": "function"
    }
  ],
  "bytecode": "0x6101606040527f6e71edae12b1b97f4d1f60370fef10105fa2faae0126114a169c64845d6126c9610140523480156200003757600080fd5b5060405162002b0c38038062002b0c8339810160408190526200005a9162000371565b8280604051806040016040528060018152602001603160f81b81525085858582600390805190602001906200009192919062000220565b508151620000a790600490602085019062000220565b50620000b3816200016e565b50506005805461ff001916905550620000d5620000cf62000184565b62000188565b815160208084019190912082519183019190912060e08290526101008190524660a0527f8b73c3c69bb8fe3d512ecc4cf759cc79239f7b179b0ffacaa9a75d522b39400f62000126818484620001e4565b6080523060601b60c05261012052505085516200014e9350600a925060208701915062000220565b5081516200016490600b90602085019062000220565b5050505062000471565b6005805460ff191660ff92909216919091179055565b3390565b600580546001600160a01b038381166201000081810262010000600160b01b031985161790945560405193909204169182907f8be0079c531659141344cd1fd0a4f28419497f9722a3daafe3b4186f6b6457e090600090a35050565b6000838383463060405160200162000201959493929190620003f2565b6040516020818303038152906040528051906020012090509392505050565b8280546200022e906200041e565b90600052602060002090601f0160209004810192826200025257600085556200029d565b82601f106200026d57805160ff19168380011785556200029d565b828001600101855582156200029d579182015b828111156200029d57825182559160200191906001019062000280565b50620002ab929150620002af565b5090565b5b80821115620002ab5760008155600101620002b0565b600082601f830112620002d7578081fd5b81516001600160401b0380821115620002f457620002f46200045b565b6040516020601f8401601f19168201810183811183821017156200031c576200031c6200045b565b604052838252858401810187101562000333578485fd5b8492505b8383101562000356578583018101518284018201529182019162000337565b838311156200036757848185840101525b5095945050505050565b60008060006060848603121562000386578283fd5b83516001600160401b03808211156200039d578485fd5b620003ab87838801620002c6565b94506020860151915080821115620003c1578384fd5b50620003d086828701620002c6565b925050604084015160ff81168114620003e7578182fd5b809150509250925092565b9485526020850193909352604084019190915260608301526001600160a01b0316608082015260a00190565b6002810460018216806200043357607f821691505b602082108114156200045557634e487b7160e01b600052602260045260246000fd5b50919050565b634e487b7160e01b600052604160045260246000fd5b60805160a05160c05160601c60e05161010051610120516101405161263d620004cf6000396000610b1c01526000610f6501526000610fa701526000610f8601526000610ee801526000610f1201526000610f3c015261263d6000f3fe608060405234801561001057600080fd5b50600436106101f05760003560e01c8063715018a61161010f5780639dc29fac116100a2578063d505accf11610071578063d505accf146103f4578063dd62ed3e14610407578063f1127ed81461041a578063f2fde38b1461043a576101f0565b80639dc29fac146103a8578063a457c2d7146103bb578063a9059cbb146103ce578063c3cda520146103e1576101f0565b80638da5cb5b116100de5780638da5cb5b146103725780638e539e8c1461037a57806395d89b411461038d5780639ab24eb014610395576101f0565b8063715018a61461033c57806379cc6790146103445780637ecebe00146103575780638456cb591461036a576101f0565b80633f4ba83a116101875780635c19a95c116101565780635c19a95c146102ee5780635c975abb146103015780636fcfff451461030957806370a0823114610329576101f0565b80633f4ba83a1461029e57806340c10f19146102a857806342966c68146102bb578063587cde1e146102ce576101f0565b8063313ce567116101c3578063313ce5671461025b5780633644e5151461027057806339509351146102785780633a46b1a81461028b576101f0565b806306fdde03146101f5578063095ea7b31461021357806318160ddd1461023357806323b872dd14610248575b600080fd5b6101fd61044d565b60405161020a9190611e33565b60405180910390f35b610226610221366004611c78565b6104e0565b60405161020a9190611d7d565b61023b6104fd565b60405161020a9190611d88565b610226610256366004611bd4565b610503565b61026361059c565b60405161020a919061255f565b61023b6105a1565b610226610286366004611c78565b6105b0565b61023b610299366004611c78565b610604565b6102a661064e565b005b6102a66102b6366004611c78565b610697565b6102a66102c9366004611d36565b6106e4565b6102e16102dc366004611b88565b6106f8565b60405161020a9190611d69565b6102a66102fc366004611b88565b610719565b61022661072a565b61031c610317366004611b88565b610738565b60405161020a919061254e565b61023b610337366004611b88565b610760565b6102a661077b565b6102a6610352366004611c78565b6107c4565b61023b610365366004611b88565b610817565b6102a6610838565b6102e161087f565b61023b610388366004611d36565b610894565b6101fd6108c0565b61023b6103a3366004611b88565b6108cf565b6102a66103b6366004611c78565b610964565b6102266103c9366004611c78565b6109ad565b6102266103dc366004611c78565b610a26565b6102a66103ef366004611ca1565b610a3a565b6102a6610402366004611c0f565b610af8565b61023b610415366004611ba2565b610bda565b61042d610428366004611cf8565b610c05565b60405161020a919061251a565b6102a6610448366004611b88565b610c8b565b60606003805461045c906125bc565b80601f0160208091040260200160405190810160405280929190818152602001828054610488906125bc565b80156104d55780601f106104aa576101008083540402835291602001916104d5565b820191906000526020600020905b8154815290600101906020018083116104b857829003601f168201915b505050505090505b90565b60006104f46104ed610cf9565b8484610cfd565b50600192915050565b60025490565b6000610510848484610db1565b6001600160a01b038416600090815260016020526040812081610531610cf9565b6001600160a01b03166001600160a01b031681526020019081526020016000205490508281101561057d5760405162461bcd60e51b815260040161057490612236565b60405180910390fd5b61059185610589610cf9565b858403610cfd565b506001949350505050565b601290565b60006105ab610edb565b905090565b60006104f46105bd610cf9565b8484600160006105cb610cf9565b6001600160a01b03908116825260208083019390935260409182016000908120918b16815292529020546105ff919061256d565b610cfd565b60004382106106255760405162461bcd60e51b815260040161057490611f00565b6001600160a01b03831660009081526008602052604090206106479083610fd2565b9392505050565b610656610cf9565b6001600160a01b031661066761087f565b6001600160a01b03161461068d5760405162461bcd60e51b8152600401610574906122ce565b6106956110ab565b565b61069f610cf9565b6001600160a01b03166106b061087f565b6001600160a01b0316146106d65760405162461bcd60e51b8152600401610574906122ce565b6106e0828261111a565b5050565b6106f56106ef610cf9565b82611124565b50565b6001600160a01b03808216600090815260076020526040902054165b919050565b6106f5610724610cf9565b8261112e565b600554610100900460ff1690565b6001600160a01b03811660009081526008602052604081205461075a906111ae565b92915050565b6001600160a01b031660009081526020819052604090205490565b610783610cf9565b6001600160a01b031661079461087f565b6001600160a01b0316146107ba5760405162461bcd60e51b8152600401610574906122ce565b61069560006111d8565b60006107d283610415610cf9565b9050818110156107f45760405162461bcd60e51b81526004016105749061234a565b61080883610800610cf9565b848403610cfd565b6108128383611124565b505050565b6001600160a01b038116600090815260066020526040812061075a90611234565b610840610cf9565b6001600160a01b031661085161087f565b6001600160a01b0316146108775760405162461bcd60e51b8152600401610574906122ce565b610695611238565b6005546201000090046001600160a01b031690565b60004382106108b55760405162461bcd60e51b815260040161057490611f00565b61075a600983610fd2565b60606004805461045c906125bc565b6001600160a01b0381166000908152600860205260408120548015610951576001600160a01b03831660009081526008602052604090206109116001836125a5565b8154811061092f57634e487b7160e01b600052603260045260246000fd5b60009182526020909120015464010000000090046001600160e01b0316610954565b60005b6001600160e01b03169392505050565b61096c610cf9565b6001600160a01b031661097d61087f565b6001600160a01b0316146109a35760405162461bcd60e51b8152600401610574906122ce565b6106e08282611124565b600080600160006109bc610cf9565b6001600160a01b0390811682526020808301939093526040918201600090812091881681529252902054905082811015610a085760405162461bcd60e51b81526004016105749061249e565b610a1c610a13610cf9565b85858403610cfd565b5060019392505050565b60006104f4610a33610cf9565b8484610db1565b83421115610a5a5760405162461bcd60e51b815260040161057490611f65565b6000610abc610ab47fe48329057bfd03d55e49b547132e39cffd9c1820ad7b9d4c5307691425d15adf898989604051602001610a999493929190611dc5565b60405160208183030381529060405280519060200120611295565b8585856112a8565b9050610ac7816112d0565b8614610ae55760405162461bcd60e51b815260040161057490612015565b610aef818861112e565b50505050505050565b83421115610b185760405162461bcd60e51b8152600401610574906120d4565b60007f0000000000000000000000000000000000000000000000000000000000000000888888610b478c6112d0565b89604051602001610b5d96959493929190611d91565b6040516020818303038152906040528051906020012090506000610b8082611295565b90506000610b90828787876112a8565b9050896001600160a01b0316816001600160a01b031614610bc35760405162461bcd60e51b8152600401610574906121ff565b610bce8a8a8a610cfd565b50505050505050505050565b6001600160a01b03918216600090815260016020908152604080832093909416825291909152205490565b610c0d611b49565b6001600160a01b0383166000908152600860205260409020805463ffffffff8416908110610c4b57634e487b7160e01b600052603260045260246000fd5b60009182526020918290206040805180820190915291015463ffffffff8116825264010000000090046001600160e01b0316918101919091529392505050565b610c93610cf9565b6001600160a01b0316610ca461087f565b6001600160a01b031614610cca5760405162461bcd60e51b8152600401610574906122ce565b6001600160a01b038116610cf05760405162461bcd60e51b81526004016105749061204c565b6106f5816111d8565b3390565b6001600160a01b038316610d235760405162461bcd60e51b81526004016105749061245a565b6001600160a01b038216610d495760405162461bcd60e51b815260040161057490612092565b6001600160a01b0380841660008181526001602090815260408083209487168084529490915290819020849055517f8c5be1e5ebec7d5bd14f71427d1e84f3dd0314c0f7b2291e5b200ac8c7c3b92590610da4908590611d88565b60405180910390a3505050565b6001600160a01b038316610dd75760405162461bcd60e51b8152600401610574906123cf565b6001600160a01b038216610dfd5760405162461bcd60e51b815260040161057490611ebd565b610e08838383611302565b6001600160a01b03831660009081526020819052604090205481811015610e415760405162461bcd60e51b81526004016105749061210b565b6001600160a01b03808516600090815260208190526040808220858503905591851681529081208054849290610e7890849061256d565b92505081905550826001600160a01b0316846001600160a01b03167fddf252ad1be2c89b69c2b068fc378daa952ba7f163c4a11628f55a4df523b3ef84604051610ec29190611d88565b60405180910390a3610ed5848484611332565b50505050565b6000306001600160a01b037f000000000000000000000000000000000000000000000000000000000000000016148015610f3457507f000000000000000000000000000000000000000000000000000000000000000046145b15610f6057507f00000000000000000000000000000000000000000000000000000000000000006104dd565b610fcb7f00000000000000000000000000000000000000000000000000000000000000007f00000000000000000000000000000000000000000000000000000000000000007f000000000000000000000000000000000000000000000000000000000000000061133d565b90506104dd565b8154600090815b81811015611044576000610fed8284611377565b90508486828154811061101057634e487b7160e01b600052603260045260246000fd5b60009182526020909120015463ffffffff1611156110305780925061103e565b61103b81600161256d565b91505b50610fd9565b811561109657846110566001846125a5565b8154811061107457634e487b7160e01b600052603260045260246000fd5b60009182526020909120015464010000000090046001600160e01b0316611099565b60005b6001600160e01b031695945050505050565b6110b361072a565b6110cf5760405162461bcd60e51b815260040161057490611f37565b6005805461ff00191690557f5db9ee0a495bf2e6ff9c91a7834c1ba4fdd244a5e8aa4e537bd38aeae4b073aa611103610cf9565b6040516111109190611d69565b60405180910390a1565b6106e08282611392565b6106e082826113e1565b6000611139836106f8565b9050600061114684610760565b6001600160a01b0385811660008181526007602052604080822080546001600160a01b031916898616908117909155905194955093928616927f3134e8a2e6d97e929a7e54011ea5485d7d196dd5f0ba4d4ef95803e8e3fc257f9190a4610ed58284836113f9565b600063ffffffff8211156111d45760405162461bcd60e51b815260040161057490612414565b5090565b600580546001600160a01b038381166201000081810262010000600160b01b031985161790945560405193909204169182907f8be0079c531659141344cd1fd0a4f28419497f9722a3daafe3b4186f6b6457e090600090a35050565b5490565b61124061072a565b1561125d5760405162461bcd60e51b815260040161057490612193565b6005805461ff0019166101001790557f62e78cea01bee320cd4e420270b5ea74000d11b0c9f74754ebdbfc544b05a258611103610cf9565b600061075a6112a2610edb565b83611524565b60008060006112b987878787611557565b915091506112c681611637565b5095945050505050565b6001600160a01b03811660009081526006602052604081206112f181611234565b91506112fc81611764565b50919050565b61130a61072a565b156113275760405162461bcd60e51b815260040161057490612193565b610812838383610812565b61081283838361176d565b60008383834630604051602001611358959493929190611de9565b6040516020818303038152906040528051906020012090509392505050565b60006113866002848418612585565b6106479084841661256d565b61139c8282611793565b6113a461185b565b6001600160e01b03166113b56104fd565b11156113d35760405162461bcd60e51b81526004016105749061227e565b610ed5600961186683611872565b6113eb8282611a23565b610ed56009611b1483611872565b816001600160a01b0316836001600160a01b03161415801561141b5750600081115b15610812576001600160a01b038316156114a0576001600160a01b0383166000908152600860205260408120819061145690611b1485611872565b91509150846001600160a01b03167fdec2bacdd2f05b59de34da9b523dff8be42e5e38e818c82fdb0bae774387a7248383604051611495929190612540565b60405180910390a250505b6001600160a01b03821615610812576001600160a01b038216600090815260086020526040812081906114d69061186685611872565b91509150836001600160a01b03167fdec2bacdd2f05b59de34da9b523dff8be42e5e38e818c82fdb0bae774387a7248383604051611515929190612540565b60405180910390a25050505050565b60008282604051602001611539929190611d4e565b60405160208183030381529060405280519060200120905092915050565b6000807f7fffffffffffffffffffffffffffffff5d576e7357a4501ddfe92f46681b20a083111561158e575060009050600361162e565b8460ff16601b141580156115a657508460ff16601c14155b156115b7575060009050600461162e565b6000600187878787604051600081526020016040526040516115dc9493929190611e15565b6020604051602081039080840390855afa1580156115fe573d6000803e3d6000fd5b5050604051601f1901519150506001600160a01b0381166116275760006001925092505061162e565b9150600090505b94509492505050565b600081600481111561165957634e487b7160e01b600052602160045260246000fd5b1415611664576106f5565b600181600481111561168657634e487b7160e01b600052602160045260246000fd5b14156116a45760405162461bcd60e51b815260040161057490611e86565b60028160048111156116c657634e487b7160e01b600052602160045260246000fd5b14156116e45760405162461bcd60e51b815260040161057490611fde565b600381600481111561170657634e487b7160e01b600052602160045260246000fd5b14156117245760405162461bcd60e51b815260040161057490612151565b600481600481111561174657634e487b7160e01b600052602160045260246000fd5b14156106f55760405162461bcd60e51b8152600401610574906121bd565b80546001019055565b611778838383610812565b610812611784846106f8565b61178d846106f8565b836113f9565b6001600160a01b0382166117b95760405162461bcd60e51b8152600401610574906124e3565b6117c560008383611302565b80600260008282546117d7919061256d565b90915550506001600160a01b0382166000908152602081905260408120805483929061180490849061256d565b90915550506040516001600160a01b038316906000907fddf252ad1be2c89b69c2b068fc378daa952ba7f163c4a11628f55a4df523b3ef90611847908590611d88565b60405180910390a36106e060008383611332565b6001600160e01b0390565b6000610647828461256d565b8254600090819080156118cb578561188b6001836125a5565b815481106118a957634e487b7160e01b600052603260045260246000fd5b60009182526020909120015464010000000090046001600160e01b03166118ce565b60005b6001600160e01b031692506118e783858763ffffffff16565b9150600081118015611933575043866119016001846125a5565b8154811061191f57634e487b7160e01b600052603260045260246000fd5b60009182526020909120015463ffffffff16145b156119a15761194182611b20565b8661194d6001846125a5565b8154811061196b57634e487b7160e01b600052603260045260246000fd5b9060005260206000200160000160046101000a8154816001600160e01b0302191690836001600160e01b03160217905550611a1a565b8560405180604001604052806119b6436111ae565b63ffffffff1681526020016119ca85611b20565b6001600160e01b039081169091528254600181018455600093845260209384902083519101805493909401519091166401000000000263ffffffff91821663ffffffff1990931692909217161790555b50935093915050565b6001600160a01b038216611a495760405162461bcd60e51b81526004016105749061238e565b611a5582600083611302565b6001600160a01b03821660009081526020819052604090205481811015611a8e5760405162461bcd60e51b815260040161057490611f9c565b6001600160a01b0383166000908152602081905260408120838303905560028054849290611abd9084906125a5565b90915550506040516000906001600160a01b038516907fddf252ad1be2c89b69c2b068fc378daa952ba7f163c4a11628f55a4df523b3ef90611b00908690611d88565b60405180910390a361081283600084611332565b600061064782846125a5565b60006001600160e01b038211156111d45760405162461bcd60e51b815260040161057490612303565b604080518082019091526000808252602082015290565b80356001600160a01b038116811461071457600080fd5b803560ff8116811461071457600080fd5b600060208284031215611b99578081fd5b61064782611b60565b60008060408385031215611bb4578081fd5b611bbd83611b60565b9150611bcb60208401611b60565b90509250929050565b600080600060608486031215611be8578081fd5b611bf184611b60565b9250611bff60208501611b60565b9150604084013590509250925092565b600080600080600080600060e0888a031215611c29578283fd5b611c3288611b60565b9650611c4060208901611b60565b95506040880135945060608801359350611c5c60808901611b77565b925060a0880135915060c0880135905092959891949750929550565b60008060408385031215611c8a578182fd5b611c9383611b60565b946020939093013593505050565b60008060008060008060c08789031215611cb9578182fd5b611cc287611b60565b95506020870135945060408701359350611cde60608801611b77565b92506080870135915060a087013590509295509295509295565b60008060408385031215611d0a578182fd5b611d1383611b60565b9150602083013563ffffffff81168114611d2b578182fd5b809150509250929050565b600060208284031215611d47578081fd5b5035919050565b61190160f01b81526002810192909252602282015260420190565b6001600160a01b0391909116815260200190565b901515815260200190565b90815260200190565b9586526001600160a01b0394851660208701529290931660408501526060840152608083019190915260a082015260c00190565b9384526001600160a01b039290921660208401526040830152606082015260800190565b9485526020850193909352604084019190915260608301526001600160a01b0316608082015260a00190565b93845260ff9290921660208401526040830152606082015260800190565b6000602080835283518082850152825b81811015611e5f57858101830151858201604001528201611e43565b81811115611e705783604083870101525b50601f01601f1916929092016040019392505050565b60208082526018908201527f45434453413a20696e76616c6964207369676e61747572650000000000000000604082015260600190565b60208082526023908201527f45524332303a207472616e7366657220746f20746865207a65726f206164647260408201526265737360e81b606082015260800190565b6020808252601f908201527f4552433230566f7465733a20626c6f636b206e6f7420796574206d696e656400604082015260600190565b60208082526014908201527314185d5cd8589b194e881b9bdd081c185d5cd95960621b604082015260600190565b6020808252601d908201527f4552433230566f7465733a207369676e61747572652065787069726564000000604082015260600190565b60208082526022908201527f45524332303a206275726e20616d6f756e7420657863656564732062616c616e604082015261636560f01b606082015260800190565b6020808252601f908201527f45434453413a20696e76616c6964207369676e6174757265206c656e67746800604082015260600190565b60208082526019908201527f4552433230566f7465733a20696e76616c6964206e6f6e636500000000000000604082015260600190565b60208082526026908201527f4f776e61626c653a206e6577206f776e657220697320746865207a65726f206160408201526564647265737360d01b606082015260800190565b60208082526022908201527f45524332303a20617070726f766520746f20746865207a65726f206164647265604082015261737360f01b606082015260800190565b6020808252601d908201527f45524332305065726d69743a206578706972656420646561646c696e65000000604082015260600190565b60208082526026908201527f45524332303a207472616e7366657220616d6f756e7420657863656564732062604082015265616c616e636560d01b606082015260800190565b60208082526022908201527f45434453413a20696e76616c6964207369676e6174757265202773272076616c604082015261756560f01b606082015260800190565b60208082526010908201526f14185d5cd8589b194e881c185d5cd95960821b604082015260600190565b60208082526022908201527f45434453413a20696e76616c6964207369676e6174757265202776272076616c604082015261756560f01b606082015260800190565b6020808252601e908201527f45524332305065726d69743a20696e76616c6964207369676e61747572650000604082015260600190565b60208082526028908201527f45524332303a207472616e7366657220616d6f756e74206578636565647320616040820152676c6c6f77616e636560c01b606082015260800190565b60208082526030908201527f4552433230566f7465733a20746f74616c20737570706c79207269736b73206f60408201526f766572666c6f77696e6720766f74657360801b606082015260800190565b6020808252818101527f4f776e61626c653a2063616c6c6572206973206e6f7420746865206f776e6572604082015260600190565b60208082526027908201527f53616665436173743a2076616c756520646f65736e27742066697420696e20326040820152663234206269747360c81b606082015260800190565b60208082526024908201527f45524332303a206275726e20616d6f756e74206578636565647320616c6c6f77604082015263616e636560e01b606082015260800190565b60208082526021908201527f45524332303a206275726e2066726f6d20746865207a65726f206164647265736040820152607360f81b606082015260800190565b60208082526025908201527f45524332303a207472616e736665722066726f6d20746865207a65726f206164604082015264647265737360d81b606082015260800190565b60208082526026908201527f53616665436173743a2076616c756520646f65736e27742066697420696e203360408201526532206269747360d01b606082015260800190565b60208082526024908201527f45524332303a20617070726f76652066726f6d20746865207a65726f206164646040820152637265737360e01b606082015260800190565b60208082526025908201527f45524332303a2064656372656173656420616c6c6f77616e63652062656c6f77604082015264207a65726f60d81b606082015260800190565b6020808252601f908201527f45524332303a206d696e7420746f20746865207a65726f206164647265737300604082015260600190565b815163ffffffff1681526020918201516001600160e01b03169181019190915260400190565b918252602082015260400190565b63ffffffff91909116815260200190565b60ff91909116815260200190565b60008219821115612580576125806125f1565b500190565b6000826125a057634e487b7160e01b81526012600452602481fd5b500490565b6000828210156125b7576125b76125f1565b500390565b6002810460018216806125d057607f821691505b602082108114156112fc57634e487b7160e01b600052602260045260246000fd5b634e487b7160e01b600052601160045260246000fdfea2646970667358221220a4e2bb6fd112c9e94d9e2cd94c49e979454bbc00ff3ab93e8e48d970504ebcca64736f6c63430008000033",
  "immutableReferences": {
    "3671": [
      {
        "length": 32,
        "start": 2844
      }
    ],
    "6456": [
      {
        "length": 32,
        "start": 3900
      }
    ],
    "6458": [
      {
        "length": 32,
        "start": 3858
      }
    ],
    "6460": [
      {
        "length": 32,
        "start": 3816
      }
    ],
    "6462": [
      {
        "length": 32,
        "start": 3974
      }
    ],
    "6464": [
      {
        "length": 32,
        "start": 4007
      }
    ],
    "6466": [
      {
        "length": 32,
        "start": 3941
      }
    ]
  },
  "source": "/**\n * ERC20\n */\npragma solidity >=0.8.0;\n\nimport \"@openzeppelin/contracts/token/ERC20/ERC20.sol\";\nimport \"@openzeppelin/contracts/token/ERC20/extensions/ERC20Burnable.sol\";\nimport \"@openzeppelin/contracts/security/Pausable.sol\";\nimport \"@openzeppelin/contracts/access/Ownable.sol\";\nimport \"@openzeppelin/contracts/token/ERC20/extensions/draft-ERC20Permit.sol\";\nimport \"@openzeppelin/contracts/token/ERC20/extensions/ERC20Votes.sol\";\n\n/**\n * MyToken\n */\ncontract MyToken is ERC20, ERC20Burnable, Pausable, Ownable, ERC20Permit, ERC20Votes {\n\n      // \n      string tokenName;\n      // \n      string tokenSymbol;\n\n      /**\n       * \n       * @param _name \n       * @param _symbol \n       */\n      constructor(string memory _name, string memory _symbol, uint8 _decimal) ERC20(_name, _symbol, _decimal) ERC20Permit(_name) {\n            // \n            tokenName = _name;\n            tokenSymbol = _symbol;\n      }\n\n      /**\n       * \n       */\n      function pause() public onlyOwner {\n            _pause();\n      }\n\n      /**\n       * \n       */\n      function unpause() public onlyOwner {\n            _unpause();\n      }\n\n      /**\n       * \n       * @param to \n       * @param amount  \n       */\n      function mint(address to, uint256 amount) public onlyOwner {\n            _mint(to, amount);\n      }\n\n      /**\n       * \n       * @param to \n       * @param amount  \n       */\n      function burn(address to, uint256 amount) public onlyOwner {\n            _burn(to, amount);\n      }\n\n      /**\n       * \n       * @param from \n       * @param to \n       * @param amount \n       */\n      function _beforeTokenTransfer(address from, address to, uint256 amount) internal whenNotPaused override {\n            super._beforeTokenTransfer(from, to, amount);\n      }\n   \n      /**\n       * \n       * @param from \n       * @param to \n       * @param amount \n       */\n      function _afterTokenTransfer(address from, address to, uint256 amount) internal override(ERC20, ERC20Votes) {\n            super._afterTokenTransfer(from, to, amount);\n      }\n\n      /**\n       * \n       */\n      function _mint(address to, uint256 amount) internal override(ERC20, ERC20Votes) {\n            super._mint(to, amount);\n      }\n\n      /**\n       * \n       */\n      function _burn(address account, uint256 amount) internal override(ERC20, ERC20Votes) {\n            super._burn(account, amount);\n      }\n}\n",
  "sourcePath": "/Users/harukikondo/git/TruffleRinkeby/MetaCoin/contracts/ERC20/MyToken.sol",
  "compiler": {
    "name": "solc",
    "version": "0.8.0+commit.c7dfd78e.Emscripten.clang"
  },
  "schemaVersion": "3.2.0",
  "updatedAt": "2022-06-04T12:27:58.299Z",
  "devdoc": {
    "kind": "dev",
    "methods": {
      "DOMAIN_SEPARATOR()": {
        "details": "See {IERC20Permit-DOMAIN_SEPARATOR}."
      },
      "allowance(address,address)": {
        "details": "See {IERC20-allowance}."
      },
      "approve(address,uint256)": {
        "details": "See {IERC20-approve}. Requirements: - `spender` cannot be the zero address."
      },
      "balanceOf(address)": {
        "details": "See {IERC20-balanceOf}."
      },
      "burn(address,uint256)": {
        "params": {
          "amount": " ",
          "to": ""
        }
      },
      "burn(uint256)": {
        "details": "Destroys `amount` tokens from the caller. See {ERC20-_burn}."
      },
      "burnFrom(address,uint256)": {
        "details": "Destroys `amount` tokens from `account`, deducting from the caller's allowance. See {ERC20-_burn} and {ERC20-allowance}. Requirements: - the caller must have allowance for ``accounts``'s tokens of at least `amount`."
      },
      "checkpoints(address,uint32)": {
        "details": "Get the `pos`-th checkpoint for `account`."
      },
      "constructor": {
        "params": {
          "_name": "",
          "_symbol": ""
        }
      },
      "decimals()": {
        "details": "Returns the number of decimals used to get its user representation. For example, if `decimals` equals `2`, a balance of `505` tokens should be displayed to a user as `5.05` (`505 / 10 ** 2`). Tokens usually opt for a value of 18, imitating the relationship between Ether and Wei. This is the value {ERC20} uses, unless this function is overridden; NOTE: This information is only used for _display_ purposes: it in no way affects any of the arithmetic of the contract, including {IERC20-balanceOf} and {IERC20-transfer}."
      },
      "decreaseAllowance(address,uint256)": {
        "details": "Atomically decreases the allowance granted to `spender` by the caller. This is an alternative to {approve} that can be used as a mitigation for problems described in {IERC20-approve}. Emits an {Approval} event indicating the updated allowance. Requirements: - `spender` cannot be the zero address. - `spender` must have allowance for the caller of at least `subtractedValue`."
      },
      "delegate(address)": {
        "details": "Delegate votes from the sender to `delegatee`."
      },
      "delegateBySig(address,uint256,uint256,uint8,bytes32,bytes32)": {
        "details": "Delegates votes from signer to `delegatee`"
      },
      "delegates(address)": {
        "details": "Get the address `account` is currently delegating to."
      },
      "getPastTotalSupply(uint256)": {
        "details": "Retrieve the `totalSupply` at the end of `blockNumber`. Note, this value is the sum of all balances. It is but NOT the sum of all the delegated votes! Requirements: - `blockNumber` must have been already mined"
      },
      "getPastVotes(address,uint256)": {
        "details": "Retrieve the number of votes for `account` at the end of `blockNumber`. Requirements: - `blockNumber` must have been already mined"
      },
      "getVotes(address)": {
        "details": "Gets the current votes balance for `account`"
      },
      "increaseAllowance(address,uint256)": {
        "details": "Atomically increases the allowance granted to `spender` by the caller. This is an alternative to {approve} that can be used as a mitigation for problems described in {IERC20-approve}. Emits an {Approval} event indicating the updated allowance. Requirements: - `spender` cannot be the zero address."
      },
      "mint(address,uint256)": {
        "params": {
          "amount": " ",
          "to": ""
        }
      },
      "name()": {
        "details": "Returns the name of the token."
      },
      "nonces(address)": {
        "details": "See {IERC20Permit-nonces}."
      },
      "numCheckpoints(address)": {
        "details": "Get number of checkpoints for `account`."
      },
      "owner()": {
        "details": "Returns the address of the current owner."
      },
      "paused()": {
        "details": "Returns true if the contract is paused, and false otherwise."
      },
      "permit(address,address,uint256,uint256,uint8,bytes32,bytes32)": {
        "details": "See {IERC20Permit-permit}."
      },
      "renounceOwnership()": {
        "details": "Leaves the contract without owner. It will not be possible to call `onlyOwner` functions anymore. Can only be called by the current owner. NOTE: Renouncing ownership will leave the contract without an owner, thereby removing any functionality that is only available to the owner."
      },
      "symbol()": {
        "details": "Returns the symbol of the token, usually a shorter version of the name."
      },
      "totalSupply()": {
        "details": "See {IERC20-totalSupply}."
      },
      "transfer(address,uint256)": {
        "details": "See {IERC20-transfer}. Requirements: - `recipient` cannot be the zero address. - the caller must have a balance of at least `amount`."
      },
      "transferFrom(address,address,uint256)": {
        "details": "See {IERC20-transferFrom}. Emits an {Approval} event indicating the updated allowance. This is not required by the EIP. See the note at the beginning of {ERC20}. Requirements: - `sender` and `recipient` cannot be the zero address. - `sender` must have a balance of at least `amount`. - the caller must have allowance for ``sender``'s tokens of at least `amount`."
      },
      "transferOwnership(address)": {
        "details": "Transfers ownership of the contract to a new account (`newOwner`). Can only be called by the current owner."
      }
    },
    "version": 1
  },
  "userdoc": {
    "kind": "user",
    "methods": {
      "burn(address,uint256)": {
        "notice": ""
      },
      "constructor": {
        "notice": ""
      },
      "mint(address,uint256)": {
        "notice": ""
      },
      "pause()": {
        "notice": ""
      },
      "unpause()": {
        "notice": ""
      }
    },
    "notice": "MyToken",
    "version": 1
  }
}