{
  "contractName": "TestRegistry",
  "abi": [
    {
      "inputs": [
        {
          "internalType": "address",
          "name": "",
          "type": "address"
        }
      ],
      "name": "registry",
      "outputs": [
        {
          "internalType": "uint256",
          "name": "",
          "type": "uint256"
        }
      ],
      "stateMutability": "view",
      "type": "function"
    },
    {
      "inputs": [
        {
          "internalType": "uint256",
          "name": "x",
          "type": "uint256"
        }
      ],
      "name": "register",
      "outputs": [],
      "stateMutability": "payable",
      "type": "function"
    }
  ],
  "bytecode": "0x608060405234801561001057600080fd5b50610111806100206000396000f3fe60806040526004361060265760003560e01c8063038defd714602b578063f207564e14605a575b600080fd5b348015603657600080fd5b5060466042366004608f565b606b565b6040516051919060d2565b60405180910390f35b6069606536600460bb565b607d565b005b60006020819052908152604090205481565b33600090815260208190526040902055565b600060208284031215609f578081fd5b81356001600160a01b038116811460b4578182fd5b9392505050565b60006020828403121560cb578081fd5b5035919050565b9081526020019056fea2646970667358221220b8c0285a07cf4646d9071cb33d15b6c165aa929990439d8c6b3eb4a6aec4bbbc64736f6c63430008000033",
  "immutableReferences": {},
  "source": "pragma solidity >0.4.23;\n\n// This contract is only used for testing purposes.\ncontract TestRegistry {\n  // アドレスと残高を紐づけるマップ変数\n  mapping(address => uint) public registry;\n\n  // 登録処理関数\n  function register(uint x) payable public {\n    // コントラクト呼び出し元アドレスとxを紐づける。\n    registry[msg.sender] = x;\n  }\n\n}\n",
  "sourcePath": "/Users/harukikondo/git/TruffleRinkeby/MetaCoin/contracts/TestRegistry.sol",
  "compiler": {
    "name": "solc",
    "version": "0.8.0+commit.c7dfd78e.Emscripten.clang"
  },
  "schemaVersion": "3.2.0",
  "updatedAt": "2022-06-04T12:56:34.275Z",
  "devdoc": {
    "kind": "dev",
    "methods": {},
    "version": 1
  },
  "userdoc": {
    "kind": "user",
    "methods": {},
    "version": 1
  }
}