{
  "contractName": "Fundraiser",
  "abi": [
    {
      "inputs": [
        {
          "internalType": "string",
          "name": "_name",
          "type": "string"
        },
        {
          "internalType": "string",
          "name": "_url",
          "type": "string"
        },
        {
          "internalType": "string",
          "name": "_imageURL",
          "type": "string"
        },
        {
          "internalType": "string",
          "name": "_description",
          "type": "string"
        },
        {
          "internalType": "address payable",
          "name": "_beneficiary",
          "type": "address"
        },
        {
          "internalType": "address",
          "name": "_custodian",
          "type": "address"
        }
      ],
      "stateMutability": "nonpayable",
      "type": "constructor"
    },
    {
      "anonymous": false,
      "inputs": [
        {
          "indexed": true,
          "internalType": "address",
          "name": "donor",
          "type": "address"
        },
        {
          "indexed": false,
          "internalType": "uint256",
          "name": "value",
          "type": "uint256"
        }
      ],
      "name": "DonationReceived",
      "type": "event"
    },
    {
      "anonymous": false,
      "inputs": [
        {
          "indexed": true,
          "internalType": "address",
          "name": "previousOwner",
          "type": "address"
        },
        {
          "indexed": true,
          "internalType": "address",
          "name": "newOwner",
          "type": "address"
        }
      ],
      "name": "OwnershipTransferred",
      "type": "event"
    },
    {
      "anonymous": false,
      "inputs": [
        {
          "indexed": false,
          "internalType": "uint256",
          "name": "amount",
          "type": "uint256"
        }
      ],
      "name": "Withdraw",
      "type": "event"
    },
    {
      "stateMutability": "payable",
      "type": "fallback"
    },
    {
      "inputs": [],
      "name": "beneficiary",
      "outputs": [
        {
          "internalType": "address payable",
          "name": "",
          "type": "address"
        }
      ],
      "stateMutability": "view",
      "type": "function"
    },
    {
      "inputs": [],
      "name": "custodian",
      "outputs": [
        {
          "internalType": "address",
          "name": "",
          "type": "address"
        }
      ],
      "stateMutability": "view",
      "type": "function"
    },
    {
      "inputs": [],
      "name": "description",
      "outputs": [
        {
          "internalType": "string",
          "name": "",
          "type": "string"
        }
      ],
      "stateMutability": "view",
      "type": "function"
    },
    {
      "inputs": [],
      "name": "donationsCount",
      "outputs": [
        {
          "internalType": "uint256",
          "name": "",
          "type": "uint256"
        }
      ],
      "stateMutability": "view",
      "type": "function"
    },
    {
      "inputs": [],
      "name": "imageURL",
      "outputs": [
        {
          "internalType": "string",
          "name": "",
          "type": "string"
        }
      ],
      "stateMutability": "view",
      "type": "function"
    },
    {
      "inputs": [],
      "name": "name",
      "outputs": [
        {
          "internalType": "string",
          "name": "",
          "type": "string"
        }
      ],
      "stateMutability": "view",
      "type": "function"
    },
    {
      "inputs": [],
      "name": "owner",
      "outputs": [
        {
          "internalType": "address",
          "name": "",
          "type": "address"
        }
      ],
      "stateMutability": "view",
      "type": "function"
    },
    {
      "inputs": [],
      "name": "renounceOwnership",
      "outputs": [],
      "stateMutability": "nonpayable",
      "type": "function"
    },
    {
      "inputs": [],
      "name": "totalDonations",
      "outputs": [
        {
          "internalType": "uint256",
          "name": "",
          "type": "uint256"
        }
      ],
      "stateMutability": "view",
      "type": "function"
    },
    {
      "inputs": [
        {
          "internalType": "address",
          "name": "newOwner",
          "type": "address"
        }
      ],
      "name": "transferOwnership",
      "outputs": [],
      "stateMutability": "nonpayable",
      "type": "function"
    },
    {
      "inputs": [],
      "name": "url",
      "outputs": [
        {
          "internalType": "string",
          "name": "",
          "type": "string"
        }
      ],
      "stateMutability": "view",
      "type": "function"
    },
    {
      "inputs": [
        {
          "internalType": "address payable",
          "name": "_beneficiary",
          "type": "address"
        }
      ],
      "name": "setBeneficiary",
      "outputs": [],
      "stateMutability": "nonpayable",
      "type": "function"
    },
    {
      "inputs": [],
      "name": "myDonationsCount",
      "outputs": [
        {
          "internalType": "uint256",
          "name": "",
          "type": "uint256"
        }
      ],
      "stateMutability": "view",
      "type": "function"
    },
    {
      "inputs": [],
      "name": "donate",
      "outputs": [],
      "stateMutability": "payable",
      "type": "function"
    },
    {
      "inputs": [],
      "name": "myDonations",
      "outputs": [
        {
          "internalType": "uint256[]",
          "name": "values",
          "type": "uint256[]"
        },
        {
          "internalType": "uint256[]",
          "name": "dates",
          "type": "uint256[]"
        }
      ],
      "stateMutability": "view",
      "type": "function"
    },
    {
      "inputs": [],
      "name": "withdraw",
      "outputs": [],
      "stateMutability": "nonpayable",
      "type": "function"
    }
  ],
  "bytecode": "0x60806040523480156200001157600080fd5b5060405162001cd838038062001cd88339818101604052810190620000379190620004e9565b600062000049620001a960201b60201c565b9050806000806101000a81548173ffffffffffffffffffffffffffffffffffffffff021916908373ffffffffffffffffffffffffffffffffffffffff1602179055508073ffffffffffffffffffffffffffffffffffffffff16600073ffffffffffffffffffffffffffffffffffffffff167f8be0079c531659141344cd1fd0a4f28419497f9722a3daafe3b4186f6b6457e060405160405180910390a3508560019080519060200190620000ff92919062000399565b5084600290805190602001906200011892919062000399565b5083600390805190602001906200013192919062000399565b5082600490805190602001906200014a92919062000399565b5081600560006101000a81548173ffffffffffffffffffffffffffffffffffffffff021916908373ffffffffffffffffffffffffffffffffffffffff1602179055506200019d81620001b160201b60201c565b5050505050506200088f565b600033905090565b620001c1620001a960201b60201c565b73ffffffffffffffffffffffffffffffffffffffff16620001e76200037060201b60201c565b73ffffffffffffffffffffffffffffffffffffffff161462000240576040517f08c379a00000000000000000000000000000000000000000000000000000000081526004016200023790620006af565b60405180910390fd5b600073ffffffffffffffffffffffffffffffffffffffff168173ffffffffffffffffffffffffffffffffffffffff161415620002b3576040517f08c379a0000000000000000000000000000000000000000000000000000000008152600401620002aa906200068d565b60405180910390fd5b8073ffffffffffffffffffffffffffffffffffffffff1660008054906101000a900473ffffffffffffffffffffffffffffffffffffffff1673ffffffffffffffffffffffffffffffffffffffff167f8be0079c531659141344cd1fd0a4f28419497f9722a3daafe3b4186f6b6457e060405160405180910390a3806000806101000a81548173ffffffffffffffffffffffffffffffffffffffff021916908373ffffffffffffffffffffffffffffffffffffffff16021790555050565b60008060009054906101000a900473ffffffffffffffffffffffffffffffffffffffff16905090565b828054620003a790620007c7565b90600052602060002090601f016020900481019282620003cb576000855562000417565b82601f10620003e657805160ff191683800117855562000417565b8280016001018555821562000417579182015b8281111562000416578251825591602001919060010190620003f9565b5b5090506200042691906200042a565b5090565b5b80821115620004455760008160009055506001016200042b565b5090565b6000620004606200045a8462000705565b620006d1565b9050828152602081018484840111156200047957600080fd5b6200048684828562000791565b509392505050565b6000815190506200049f816200085b565b92915050565b600081519050620004b68162000875565b92915050565b600082601f830112620004ce57600080fd5b8151620004e084826020860162000449565b91505092915050565b60008060008060008060c087890312156200050357600080fd5b600087015167ffffffffffffffff8111156200051e57600080fd5b6200052c89828a01620004bc565b965050602087015167ffffffffffffffff8111156200054a57600080fd5b6200055889828a01620004bc565b955050604087015167ffffffffffffffff8111156200057657600080fd5b6200058489828a01620004bc565b945050606087015167ffffffffffffffff811115620005a257600080fd5b620005b089828a01620004bc565b9350506080620005c389828a01620004a5565b92505060a0620005d689828a016200048e565b9150509295509295509295565b6000620005f260268362000738565b91507f4f776e61626c653a206e6577206f776e657220697320746865207a65726f206160008301527f64647265737300000000000000000000000000000000000000000000000000006020830152604082019050919050565b60006200065a60208362000738565b91507f4f776e61626c653a2063616c6c6572206973206e6f7420746865206f776e65726000830152602082019050919050565b60006020820190508181036000830152620006a881620005e3565b9050919050565b60006020820190508181036000830152620006ca816200064b565b9050919050565b6000604051905081810181811067ffffffffffffffff82111715620006fb57620006fa6200082c565b5b8060405250919050565b600067ffffffffffffffff8211156200072357620007226200082c565b5b601f19601f8301169050602081019050919050565b600082825260208201905092915050565b6000620007568262000771565b9050919050565b60006200076a8262000771565b9050919050565b600073ffffffffffffffffffffffffffffffffffffffff82169050919050565b60005b83811015620007b157808201518184015260208101905062000794565b83811115620007c1576000848401525b50505050565b60006002820490506001821680620007e057607f821691505b60208210811415620007f757620007f6620007fd565b5b50919050565b7f4e487b7100000000000000000000000000000000000000000000000000000000600052602260045260246000fd5b7f4e487b7100000000000000000000000000000000000000000000000000000000600052604160045260246000fd5b620008668162000749565b81146200087257600080fd5b50565b62000880816200075d565b81146200088c57600080fd5b50565b611439806200089f6000396000f3fe6080604052600436106100f75760003560e01c80635600f04f1161008a578063b90497e011610059578063b90497e014610308578063de2ed89314610333578063ed88c68e1461035e578063f2fde38b14610368576100f8565b80635600f04f14610270578063715018a61461029b5780637284e416146102b25780638da5cb5b146102dd576100f8565b80631f522595116100c65780631f522595146101d8578063375b74c31461020357806338af3eed1461022e5780633ccfd60b14610259576100f8565b80630180b97c1461012d57806306fdde03146101585780631a57f7b4146101835780631c31f710146101af576100f8565b5b61010d3460085461039190919063ffffffff16565b600881905550600960008154809291906101269061131d565b9190505550005b34801561013957600080fd5b506101426103a7565b60405161014f91906111a4565b60405180910390f35b34801561016457600080fd5b5061016d6103f1565b60405161017a9190611142565b60405180910390f35b34801561018f57600080fd5b5061019861047f565b6040516101a692919061110b565b60405180910390f35b3480156101bb57600080fd5b506101d660048036038101906101d19190610f1b565b6106b2565b005b3480156101e457600080fd5b506101ed610772565b6040516101fa91906111a4565b60405180910390f35b34801561020f57600080fd5b50610218610778565b60405161022591906110d5565b60405180910390f35b34801561023a57600080fd5b5061024361079e565b60405161025091906110f0565b60405180910390f35b34801561026557600080fd5b5061026e6107c4565b005b34801561027c57600080fd5b506102856108e8565b6040516102929190611142565b60405180910390f35b3480156102a757600080fd5b506102b0610976565b005b3480156102be57600080fd5b506102c7610ab0565b6040516102d49190611142565b60405180910390f35b3480156102e957600080fd5b506102f2610b3e565b6040516102ff91906110d5565b60405180910390f35b34801561031457600080fd5b5061031d610b67565b60405161032a9190611142565b60405180910390f35b34801561033f57600080fd5b50610348610bf5565b60405161035591906111a4565b60405180910390f35b610366610bfb565b005b34801561037457600080fd5b5061038f600480360381019061038a9190610ef2565b610d17565b005b6000818361039f9190611214565b905092915050565b6000600760003373ffffffffffffffffffffffffffffffffffffffff1673ffffffffffffffffffffffffffffffffffffffff16815260200190815260200160002080549050905090565b600180546103fe906112eb565b80601f016020809104026020016040519081016040528092919081815260200182805461042a906112eb565b80156104775780601f1061044c57610100808354040283529160200191610477565b820191906000526020600020905b81548152906001019060200180831161045a57829003601f168201915b505050505081565b606080600061048c6103a7565b90508067ffffffffffffffff8111156104ce577f4e487b7100000000000000000000000000000000000000000000000000000000600052604160045260246000fd5b6040519080825280602002602001820160405280156104fc5781602001602082028036833780820191505090505b5092508067ffffffffffffffff81111561053f577f4e487b7100000000000000000000000000000000000000000000000000000000600052604160045260246000fd5b60405190808252806020026020018201604052801561056d5781602001602082028036833780820191505090505b50915060005b818110156106ac576000600760003373ffffffffffffffffffffffffffffffffffffffff1673ffffffffffffffffffffffffffffffffffffffff16815260200190815260200160002082815481106105f4577f4e487b7100000000000000000000000000000000000000000000000000000000600052603260045260246000fd5b906000526020600020906002020190508060000154858381518110610642577f4e487b7100000000000000000000000000000000000000000000000000000000600052603260045260246000fd5b602002602001018181525050806001015484838151811061068c577f4e487b7100000000000000000000000000000000000000000000000000000000600052603260045260246000fd5b6020026020010181815250505080806106a49061131d565b915050610573565b50509091565b6106ba610ec0565b73ffffffffffffffffffffffffffffffffffffffff166106d8610b3e565b73ffffffffffffffffffffffffffffffffffffffff161461072e576040517f08c379a000000000000000000000000000000000000000000000000000000000815260040161072590611184565b60405180910390fd5b80600560006101000a81548173ffffffffffffffffffffffffffffffffffffffff021916908373ffffffffffffffffffffffffffffffffffffffff16021790555050565b60095481565b600660009054906101000a900473ffffffffffffffffffffffffffffffffffffffff1681565b600560009054906101000a900473ffffffffffffffffffffffffffffffffffffffff1681565b6107cc610ec0565b73ffffffffffffffffffffffffffffffffffffffff166107ea610b3e565b73ffffffffffffffffffffffffffffffffffffffff1614610840576040517f08c379a000000000000000000000000000000000000000000000000000000000815260040161083790611184565b60405180910390fd5b6000479050600560009054906101000a900473ffffffffffffffffffffffffffffffffffffffff1673ffffffffffffffffffffffffffffffffffffffff166108fc829081150290604051600060405180830381858888f193505050501580156108ad573d6000803e3d6000fd5b507f5b6b431d4476a211bb7d41c20d1aab9ae2321deee0d20be3d9fc9b1093fa6e3d816040516108dd91906111a4565b60405180910390a150565b600280546108f5906112eb565b80601f0160208091040260200160405190810160405280929190818152602001828054610921906112eb565b801561096e5780601f106109435761010080835404028352916020019161096e565b820191906000526020600020905b81548152906001019060200180831161095157829003601f168201915b505050505081565b61097e610ec0565b73ffffffffffffffffffffffffffffffffffffffff1661099c610b3e565b73ffffffffffffffffffffffffffffffffffffffff16146109f2576040517f08c379a00000000000000000000000000000000000000000000000000000000081526004016109e990611184565b60405180910390fd5b600073ffffffffffffffffffffffffffffffffffffffff1660008054906101000a900473ffffffffffffffffffffffffffffffffffffffff1673ffffffffffffffffffffffffffffffffffffffff167f8be0079c531659141344cd1fd0a4f28419497f9722a3daafe3b4186f6b6457e060405160405180910390a360008060006101000a81548173ffffffffffffffffffffffffffffffffffffffff021916908373ffffffffffffffffffffffffffffffffffffffff160217905550565b60048054610abd906112eb565b80601f0160208091040260200160405190810160405280929190818152602001828054610ae9906112eb565b8015610b365780601f10610b0b57610100808354040283529160200191610b36565b820191906000526020600020905b815481529060010190602001808311610b1957829003601f168201915b505050505081565b60008060009054906101000a900473ffffffffffffffffffffffffffffffffffffffff16905090565b60038054610b74906112eb565b80601f0160208091040260200160405190810160405280929190818152602001828054610ba0906112eb565b8015610bed5780601f10610bc257610100808354040283529160200191610bed565b820191906000526020600020905b815481529060010190602001808311610bd057829003601f168201915b505050505081565b60085481565b60006040518060400160405280348152602001428152509050600760003373ffffffffffffffffffffffffffffffffffffffff1673ffffffffffffffffffffffffffffffffffffffff16815260200190815260200160002081908060018154018082558091505060019003906000526020600020906002020160009091909190915060008201518160000155602082015181600101555050610ca83460085461039190919063ffffffff16565b60088190555060096000815480929190610cc19061131d565b91905055503373ffffffffffffffffffffffffffffffffffffffff167f264f630d9efa0d07053a31163641d9fcc0adafc9d9e76f1c37c2ce3a558d2c5234604051610d0c91906111a4565b60405180910390a250565b610d1f610ec0565b73ffffffffffffffffffffffffffffffffffffffff16610d3d610b3e565b73ffffffffffffffffffffffffffffffffffffffff1614610d93576040517f08c379a0000000000000000000000000000000000000000000000000000000008152600401610d8a90611184565b60405180910390fd5b600073ffffffffffffffffffffffffffffffffffffffff168173ffffffffffffffffffffffffffffffffffffffff161415610e03576040517f08c379a0000000000000000000000000000000000000000000000000000000008152600401610dfa90611164565b60405180910390fd5b8073ffffffffffffffffffffffffffffffffffffffff1660008054906101000a900473ffffffffffffffffffffffffffffffffffffffff1673ffffffffffffffffffffffffffffffffffffffff167f8be0079c531659141344cd1fd0a4f28419497f9722a3daafe3b4186f6b6457e060405160405180910390a3806000806101000a81548173ffffffffffffffffffffffffffffffffffffffff021916908373ffffffffffffffffffffffffffffffffffffffff16021790555050565b600033905090565b600081359050610ed7816113d5565b92915050565b600081359050610eec816113ec565b92915050565b600060208284031215610f0457600080fd5b6000610f1284828501610ec8565b91505092915050565b600060208284031215610f2d57600080fd5b6000610f3b84828501610edd565b91505092915050565b6000610f5083836110b7565b60208301905092915050565b610f658161127c565b82525050565b610f748161126a565b82525050565b6000610f85826111cf565b610f8f81856111f2565b9350610f9a836111bf565b8060005b83811015610fcb578151610fb28882610f44565b9750610fbd836111e5565b925050600181019050610f9e565b5085935050505092915050565b6000610fe3826111da565b610fed8185611203565b9350610ffd8185602086016112b8565b611006816113c4565b840191505092915050565b600061101e602683611203565b91507f4f776e61626c653a206e6577206f776e657220697320746865207a65726f206160008301527f64647265737300000000000000000000000000000000000000000000000000006020830152604082019050919050565b6000611084602083611203565b91507f4f776e61626c653a2063616c6c6572206973206e6f7420746865206f776e65726000830152602082019050919050565b6110c0816112ae565b82525050565b6110cf816112ae565b82525050565b60006020820190506110ea6000830184610f6b565b92915050565b60006020820190506111056000830184610f5c565b92915050565b600060408201905081810360008301526111258185610f7a565b905081810360208301526111398184610f7a565b90509392505050565b6000602082019050818103600083015261115c8184610fd8565b905092915050565b6000602082019050818103600083015261117d81611011565b9050919050565b6000602082019050818103600083015261119d81611077565b9050919050565b60006020820190506111b960008301846110c6565b92915050565b6000819050602082019050919050565b600081519050919050565b600081519050919050565b6000602082019050919050565b600082825260208201905092915050565b600082825260208201905092915050565b600061121f826112ae565b915061122a836112ae565b9250827fffffffffffffffffffffffffffffffffffffffffffffffffffffffffffffffff0382111561125f5761125e611366565b5b828201905092915050565b60006112758261128e565b9050919050565b60006112878261128e565b9050919050565b600073ffffffffffffffffffffffffffffffffffffffff82169050919050565b6000819050919050565b60005b838110156112d65780820151818401526020810190506112bb565b838111156112e5576000848401525b50505050565b6000600282049050600182168061130357607f821691505b6020821081141561131757611316611395565b5b50919050565b6000611328826112ae565b91507fffffffffffffffffffffffffffffffffffffffffffffffffffffffffffffffff82141561135b5761135a611366565b5b600182019050919050565b7f4e487b7100000000000000000000000000000000000000000000000000000000600052601160045260246000fd5b7f4e487b7100000000000000000000000000000000000000000000000000000000600052602260045260246000fd5b6000601f19601f8301169050919050565b6113de8161126a565b81146113e957600080fd5b50565b6113f58161127c565b811461140057600080fd5b5056fea26469706673582212200bfee5c84ee6db5a0f3f0801ef27e242ef2671f60dddb45b006a41c6f8e8336064736f6c63430008000033",
  "immutableReferences": {},
  "source": "pragma solidity >0.4.23;\n\nimport \"openzeppelin-solidity/contracts/access/Ownable.sol\";\nimport \"openzeppelin-solidity/contracts/utils/math/SafeMath.sol\";\n\n\ncontract Fundraiser is Ownable {\n    // SafeMath\n    using SafeMath for uint256;\n    // \n    string public name;\n    string public url;\n    string public imageURL;\n    string public description; \n    // \n    address payable public beneficiary;\n    // \n    address public custodian;\n    // \n    struct Donation {\n        uint256 value;\n        uint256 date; \n    }\n    // map\n    mapping (address => Donation[]) private _donations;\n    // \n    uint256 public totalDonations;\n    // \n    uint256 public donationsCount;\n\n    // \n    event DonationReceived (address indexed donor, uint256 value);\n    // \n    event Withdraw(uint256 amount);\n\n    /**\n     * \n     */\n    constructor (string memory _name, string memory _url, string memory _imageURL, string memory _description, address payable _beneficiary, address _custodian) public {\n        name = _name;\n        url = _url;\n        imageURL = _imageURL;\n        description = _description;\n        beneficiary = _beneficiary;\n        transferOwnership(_custodian);\n    }\n\n    /**\n     * \n     */\n    function setBeneficiary (address payable _beneficiary) public onlyOwner {\n        beneficiary = _beneficiary;\n    }\n\n    /**\n     * \n     */\n    function myDonationsCount () public view returns (uint256) {\n        return _donations[msg.sender].length;\n    }\n\n    /**\n     * donate\n     */\n    function donate () public payable {\n        // \n        Donation memory donation = Donation({\n            value: msg.value,\n            date: block.timestamp\n        });\n        // \n        _donations[msg.sender].push(donation);\n        // \n        totalDonations = totalDonations.add(msg.value);\n        // \n        donationsCount++;\n        // \n        emit DonationReceived (msg.sender, msg.value);\n      }\n\n    /**\n     * \n     */\n    function myDonations () public view returns (uint256[] memory values, uint256[] memory dates) {\n        // \n        uint256 count = myDonationsCount();\n        values = new uint256[](count);\n        dates = new uint256[](count);\n        // \n        for (uint256 i = 0; i < count; i++) {\n            Donation storage donation = _donations[msg.sender][i];\n            values[i] = donation.value;\n            dates[i] = donation.date;\n        }\n        return (values, dates);\n    }\n\n    /**\n     * \n     */\n    function withdraw () public onlyOwner {\n        // \n        uint256 balance = address(this).balance;\n        // \n        beneficiary.transfer(balance);\n        // \n        emit Withdraw(balance);\n    }\n\n    /**\n     * \n     */\n    fallback () external payable {\n        // \n        totalDonations = totalDonations.add(msg.value);\n        // \n        donationsCount++;\n    }\n}",
  "sourcePath": "/home/haruki/git/fundraiser-dapp/contracts/Fundraiser.sol",
  "compiler": {
    "name": "solc",
    "version": "0.8.0+commit.c7dfd78e.Emscripten.clang"
  },
  "schemaVersion": "3.4.0",
  "updatedAt": "2021-04-29T09:37:15.256Z",
  "devdoc": {
    "kind": "dev",
    "methods": {
      "owner()": {
        "details": "Returns the address of the current owner."
      },
      "renounceOwnership()": {
        "details": "Leaves the contract without owner. It will not be possible to call `onlyOwner` functions anymore. Can only be called by the current owner. NOTE: Renouncing ownership will leave the contract without an owner, thereby removing any functionality that is only available to the owner."
      },
      "transferOwnership(address)": {
        "details": "Transfers ownership of the contract to a new account (`newOwner`). Can only be called by the current owner."
      }
    },
    "version": 1
  },
  "userdoc": {
    "kind": "user",
    "methods": {
      "constructor": {
        "notice": ""
      },
      "donate()": {
        "notice": "donate"
      },
      "myDonations()": {
        "notice": ""
      },
      "myDonationsCount()": {
        "notice": ""
      },
      "setBeneficiary(address)": {
        "notice": ""
      },
      "withdraw()": {
        "notice": ""
      }
    },
    "version": 1
  }
}