{
  "contractName": "NFT",
  "abi": [
    {
      "inputs": [
        {
          "internalType": "string",
          "name": "name_",
          "type": "string"
        },
        {
          "internalType": "string",
          "name": "symbol_",
          "type": "string"
        },
        {
          "internalType": "string",
          "name": "url_",
          "type": "string"
        }
      ],
      "stateMutability": "nonpayable",
      "type": "constructor"
    },
    {
      "anonymous": false,
      "inputs": [
        {
          "indexed": true,
          "internalType": "address",
          "name": "owner",
          "type": "address"
        },
        {
          "indexed": true,
          "internalType": "address",
          "name": "approved",
          "type": "address"
        },
        {
          "indexed": true,
          "internalType": "uint256",
          "name": "tokenId",
          "type": "uint256"
        }
      ],
      "name": "Approval",
      "type": "event"
    },
    {
      "anonymous": false,
      "inputs": [
        {
          "indexed": true,
          "internalType": "address",
          "name": "owner",
          "type": "address"
        },
        {
          "indexed": true,
          "internalType": "address",
          "name": "operator",
          "type": "address"
        },
        {
          "indexed": false,
          "internalType": "bool",
          "name": "approved",
          "type": "bool"
        }
      ],
      "name": "ApprovalForAll",
      "type": "event"
    },
    {
      "anonymous": false,
      "inputs": [
        {
          "indexed": false,
          "internalType": "address",
          "name": "account",
          "type": "address"
        }
      ],
      "name": "Paused",
      "type": "event"
    },
    {
      "anonymous": false,
      "inputs": [
        {
          "indexed": true,
          "internalType": "bytes32",
          "name": "role",
          "type": "bytes32"
        },
        {
          "indexed": true,
          "internalType": "bytes32",
          "name": "previousAdminRole",
          "type": "bytes32"
        },
        {
          "indexed": true,
          "internalType": "bytes32",
          "name": "newAdminRole",
          "type": "bytes32"
        }
      ],
      "name": "RoleAdminChanged",
      "type": "event"
    },
    {
      "anonymous": false,
      "inputs": [
        {
          "indexed": true,
          "internalType": "bytes32",
          "name": "role",
          "type": "bytes32"
        },
        {
          "indexed": true,
          "internalType": "address",
          "name": "account",
          "type": "address"
        },
        {
          "indexed": true,
          "internalType": "address",
          "name": "sender",
          "type": "address"
        }
      ],
      "name": "RoleGranted",
      "type": "event"
    },
    {
      "anonymous": false,
      "inputs": [
        {
          "indexed": true,
          "internalType": "bytes32",
          "name": "role",
          "type": "bytes32"
        },
        {
          "indexed": true,
          "internalType": "address",
          "name": "account",
          "type": "address"
        },
        {
          "indexed": true,
          "internalType": "address",
          "name": "sender",
          "type": "address"
        }
      ],
      "name": "RoleRevoked",
      "type": "event"
    },
    {
      "anonymous": false,
      "inputs": [
        {
          "indexed": true,
          "internalType": "address",
          "name": "from",
          "type": "address"
        },
        {
          "indexed": true,
          "internalType": "address",
          "name": "to",
          "type": "address"
        },
        {
          "indexed": true,
          "internalType": "uint256",
          "name": "tokenId",
          "type": "uint256"
        }
      ],
      "name": "Transfer",
      "type": "event"
    },
    {
      "anonymous": false,
      "inputs": [
        {
          "indexed": false,
          "internalType": "address",
          "name": "account",
          "type": "address"
        }
      ],
      "name": "Unpaused",
      "type": "event"
    },
    {
      "inputs": [],
      "name": "DEFAULT_ADMIN_ROLE",
      "outputs": [
        {
          "internalType": "bytes32",
          "name": "",
          "type": "bytes32"
        }
      ],
      "stateMutability": "view",
      "type": "function"
    },
    {
      "inputs": [],
      "name": "MINTER_ROLE",
      "outputs": [
        {
          "internalType": "bytes32",
          "name": "",
          "type": "bytes32"
        }
      ],
      "stateMutability": "view",
      "type": "function"
    },
    {
      "inputs": [],
      "name": "PAUSER_ROLE",
      "outputs": [
        {
          "internalType": "bytes32",
          "name": "",
          "type": "bytes32"
        }
      ],
      "stateMutability": "view",
      "type": "function"
    },
    {
      "inputs": [
        {
          "internalType": "uint256",
          "name": "",
          "type": "uint256"
        }
      ],
      "name": "_descriptions",
      "outputs": [
        {
          "internalType": "string",
          "name": "",
          "type": "string"
        }
      ],
      "stateMutability": "view",
      "type": "function"
    },
    {
      "inputs": [
        {
          "internalType": "uint256",
          "name": "",
          "type": "uint256"
        }
      ],
      "name": "_metadatas",
      "outputs": [
        {
          "internalType": "string",
          "name": "",
          "type": "string"
        }
      ],
      "stateMutability": "view",
      "type": "function"
    },
    {
      "inputs": [
        {
          "internalType": "uint256",
          "name": "",
          "type": "uint256"
        }
      ],
      "name": "_names",
      "outputs": [
        {
          "internalType": "string",
          "name": "",
          "type": "string"
        }
      ],
      "stateMutability": "view",
      "type": "function"
    },
    {
      "inputs": [
        {
          "internalType": "uint256",
          "name": "",
          "type": "uint256"
        }
      ],
      "name": "_urls",
      "outputs": [
        {
          "internalType": "string",
          "name": "",
          "type": "string"
        }
      ],
      "stateMutability": "view",
      "type": "function"
    },
    {
      "inputs": [
        {
          "internalType": "address",
          "name": "to",
          "type": "address"
        },
        {
          "internalType": "uint256",
          "name": "tokenId",
          "type": "uint256"
        }
      ],
      "name": "approve",
      "outputs": [],
      "stateMutability": "nonpayable",
      "type": "function"
    },
    {
      "inputs": [
        {
          "internalType": "address",
          "name": "owner",
          "type": "address"
        }
      ],
      "name": "balanceOf",
      "outputs": [
        {
          "internalType": "uint256",
          "name": "",
          "type": "uint256"
        }
      ],
      "stateMutability": "view",
      "type": "function"
    },
    {
      "inputs": [
        {
          "internalType": "uint256",
          "name": "tokenId",
          "type": "uint256"
        }
      ],
      "name": "burn",
      "outputs": [],
      "stateMutability": "nonpayable",
      "type": "function"
    },
    {
      "inputs": [
        {
          "internalType": "uint256",
          "name": "tokenId",
          "type": "uint256"
        }
      ],
      "name": "getApproved",
      "outputs": [
        {
          "internalType": "address",
          "name": "",
          "type": "address"
        }
      ],
      "stateMutability": "view",
      "type": "function"
    },
    {
      "inputs": [
        {
          "internalType": "bytes32",
          "name": "role",
          "type": "bytes32"
        }
      ],
      "name": "getRoleAdmin",
      "outputs": [
        {
          "internalType": "bytes32",
          "name": "",
          "type": "bytes32"
        }
      ],
      "stateMutability": "view",
      "type": "function"
    },
    {
      "inputs": [
        {
          "internalType": "bytes32",
          "name": "role",
          "type": "bytes32"
        },
        {
          "internalType": "uint256",
          "name": "index",
          "type": "uint256"
        }
      ],
      "name": "getRoleMember",
      "outputs": [
        {
          "internalType": "address",
          "name": "",
          "type": "address"
        }
      ],
      "stateMutability": "view",
      "type": "function"
    },
    {
      "inputs": [
        {
          "internalType": "bytes32",
          "name": "role",
          "type": "bytes32"
        }
      ],
      "name": "getRoleMemberCount",
      "outputs": [
        {
          "internalType": "uint256",
          "name": "",
          "type": "uint256"
        }
      ],
      "stateMutability": "view",
      "type": "function"
    },
    {
      "inputs": [
        {
          "internalType": "bytes32",
          "name": "role",
          "type": "bytes32"
        },
        {
          "internalType": "address",
          "name": "account",
          "type": "address"
        }
      ],
      "name": "grantRole",
      "outputs": [],
      "stateMutability": "nonpayable",
      "type": "function"
    },
    {
      "inputs": [
        {
          "internalType": "bytes32",
          "name": "role",
          "type": "bytes32"
        },
        {
          "internalType": "address",
          "name": "account",
          "type": "address"
        }
      ],
      "name": "hasRole",
      "outputs": [
        {
          "internalType": "bool",
          "name": "",
          "type": "bool"
        }
      ],
      "stateMutability": "view",
      "type": "function"
    },
    {
      "inputs": [
        {
          "internalType": "address",
          "name": "owner",
          "type": "address"
        },
        {
          "internalType": "address",
          "name": "operator",
          "type": "address"
        }
      ],
      "name": "isApprovedForAll",
      "outputs": [
        {
          "internalType": "bool",
          "name": "",
          "type": "bool"
        }
      ],
      "stateMutability": "view",
      "type": "function"
    },
    {
      "inputs": [
        {
          "internalType": "address",
          "name": "to",
          "type": "address"
        }
      ],
      "name": "mint",
      "outputs": [],
      "stateMutability": "nonpayable",
      "type": "function"
    },
    {
      "inputs": [],
      "name": "name",
      "outputs": [
        {
          "internalType": "string",
          "name": "",
          "type": "string"
        }
      ],
      "stateMutability": "view",
      "type": "function"
    },
    {
      "inputs": [
        {
          "internalType": "uint256",
          "name": "tokenId",
          "type": "uint256"
        }
      ],
      "name": "ownerOf",
      "outputs": [
        {
          "internalType": "address",
          "name": "",
          "type": "address"
        }
      ],
      "stateMutability": "view",
      "type": "function"
    },
    {
      "inputs": [],
      "name": "pause",
      "outputs": [],
      "stateMutability": "nonpayable",
      "type": "function"
    },
    {
      "inputs": [],
      "name": "paused",
      "outputs": [
        {
          "internalType": "bool",
          "name": "",
          "type": "bool"
        }
      ],
      "stateMutability": "view",
      "type": "function"
    },
    {
      "inputs": [
        {
          "internalType": "bytes32",
          "name": "role",
          "type": "bytes32"
        },
        {
          "internalType": "address",
          "name": "account",
          "type": "address"
        }
      ],
      "name": "renounceRole",
      "outputs": [],
      "stateMutability": "nonpayable",
      "type": "function"
    },
    {
      "inputs": [
        {
          "internalType": "bytes32",
          "name": "role",
          "type": "bytes32"
        },
        {
          "internalType": "address",
          "name": "account",
          "type": "address"
        }
      ],
      "name": "revokeRole",
      "outputs": [],
      "stateMutability": "nonpayable",
      "type": "function"
    },
    {
      "inputs": [
        {
          "internalType": "address",
          "name": "from",
          "type": "address"
        },
        {
          "internalType": "address",
          "name": "to",
          "type": "address"
        },
        {
          "internalType": "uint256",
          "name": "tokenId",
          "type": "uint256"
        }
      ],
      "name": "safeTransferFrom",
      "outputs": [],
      "stateMutability": "nonpayable",
      "type": "function"
    },
    {
      "inputs": [
        {
          "internalType": "address",
          "name": "from",
          "type": "address"
        },
        {
          "internalType": "address",
          "name": "to",
          "type": "address"
        },
        {
          "internalType": "uint256",
          "name": "tokenId",
          "type": "uint256"
        },
        {
          "internalType": "bytes",
          "name": "_data",
          "type": "bytes"
        }
      ],
      "name": "safeTransferFrom",
      "outputs": [],
      "stateMutability": "nonpayable",
      "type": "function"
    },
    {
      "inputs": [
        {
          "internalType": "address",
          "name": "operator",
          "type": "address"
        },
        {
          "internalType": "bool",
          "name": "approved",
          "type": "bool"
        }
      ],
      "name": "setApprovalForAll",
      "outputs": [],
      "stateMutability": "nonpayable",
      "type": "function"
    },
    {
      "inputs": [
        {
          "internalType": "bytes4",
          "name": "interfaceId",
          "type": "bytes4"
        }
      ],
      "name": "supportsInterface",
      "outputs": [
        {
          "internalType": "bool",
          "name": "",
          "type": "bool"
        }
      ],
      "stateMutability": "view",
      "type": "function"
    },
    {
      "inputs": [],
      "name": "symbol",
      "outputs": [
        {
          "internalType": "string",
          "name": "",
          "type": "string"
        }
      ],
      "stateMutability": "view",
      "type": "function"
    },
    {
      "inputs": [
        {
          "internalType": "uint256",
          "name": "index",
          "type": "uint256"
        }
      ],
      "name": "tokenByIndex",
      "outputs": [
        {
          "internalType": "uint256",
          "name": "",
          "type": "uint256"
        }
      ],
      "stateMutability": "view",
      "type": "function"
    },
    {
      "inputs": [
        {
          "internalType": "address",
          "name": "owner",
          "type": "address"
        },
        {
          "internalType": "uint256",
          "name": "index",
          "type": "uint256"
        }
      ],
      "name": "tokenOfOwnerByIndex",
      "outputs": [
        {
          "internalType": "uint256",
          "name": "",
          "type": "uint256"
        }
      ],
      "stateMutability": "view",
      "type": "function"
    },
    {
      "inputs": [
        {
          "internalType": "uint256",
          "name": "tokenId",
          "type": "uint256"
        }
      ],
      "name": "tokenURI",
      "outputs": [
        {
          "internalType": "string",
          "name": "",
          "type": "string"
        }
      ],
      "stateMutability": "view",
      "type": "function"
    },
    {
      "inputs": [],
      "name": "totalSupply",
      "outputs": [
        {
          "internalType": "uint256",
          "name": "",
          "type": "uint256"
        }
      ],
      "stateMutability": "view",
      "type": "function"
    },
    {
      "inputs": [
        {
          "internalType": "address",
          "name": "from",
          "type": "address"
        },
        {
          "internalType": "address",
          "name": "to",
          "type": "address"
        },
        {
          "internalType": "uint256",
          "name": "tokenId",
          "type": "uint256"
        }
      ],
      "name": "transferFrom",
      "outputs": [],
      "stateMutability": "nonpayable",
      "type": "function"
    },
    {
      "inputs": [],
      "name": "unpause",
      "outputs": [],
      "stateMutability": "nonpayable",
      "type": "function"
    },
    {
      "inputs": [],
      "name": "getNftName",
      "outputs": [
        {
          "internalType": "string",
          "name": "",
          "type": "string"
        }
      ],
      "stateMutability": "view",
      "type": "function"
    },
    {
      "inputs": [],
      "name": "getNftSymbol",
      "outputs": [
        {
          "internalType": "string",
          "name": "",
          "type": "string"
        }
      ],
      "stateMutability": "view",
      "type": "function"
    },
    {
      "inputs": [],
      "name": "getNftURL",
      "outputs": [
        {
          "internalType": "string",
          "name": "",
          "type": "string"
        }
      ],
      "stateMutability": "view",
      "type": "function"
    },
    {
      "inputs": [
        {
          "internalType": "address",
          "name": "to",
          "type": "address"
        },
        {
          "internalType": "string",
          "name": "tokenName_",
          "type": "string"
        },
        {
          "internalType": "string",
          "name": "description_",
          "type": "string"
        },
        {
          "internalType": "string",
          "name": "tokenUrl_",
          "type": "string"
        }
      ],
      "name": "mintNft",
      "outputs": [],
      "stateMutability": "payable",
      "type": "function"
    },
    {
      "inputs": [
        {
          "internalType": "uint256",
          "name": "tokenId",
          "type": "uint256"
        }
      ],
      "name": "getMetaData",
      "outputs": [
        {
          "internalType": "string",
          "name": "",
          "type": "string"
        }
      ],
      "stateMutability": "payable",
      "type": "function"
    }
  ],
  "bytecode": "0x60806040523480156200001157600080fd5b506040516200383d3803806200383d83398101604081905262000034916200042e565b8282828282816002908051906020019062000051929190620002dd565b50805162000067906003906020840190620002dd565b5050600c805460ff191690555080516200008990600e906020840190620002dd565b50620000a060006200009a6200014c565b62000150565b620000cf7f9f2df0fed2c77648de5860a4cc508cd0818c85b8b8a1ab4ceeef8d981c8956a66200009a6200014c565b620000fe7f65d7a28e3265b37a6474929f336521b332c1681b933f6cb9f3376673440d862a6200009a6200014c565b50508351620001169150600f906020860190620002dd565b5081516200012c906010906020850190620002dd565b50805162000142906011906020840190620002dd565b505050506200050e565b3390565b6200015c828262000160565b5050565b620001778282620001a360201b6200111e1760201c565b60008281526001602090815260409091206200019e918390620011a36200022d821b17901c565b505050565b620001af82826200024d565b6200015c576000828152602081815260408083206001600160a01b03851684529091529020805460ff19166001179055620001e96200014c565b6001600160a01b0316816001600160a01b0316837f2f8788117e7eff1d82e926ec794901d17c78024a50270940304540a733656f0d60405160405180910390a45050565b600062000244836001600160a01b03841662000276565b90505b92915050565b6000918252602082815260408084206001600160a01b0393909316845291905290205460ff1690565b6000620002848383620002c5565b620002bc5750815460018181018455600084815260208082209093018490558454848252828601909352604090209190915562000247565b50600062000247565b60009081526001919091016020526040902054151590565b828054620002eb90620004bb565b90600052602060002090601f0160209004810192826200030f57600085556200035a565b82601f106200032a57805160ff19168380011785556200035a565b828001600101855582156200035a579182015b828111156200035a5782518255916020019190600101906200033d565b50620003689291506200036c565b5090565b5b808211156200036857600081556001016200036d565b600082601f83011262000394578081fd5b81516001600160401b0380821115620003b157620003b1620004f8565b6040516020601f8401601f1916820181018381118382101715620003d957620003d9620004f8565b6040528382528584018101871015620003f0578485fd5b8492505b83831015620004135785830181015182840182015291820191620003f4565b838311156200042457848185840101525b5095945050505050565b60008060006060848603121562000443578283fd5b83516001600160401b03808211156200045a578485fd5b620004688783880162000383565b945060208601519150808211156200047e578384fd5b6200048c8783880162000383565b93506040860151915080821115620004a2578283fd5b50620004b18682870162000383565b9150509250925092565b600281046001821680620004d057607f821691505b60208210811415620004f257634e487b7160e01b600052602260045260246000fd5b50919050565b634e487b7160e01b600052604160045260246000fd5b61331f806200051e6000396000f3fe60806040526004361061023b5760003560e01c806361eba5521161012e578063b722720d116100ab578063d547741f1161006f578063d547741f14610657578063e63ab1e914610677578063e985e9c51461068c578063f47622f1146106ac578063f7b5c5b6146106cc5761023b565b8063b722720d146105cd578063b88d4fde146105e2578063c87b56dd14610602578063ca15c87314610622578063d5391393146106425761023b565b80639010d07c116100f25780639010d07c1461054357806391d148541461056357806395d89b4114610583578063a217fddf14610598578063a22cb465146105ad5761023b565b806361eba552146104bb5780636352211e146104ce5780636a627842146104ee57806370a082311461050e5780638456cb591461052e5761023b565b80632f745c59116101bc57806342966c681161018057806342966c681461042657806347988115146104465780634f6ccce714610466578063565a1207146104865780635c975abb146104a65761023b565b80632f745c591461039c57806336568abe146103bc5780633bbdbee0146103dc5780633f4ba83a146103f157806342842e0e146104065761023b565b806318160ddd1161020357806318160ddd146102fa57806323b872dd1461031c578063248a9ca31461033c57806325c5aa061461035c5780632f2ff15d1461037c5761023b565b806301ffc9a71461024057806306fdde0314610276578063081812fc14610298578063095ea7b3146102c557806311ece751146102e7575b600080fd5b34801561024c57600080fd5b5061026061025b3660046126ba565b6106e1565b60405161026d91906129d3565b60405180910390f35b34801561028257600080fd5b5061028b6106f4565b60405161026d91906129e7565b3480156102a457600080fd5b506102b86102b336600461265f565b610786565b60405161026d9190612982565b3480156102d157600080fd5b506102e56102e0366004612636565b6107d2565b005b6102e56102f53660046125ad565b61086a565b34801561030657600080fd5b5061030f610945565b60405161026d91906129de565b34801561032857600080fd5b506102e56103373660046124bf565b61094b565b34801561034857600080fd5b5061030f61035736600461265f565b610983565b34801561036857600080fd5b5061028b61037736600461265f565b610998565b34801561038857600080fd5b506102e5610397366004612677565b610a44565b3480156103a857600080fd5b5061030f6103b7366004612636565b610a68565b3480156103c857600080fd5b506102e56103d7366004612677565b610abd565b3480156103e857600080fd5b5061028b610b03565b3480156103fd57600080fd5b506102e5610b12565b34801561041257600080fd5b506102e56104213660046124bf565b610b64565b34801561043257600080fd5b506102e561044136600461265f565b610b7f565b34801561045257600080fd5b5061028b61046136600461265f565b610bb2565b34801561047257600080fd5b5061030f61048136600461265f565b610bc2565b34801561049257600080fd5b5061028b6104a136600461265f565b610c1d565b3480156104b257600080fd5b50610260610c2d565b61028b6104c936600461265f565b610c36565b3480156104da57600080fd5b506102b86104e936600461265f565b610ded565b3480156104fa57600080fd5b506102e5610509366004612473565b610e22565b34801561051a57600080fd5b5061030f610529366004612473565b610e87565b34801561053a57600080fd5b506102e5610ecb565b34801561054f57600080fd5b506102b861055e366004612699565b610f1b565b34801561056f57600080fd5b5061026061057e366004612677565b610f3a565b34801561058f57600080fd5b5061028b610f63565b3480156105a457600080fd5b5061030f610f72565b3480156105b957600080fd5b506102e56105c8366004612573565b610f77565b3480156105d957600080fd5b5061028b610f89565b3480156105ee57600080fd5b506102e56105fd3660046124fa565b610f98565b34801561060e57600080fd5b5061028b61061d36600461265f565b610fd1565b34801561062e57600080fd5b5061030f61063d36600461265f565b611053565b34801561064e57600080fd5b5061030f61106a565b34801561066357600080fd5b506102e5610672366004612677565b61108e565b34801561068357600080fd5b5061030f6110ad565b34801561069857600080fd5b506102606106a736600461248d565b6110d1565b3480156106b857600080fd5b5061028b6106c736600461265f565b6110ff565b3480156106d857600080fd5b5061028b61110f565b60006106ec826111b8565b90505b919050565b606060028054610703906131e7565b80601f016020809104026020016040519081016040528092919081815260200182805461072f906131e7565b801561077c5780601f106107515761010080835404028352916020019161077c565b820191906000526020600020905b81548152906001019060200180831161075f57829003601f168201915b5050505050905090565b6000610791826111dd565b6107b65760405162461bcd60e51b81526004016107ad90612def565b60405180910390fd5b506000908152600660205260409020546001600160a01b031690565b60006107dd82610ded565b9050806001600160a01b0316836001600160a01b031614156108115760405162461bcd60e51b81526004016107ad90612ed3565b806001600160a01b03166108236111fa565b6001600160a01b0316148061083f575061083f816106a76111fa565b61085b5760405162461bcd60e51b81526004016107ad90612cca565b61086583836111fe565b505050565b6012805460018101825560009190915283516108ad917fbb8a6a4669ba250d26cd7a459eca9d215f8307e33aebe50379bc5a3617ec344401906020860190612334565b506013805460018101825560009190915282516108f1917f66de8ffda797e3de9c05e8fc57b3bf0ec28a930d40b0d285d93c06501cf6a09001906020850190612334565b50601480546001810182556000919091528151610935917fce6d7b5282bd9a3661ae061feed1dbda4e52ab073b1f9285be6e155d9c38d4ec01906020840190612334565b5061093f84610e22565b50505050565b600a5490565b61095c6109566111fa565b8261126c565b6109785760405162461bcd60e51b81526004016107ad90612f14565b6108658383836112f1565b60009081526020819052604090206001015490565b601281815481106109a857600080fd5b9060005260206000200160009150905080546109c3906131e7565b80601f01602080910402602001604051908101604052809291908181526020018280546109ef906131e7565b8015610a3c5780601f10610a1157610100808354040283529160200191610a3c565b820191906000526020600020905b815481529060010190602001808311610a1f57829003601f168201915b505050505081565b610a4d82610983565b610a5e81610a596111fa565b61141e565b6108658383611482565b6000610a7383610e87565b8210610a915760405162461bcd60e51b81526004016107ad90612aa8565b506001600160a01b03821660009081526008602090815260408083208484529091529020545b92915050565b610ac56111fa565b6001600160a01b0316816001600160a01b031614610af55760405162461bcd60e51b81526004016107ad906130e7565b610aff82826114a4565b5050565b6060600f8054610703906131e7565b610b3e7f65d7a28e3265b37a6474929f336521b332c1681b933f6cb9f3376673440d862a61057e6111fa565b610b5a5760405162461bcd60e51b81526004016107ad90613089565b610b626114c6565b565b61086583838360405180602001604052806000815250610f98565b610b8a6109566111fa565b610ba65760405162461bcd60e51b81526004016107ad90613039565b610baf81611534565b50565b601481815481106109a857600080fd5b6000610bcc610945565b8210610bea5760405162461bcd60e51b81526004016107ad90612f65565b600a8281548110610c0b57634e487b7160e01b600052603260045260246000fd5b90600052602060002001549050919050565b601581815481106109a857600080fd5b600c5460ff1690565b6060610c41826111dd565b610c5d5760405162461bcd60e51b81526004016107ad9061300e565b600060128381548110610c8057634e487b7160e01b600052603260045260246000fd5b90600052602060002001604051602001610c9a919061281a565b6040516020818303038152906040529050600060138481548110610cce57634e487b7160e01b600052603260045260246000fd5b90600052602060002001604051602001610ce891906127e5565b6040516020818303038152906040529050600060148581548110610d1c57634e487b7160e01b600052603260045260246000fd5b90600052602060002001604051602001610d369190612837565b60405160208183030381529060405290506000838383604051602001610d5e93929190612853565b60405160208183030381529060405290506000610d7a826115db565b604051602001610d8a91906128c8565b60408051601f19818403018152919052601580546001810182556000919091528151919250610de2917f55f448fdea98c4d29eb340757ef0a66cd03dbb9538908a6a81d96026b71ec475909101906020840190612334565b509695505050505050565b6000818152600460205260408120546001600160a01b0316806106ec5760405162461bcd60e51b81526004016107ad90612d71565b610e4e7f9f2df0fed2c77648de5860a4cc508cd0818c85b8b8a1ab4ceeef8d981c8956a661057e6111fa565b610e6a5760405162461bcd60e51b81526004016107ad90612fb1565b610e7d81610e78600d61174f565b611753565b610baf600d611832565b60006001600160a01b038216610eaf5760405162461bcd60e51b81526004016107ad90612d27565b506001600160a01b031660009081526005602052604090205490565b610ef77f65d7a28e3265b37a6474929f336521b332c1681b933f6cb9f3376673440d862a61057e6111fa565b610f135760405162461bcd60e51b81526004016107ad90612b7c565b610b6261183b565b6000828152600160205260408120610f339083611896565b9392505050565b6000918252602082815260408084206001600160a01b0393909316845291905290205460ff1690565b606060038054610703906131e7565b600081565b610aff610f826111fa565b83836118a2565b606060118054610703906131e7565b610fa9610fa36111fa565b8361126c565b610fc55760405162461bcd60e51b81526004016107ad90612f14565b61093f84848484611945565b6060610fdc826111dd565b610ff85760405162461bcd60e51b81526004016107ad90612e84565b6000611002611978565b905060008151116110225760405180602001604052806000815250610f33565b8061102c84611987565b60405160200161103d9291906127b6565b6040516020818303038152906040529392505050565b60008181526001602052604081206106ec90611aa2565b7f9f2df0fed2c77648de5860a4cc508cd0818c85b8b8a1ab4ceeef8d981c8956a681565b61109782610983565b6110a381610a596111fa565b61086583836114a4565b7f65d7a28e3265b37a6474929f336521b332c1681b933f6cb9f3376673440d862a81565b6001600160a01b03918216600090815260076020908152604080832093909416825291909152205460ff1690565b601381815481106109a857600080fd5b606060108054610703906131e7565b6111288282610f3a565b610aff576000828152602081815260408083206001600160a01b03851684529091529020805460ff1916600117905561115f6111fa565b6001600160a01b0316816001600160a01b0316837f2f8788117e7eff1d82e926ec794901d17c78024a50270940304540a733656f0d60405160405180910390a45050565b6000610f33836001600160a01b038416611aad565b60006001600160e01b0319821663780e9d6360e01b14806106ec57506106ec82611af7565b6000908152600460205260409020546001600160a01b0316151590565b3390565b600081815260066020526040902080546001600160a01b0319166001600160a01b038416908117909155819061123382610ded565b6001600160a01b03167f8c5be1e5ebec7d5bd14f71427d1e84f3dd0314c0f7b2291e5b200ac8c7c3b92560405160405180910390a45050565b6000611277826111dd565b6112935760405162461bcd60e51b81526004016107ad90612c54565b600061129e83610ded565b9050806001600160a01b0316846001600160a01b031614806112d95750836001600160a01b03166112ce84610786565b6001600160a01b0316145b806112e957506112e981856110d1565b949350505050565b826001600160a01b031661130482610ded565b6001600160a01b03161461132a5760405162461bcd60e51b81526004016107ad90612e3b565b6001600160a01b0382166113505760405162461bcd60e51b81526004016107ad90612bd9565b61135b838383611b37565b6113666000826111fe565b6001600160a01b038316600090815260056020526040812080546001929061138f90849061318d565b90915550506001600160a01b03821660009081526005602052604081208054600192906113bd908490613142565b909155505060008181526004602052604080822080546001600160a01b0319166001600160a01b0386811691821790925591518493918716917fddf252ad1be2c89b69c2b068fc378daa952ba7f163c4a11628f55a4df523b3ef91a4505050565b6114288282610f3a565b610aff57611440816001600160a01b03166014611b42565b61144b836020611b42565b60405160200161145c92919061290d565b60408051601f198184030181529082905262461bcd60e51b82526107ad916004016129e7565b61148c828261111e565b600082815260016020526040902061086590826111a3565b6114ae8282611cf4565b60008281526001602052604090206108659082611d77565b6114ce610c2d565b6114ea5760405162461bcd60e51b81526004016107ad90612a7a565b600c805460ff191690557f5db9ee0a495bf2e6ff9c91a7834c1ba4fdd244a5e8aa4e537bd38aeae4b073aa61151d6111fa565b60405161152a9190612982565b60405180910390a1565b600061153f82610ded565b905061154d81600084611b37565b6115586000836111fe565b6001600160a01b038116600090815260056020526040812080546001929061158190849061318d565b909155505060008281526004602052604080822080546001600160a01b0319169055518391906001600160a01b038416907fddf252ad1be2c89b69c2b068fc378daa952ba7f163c4a11628f55a4df523b3ef908390a45050565b8051606090806115fb5750506040805160208101909152600081526106ef565b6000600361160a836002613142565b611614919061315a565b61161f90600461316e565b9050600061162e826020613142565b67ffffffffffffffff81111561165457634e487b7160e01b600052604160045260246000fd5b6040519080825280601f01601f19166020018201604052801561167e576020820181803683370190505b50905060006040518060600160405280604081526020016132aa604091399050600181016020830160005b8681101561170a576003818a01810151603f601282901c8116860151600c83901c8216870151600684901c831688015192909316870151600891821b60ff94851601821b92841692909201901b91160160e01b8352600490920191016116a9565b506003860660018114611724576002811461173557611741565b613d3d60f01b600119830152611741565b603d60f81b6000198301525b505050918152949350505050565b5490565b6001600160a01b0382166117795760405162461bcd60e51b81526004016107ad90612dba565b611782816111dd565b1561179f5760405162461bcd60e51b81526004016107ad90612b45565b6117ab60008383611b37565b6001600160a01b03821660009081526005602052604081208054600192906117d4908490613142565b909155505060008181526004602052604080822080546001600160a01b0319166001600160a01b03861690811790915590518392907fddf252ad1be2c89b69c2b068fc378daa952ba7f163c4a11628f55a4df523b3ef908290a45050565b80546001019055565b611843610c2d565b156118605760405162461bcd60e51b81526004016107ad90612ca0565b600c805460ff191660011790557f62e78cea01bee320cd4e420270b5ea74000d11b0c9f74754ebdbfc544b05a25861151d6111fa565b6000610f338383611d8c565b816001600160a01b0316836001600160a01b031614156118d45760405162461bcd60e51b81526004016107ad90612c1d565b6001600160a01b0383811660008181526007602090815260408083209487168084529490915290819020805460ff1916851515179055517f17307eab39ab6107e8899845ad3d59bd9653f200f220920489ca2b5937696c31906119389085906129d3565b60405180910390a3505050565b6119508484846112f1565b61195c84848484611dc4565b61093f5760405162461bcd60e51b81526004016107ad90612af3565b6060600e8054610703906131e7565b6060816119ac57506040805180820190915260018152600360fc1b60208201526106ef565b8160005b81156119d657806119c081613222565b91506119cf9050600a8361315a565b91506119b0565b60008167ffffffffffffffff8111156119ff57634e487b7160e01b600052604160045260246000fd5b6040519080825280601f01601f191660200182016040528015611a29576020820181803683370190505b5090505b84156112e957611a3e60018361318d565b9150611a4b600a8661323d565b611a56906030613142565b60f81b818381518110611a7957634e487b7160e01b600052603260045260246000fd5b60200101906001600160f81b031916908160001a905350611a9b600a8661315a565b9450611a2d565b60006106ec8261174f565b6000611ab98383611edf565b611aef57508154600181810184556000848152602080822090930184905584548482528286019093526040902091909155610ab7565b506000610ab7565b60006001600160e01b031982166380ac58cd60e01b1480611b2857506001600160e01b03198216635b5e139f60e01b145b806106ec57506106ec82611ef7565b610865838383611f1c565b60606000611b5183600261316e565b611b5c906002613142565b67ffffffffffffffff811115611b8257634e487b7160e01b600052604160045260246000fd5b6040519080825280601f01601f191660200182016040528015611bac576020820181803683370190505b509050600360fc1b81600081518110611bd557634e487b7160e01b600052603260045260246000fd5b60200101906001600160f81b031916908160001a905350600f60fb1b81600181518110611c1257634e487b7160e01b600052603260045260246000fd5b60200101906001600160f81b031916908160001a9053506000611c3684600261316e565b611c41906001613142565b90505b6001811115611cd5576f181899199a1a9b1b9c1cb0b131b232b360811b85600f1660108110611c8357634e487b7160e01b600052603260045260246000fd5b1a60f81b828281518110611ca757634e487b7160e01b600052603260045260246000fd5b60200101906001600160f81b031916908160001a90535060049490941c93611cce816131d0565b9050611c44565b508315610f335760405162461bcd60e51b81526004016107ad906129fa565b611cfe8282610f3a565b15610aff576000828152602081815260408083206001600160a01b03851684529091529020805460ff19169055611d336111fa565b6001600160a01b0316816001600160a01b0316837ff6391f5c32d9c69d2a47ea670b442974b53935d1edc7fd64eb21e047a839171b60405160405180910390a45050565b6000610f33836001600160a01b038416611f4c565b6000826000018281548110611db157634e487b7160e01b600052603260045260246000fd5b9060005260206000200154905092915050565b6000611dd8846001600160a01b0316612069565b15611ed457836001600160a01b031663150b7a02611df46111fa565b8786866040518563ffffffff1660e01b8152600401611e169493929190612996565b602060405180830381600087803b158015611e3057600080fd5b505af1925050508015611e60575060408051601f3d908101601f19168201909252611e5d918101906126d6565b60015b611eba573d808015611e8e576040519150601f19603f3d011682016040523d82523d6000602084013e611e93565b606091505b508051611eb25760405162461bcd60e51b81526004016107ad90612af3565b805181602001fd5b6001600160e01b031916630a85bd0160e11b1490506112e9565b506001949350505050565b60009081526001919091016020526040902054151590565b60006001600160e01b03198216635a05180f60e01b14806106ec57506106ec8261206f565b611f27838383612094565b611f2f610c2d565b156108655760405162461bcd60e51b81526004016107ad90612a2f565b6000818152600183016020526040812054801561205f576000611f7060018361318d565b8554909150600090611f849060019061318d565b9050818114612005576000866000018281548110611fb257634e487b7160e01b600052603260045260246000fd5b9060005260206000200154905080876000018481548110611fe357634e487b7160e01b600052603260045260246000fd5b6000918252602080832090910192909255918252600188019052604090208390555b855486908061202457634e487b7160e01b600052603160045260246000fd5b600190038181906000526020600020016000905590558560010160008681526020019081526020016000206000905560019350505050610ab7565b6000915050610ab7565b3b151590565b60006001600160e01b03198216637965db0b60e01b14806106ec57506106ec8261211d565b61209f838383610865565b6001600160a01b0383166120bb576120b681612136565b6120de565b816001600160a01b0316836001600160a01b0316146120de576120de838261217a565b6001600160a01b0382166120fa576120f581612217565b610865565b826001600160a01b0316826001600160a01b0316146108655761086582826122f0565b6001600160e01b031981166301ffc9a760e01b14919050565b600a80546000838152600b60205260408120829055600182018355919091527fc65a7bb8d6351c1cf70c95a316cc6a92839c986682d98bc35f958f4883f9d2a80155565b6000600161218784610e87565b612191919061318d565b6000838152600960205260409020549091508082146121e4576001600160a01b03841660009081526008602090815260408083208584528252808320548484528184208190558352600990915290208190555b5060009182526009602090815260408084208490556001600160a01b039094168352600881528383209183525290812055565b600a546000906122299060019061318d565b6000838152600b6020526040812054600a805493945090928490811061225f57634e487b7160e01b600052603260045260246000fd5b9060005260206000200154905080600a838154811061228e57634e487b7160e01b600052603260045260246000fd5b6000918252602080832090910192909255828152600b9091526040808220849055858252812055600a8054806122d457634e487b7160e01b600052603160045260246000fd5b6001900381819060005260206000200160009055905550505050565b60006122fb83610e87565b6001600160a01b039093166000908152600860209081526040808320868452825280832085905593825260099052919091209190915550565b828054612340906131e7565b90600052602060002090601f01602090048101928261236257600085556123a8565b82601f1061237b57805160ff19168380011785556123a8565b828001600101855582156123a8579182015b828111156123a857825182559160200191906001019061238d565b506123b49291506123b8565b5090565b5b808211156123b457600081556001016123b9565b600067ffffffffffffffff808411156123e8576123e861327d565b604051601f8501601f19168101602001828111828210171561240c5761240c61327d565b60405284815291508183850186101561242457600080fd5b8484602083013760006020868301015250509392505050565b80356001600160a01b03811681146106ef57600080fd5b600082601f830112612464578081fd5b610f33838335602085016123cd565b600060208284031215612484578081fd5b610f338261243d565b6000806040838503121561249f578081fd5b6124a88361243d565b91506124b66020840161243d565b90509250929050565b6000806000606084860312156124d3578081fd5b6124dc8461243d565b92506124ea6020850161243d565b9150604084013590509250925092565b6000806000806080858703121561250f578081fd5b6125188561243d565b93506125266020860161243d565b925060408501359150606085013567ffffffffffffffff811115612548578182fd5b8501601f81018713612558578182fd5b612567878235602084016123cd565b91505092959194509250565b60008060408385031215612585578182fd5b61258e8361243d565b9150602083013580151581146125a2578182fd5b809150509250929050565b600080600080608085870312156125c2578384fd5b6125cb8561243d565b9350602085013567ffffffffffffffff808211156125e7578485fd5b6125f388838901612454565b94506040870135915080821115612608578384fd5b61261488838901612454565b93506060870135915080821115612629578283fd5b5061256787828801612454565b60008060408385031215612648578182fd5b6126518361243d565b946020939093013593505050565b600060208284031215612670578081fd5b5035919050565b60008060408385031215612689578182fd5b823591506124b66020840161243d565b600080604083850312156126ab578182fd5b50508035926020909101359150565b6000602082840312156126cb578081fd5b8135610f3381613293565b6000602082840312156126e7578081fd5b8151610f3381613293565b6000815180845261270a8160208601602086016131a4565b601f01601f19169290920160200192915050565b80546000906002810460018083168061273857607f831692505b602080841082141561275857634e487b7160e01b86526022600452602486fd5b81801561276c576001811461277d576127aa565b60ff198616895284890196506127aa565b61278688613136565b60005b868110156127a25781548b820152908501908301612789565b505084890196505b50505050505092915050565b600083516127c88184602088016131a4565b8351908301906127dc8183602088016131a4565b01949350505050565b6e113232b9b1b934b83a34b7b7111d1160891b81526000612809600f83018461271e565b601160f91b81526001019392505050565b67113730b6b2911d1160c11b81526000612809600883018461271e565b66112aa926111d1160c91b81526000612809600783018461271e565b6000607b60f81b8252845161286f8160018501602089016131a4565b8083019050600b60fa1b8060018301528551612892816002850160208a016131a4565b600292019182015283516128ad8160038401602088016131a4565b607d60f81b6003929091019182015260040195945050505050565b60007f646174613a6170706c69636174696f6e2f6a736f6e3b6261736536342c0000008252825161290081601d8501602087016131a4565b91909101601d0192915050565b60007f416363657373436f6e74726f6c3a206163636f756e7420000000000000000000825283516129458160178501602088016131a4565b7001034b99036b4b9b9b4b733903937b6329607d1b60179184019182015283516129768160288401602088016131a4565b01602801949350505050565b6001600160a01b0391909116815260200190565b6001600160a01b03858116825284166020820152604081018390526080606082018190526000906129c9908301846126f2565b9695505050505050565b901515815260200190565b90815260200190565b600060208252610f3360208301846126f2565b6020808252818101527f537472696e67733a20686578206c656e67746820696e73756666696369656e74604082015260600190565b6020808252602b908201527f4552433732315061757361626c653a20746f6b656e207472616e73666572207760408201526a1a1a5b19481c185d5cd95960aa1b606082015260800190565b60208082526014908201527314185d5cd8589b194e881b9bdd081c185d5cd95960621b604082015260600190565b6020808252602b908201527f455243373231456e756d657261626c653a206f776e657220696e646578206f7560408201526a74206f6620626f756e647360a81b606082015260800190565b60208082526032908201527f4552433732313a207472616e7366657220746f206e6f6e20455243373231526560408201527131b2b4bb32b91034b6b83632b6b2b73a32b960711b606082015260800190565b6020808252601c908201527f4552433732313a20746f6b656e20616c7265616479206d696e74656400000000604082015260600190565b6020808252603e908201527f4552433732315072657365744d696e7465725061757365724175746f49643a2060408201527f6d75737420686176652070617573657220726f6c6520746f2070617573650000606082015260800190565b60208082526024908201527f4552433732313a207472616e7366657220746f20746865207a65726f206164646040820152637265737360e01b606082015260800190565b60208082526019908201527f4552433732313a20617070726f766520746f2063616c6c657200000000000000604082015260600190565b6020808252602c908201527f4552433732313a206f70657261746f7220717565727920666f72206e6f6e657860408201526b34b9ba32b73a103a37b5b2b760a11b606082015260800190565b60208082526010908201526f14185d5cd8589b194e881c185d5cd95960821b604082015260600190565b60208082526038908201527f4552433732313a20617070726f76652063616c6c6572206973206e6f74206f7760408201527f6e6572206e6f7220617070726f76656420666f7220616c6c0000000000000000606082015260800190565b6020808252602a908201527f4552433732313a2062616c616e636520717565727920666f7220746865207a65604082015269726f206164647265737360b01b606082015260800190565b60208082526029908201527f4552433732313a206f776e657220717565727920666f72206e6f6e657869737460408201526832b73a103a37b5b2b760b91b606082015260800190565b6020808252818101527f4552433732313a206d696e7420746f20746865207a65726f2061646472657373604082015260600190565b6020808252602c908201527f4552433732313a20617070726f76656420717565727920666f72206e6f6e657860408201526b34b9ba32b73a103a37b5b2b760a11b606082015260800190565b60208082526029908201527f4552433732313a207472616e73666572206f6620746f6b656e2074686174206960408201526839903737ba1037bbb760b91b606082015260800190565b6020808252602f908201527f4552433732314d657461646174613a2055524920717565727920666f72206e6f60408201526e3732bc34b9ba32b73a103a37b5b2b760891b606082015260800190565b60208082526021908201527f4552433732313a20617070726f76616c20746f2063757272656e74206f776e656040820152603960f91b606082015260800190565b60208082526031908201527f4552433732313a207472616e736665722063616c6c6572206973206e6f74206f6040820152701ddb995c881b9bdc88185c1c1c9bdd9959607a1b606082015260800190565b6020808252602c908201527f455243373231456e756d657261626c653a20676c6f62616c20696e646578206f60408201526b7574206f6620626f756e647360a01b606082015260800190565b6020808252603d908201527f4552433732315072657365744d696e7465725061757365724175746f49643a2060408201527f6d7573742068617665206d696e74657220726f6c6520746f206d696e74000000606082015260800190565b6020808252601190820152703737b732bc39b4ba32b73a103a37b5b2b760791b604082015260600190565b60208082526030908201527f4552433732314275726e61626c653a2063616c6c6572206973206e6f74206f7760408201526f1b995c881b9bdc88185c1c1c9bdd995960821b606082015260800190565b602080825260409082018190527f4552433732315072657365744d696e7465725061757365724175746f49643a20908201527f6d75737420686176652070617573657220726f6c6520746f20756e7061757365606082015260800190565b6020808252602f908201527f416363657373436f6e74726f6c3a2063616e206f6e6c792072656e6f756e636560408201526e103937b632b9903337b91039b2b63360891b606082015260800190565b60009081526020902090565b6000821982111561315557613155613251565b500190565b60008261316957613169613267565b500490565b600081600019048311821515161561318857613188613251565b500290565b60008282101561319f5761319f613251565b500390565b60005b838110156131bf5781810151838201526020016131a7565b8381111561093f5750506000910152565b6000816131df576131df613251565b506000190190565b6002810460018216806131fb57607f821691505b6020821081141561321c57634e487b7160e01b600052602260045260246000fd5b50919050565b600060001982141561323657613236613251565b5060010190565b60008261324c5761324c613267565b500690565b634e487b7160e01b600052601160045260246000fd5b634e487b7160e01b600052601260045260246000fd5b634e487b7160e01b600052604160045260246000fd5b6001600160e01b031981168114610baf57600080fdfe4142434445464748494a4b4c4d4e4f505152535455565758595a6162636465666768696a6b6c6d6e6f707172737475767778797a303132333435363738392b2fa26469706673582212204650da67e83c7181a4a90afbcedc2192702fc45cadb9473e8d37cda25994321964736f6c63430008000033",
  "immutableReferences": {},
  "source": "/**\n * NFT\n */\n\npragma solidity >0.4.23;\n\n// \nimport \"@openzeppelin/contracts/token/ERC721/presets/ERC721PresetMinterPauserAutoId.sol\";\nimport \"./common/Base64.sol\";\n\n/**\n * NFT\n * (ERC721PresetMinterPauserAutoId)\n */\ncontract NFT is ERC721PresetMinterPauserAutoId {\n\n    // NFT\n    string nftName;\n    // \n    string nftSymbol;\n    // URL\n    string nftUrl;\n\n    // NFTID\n    // URL\n    string[] public _names;\n    string[] public _descriptions;\n    string[] public _urls;\n    string[] public _metadatas;\n\n    /**\n     *  \n     */\n    constructor(string memory name_, string memory symbol_, string memory url_) ERC721PresetMinterPauserAutoId(name_, symbol_, url_) {\n        // \n        nftName = name_;\n        nftSymbol = symbol_;\n        nftUrl = url_;\n    }\n\n    /**\n     * NFT\n     */\n    function getNftName() view public returns (string memory) {\n        return nftName;\n    }\n\n    /**\n     * \n     */\n    function getNftSymbol() view public returns (string memory) {\n        return nftSymbol;\n    }\n\n    /**\n     * NFTURL\n     */\n    function getNftURL() view public returns (string memory) { \n        return nftUrl;\n    }\n    \n    /**\n     * NFT\n     * @param to \n     * @param tokenName_ ID\n     * @param description_ \n     * @param tokenUrl_ IDURL\n     */\n    function mintNft(address to, string memory tokenName_, string memory description_, string memory tokenUrl_) public payable {\n        // URL\n        _names.push(tokenName_);\n        _descriptions.push(description_ );\n        _urls.push(tokenUrl_ );\n        // mint\n        mint(to);\n    }\n\n    /**\n     * ID\n     * @param tokenId ID\n     * @return bytesMetadata JSON\n     */\n    function getMetaData(uint256 tokenId) public payable returns (string memory) {\n        require( _exists( tokenId ), \"nonexsitent token\" );\n\n        // ID\n        // \n        bytes memory bytesName = abi.encodePacked('\"name\":\"', _names[tokenId], '\"');\n        // \n        bytes memory bytesDesc = abi.encodePacked('\"description\":\"', _descriptions[tokenId], '\"');\n        // URL\n        bytes memory bytesUrl = abi.encodePacked('\"URL\":\"', _urls[tokenId], '\"');\n        // \n        bytes memory bytesObject = abi.encodePacked(\n            '{',\n                bytesName, ',',\n                bytesDesc, ',',\n                bytesUrl,\n            '}'\n        );\n        // jsonBase64\n        bytes memory bytesMetadata = abi.encodePacked('data:application/json;base64,', Base64.encode( bytesObject ));\n        _metadatas.push(string( bytesMetadata ));\n        return (string( bytesMetadata ));\n    }\n}",
  "sourcePath": "/Users/harukikondo/git/fundraiser-dapp/contracts/NFT.sol",
  "compiler": {
    "name": "solc",
    "version": "0.8.0+commit.c7dfd78e.Emscripten.clang"
  },
  "schemaVersion": "3.4.4",
  "updatedAt": "2022-08-27T03:43:57.048Z",
  "devdoc": {
    "kind": "dev",
    "methods": {
      "approve(address,uint256)": {
        "details": "See {IERC721-approve}."
      },
      "balanceOf(address)": {
        "details": "See {IERC721-balanceOf}."
      },
      "burn(uint256)": {
        "details": "Burns `tokenId`. See {ERC721-_burn}. Requirements: - The caller must own `tokenId` or be an approved operator."
      },
      "getApproved(uint256)": {
        "details": "See {IERC721-getApproved}."
      },
      "getMetaData(uint256)": {
        "params": {
          "tokenId": "ID"
        },
        "returns": {
          "_0": "bytesMetadata JSON"
        }
      },
      "getRoleAdmin(bytes32)": {
        "details": "Returns the admin role that controls `role`. See {grantRole} and {revokeRole}. To change a role's admin, use {_setRoleAdmin}."
      },
      "getRoleMember(bytes32,uint256)": {
        "details": "Returns one of the accounts that have `role`. `index` must be a value between 0 and {getRoleMemberCount}, non-inclusive. Role bearers are not sorted in any particular way, and their ordering may change at any point. WARNING: When using {getRoleMember} and {getRoleMemberCount}, make sure you perform all queries on the same block. See the following https://forum.openzeppelin.com/t/iterating-over-elements-on-enumerableset-in-openzeppelin-contracts/2296[forum post] for more information."
      },
      "getRoleMemberCount(bytes32)": {
        "details": "Returns the number of accounts that have `role`. Can be used together with {getRoleMember} to enumerate all bearers of a role."
      },
      "grantRole(bytes32,address)": {
        "details": "Grants `role` to `account`. If `account` had not been already granted `role`, emits a {RoleGranted} event. Requirements: - the caller must have ``role``'s admin role."
      },
      "hasRole(bytes32,address)": {
        "details": "Returns `true` if `account` has been granted `role`."
      },
      "isApprovedForAll(address,address)": {
        "details": "See {IERC721-isApprovedForAll}."
      },
      "mint(address)": {
        "details": "Creates a new token for `to`. Its token ID will be automatically assigned (and available on the emitted {IERC721-Transfer} event), and the token URI autogenerated based on the base URI passed at construction. See {ERC721-_mint}. Requirements: - the caller must have the `MINTER_ROLE`."
      },
      "mintNft(address,string,string,string)": {
        "params": {
          "description_": "",
          "to": "",
          "tokenName_": "ID",
          "tokenUrl_": "IDURL"
        }
      },
      "name()": {
        "details": "See {IERC721Metadata-name}."
      },
      "ownerOf(uint256)": {
        "details": "See {IERC721-ownerOf}."
      },
      "pause()": {
        "details": "Pauses all token transfers. See {ERC721Pausable} and {Pausable-_pause}. Requirements: - the caller must have the `PAUSER_ROLE`."
      },
      "paused()": {
        "details": "Returns true if the contract is paused, and false otherwise."
      },
      "renounceRole(bytes32,address)": {
        "details": "Revokes `role` from the calling account. Roles are often managed via {grantRole} and {revokeRole}: this function's purpose is to provide a mechanism for accounts to lose their privileges if they are compromised (such as when a trusted device is misplaced). If the calling account had been revoked `role`, emits a {RoleRevoked} event. Requirements: - the caller must be `account`."
      },
      "revokeRole(bytes32,address)": {
        "details": "Revokes `role` from `account`. If `account` had been granted `role`, emits a {RoleRevoked} event. Requirements: - the caller must have ``role``'s admin role."
      },
      "safeTransferFrom(address,address,uint256)": {
        "details": "See {IERC721-safeTransferFrom}."
      },
      "safeTransferFrom(address,address,uint256,bytes)": {
        "details": "See {IERC721-safeTransferFrom}."
      },
      "setApprovalForAll(address,bool)": {
        "details": "See {IERC721-setApprovalForAll}."
      },
      "supportsInterface(bytes4)": {
        "details": "See {IERC165-supportsInterface}."
      },
      "symbol()": {
        "details": "See {IERC721Metadata-symbol}."
      },
      "tokenByIndex(uint256)": {
        "details": "See {IERC721Enumerable-tokenByIndex}."
      },
      "tokenOfOwnerByIndex(address,uint256)": {
        "details": "See {IERC721Enumerable-tokenOfOwnerByIndex}."
      },
      "tokenURI(uint256)": {
        "details": "See {IERC721Metadata-tokenURI}."
      },
      "totalSupply()": {
        "details": "See {IERC721Enumerable-totalSupply}."
      },
      "transferFrom(address,address,uint256)": {
        "details": "See {IERC721-transferFrom}."
      },
      "unpause()": {
        "details": "Unpauses all token transfers. See {ERC721Pausable} and {Pausable-_unpause}. Requirements: - the caller must have the `PAUSER_ROLE`."
      }
    },
    "version": 1
  },
  "userdoc": {
    "kind": "user",
    "methods": {
      "constructor": {
        "notice": " "
      },
      "getMetaData(uint256)": {
        "notice": "ID"
      },
      "getNftName()": {
        "notice": "NFT"
      },
      "getNftSymbol()": {
        "notice": ""
      },
      "getNftURL()": {
        "notice": "NFTURL"
      },
      "mintNft(address,string,string,string)": {
        "notice": "NFT"
      }
    },
    "notice": "NFT (ERC721PresetMinterPauserAutoId)",
    "version": 1
  }
}