{
  "contractName": "Fundraiser",
  "abi": [
    {
      "inputs": [
        {
          "internalType": "string",
          "name": "_name",
          "type": "string"
        },
        {
          "internalType": "string",
          "name": "_url",
          "type": "string"
        },
        {
          "internalType": "string",
          "name": "_imageURL",
          "type": "string"
        },
        {
          "internalType": "string",
          "name": "_description",
          "type": "string"
        },
        {
          "internalType": "address payable",
          "name": "_beneficiary",
          "type": "address"
        },
        {
          "internalType": "address",
          "name": "_custodian",
          "type": "address"
        }
      ],
      "stateMutability": "nonpayable",
      "type": "constructor"
    },
    {
      "anonymous": false,
      "inputs": [
        {
          "indexed": true,
          "internalType": "address",
          "name": "donor",
          "type": "address"
        },
        {
          "indexed": false,
          "internalType": "uint256",
          "name": "value",
          "type": "uint256"
        }
      ],
      "name": "DonationReceived",
      "type": "event"
    },
    {
      "anonymous": false,
      "inputs": [
        {
          "indexed": true,
          "internalType": "address",
          "name": "previousOwner",
          "type": "address"
        },
        {
          "indexed": true,
          "internalType": "address",
          "name": "newOwner",
          "type": "address"
        }
      ],
      "name": "OwnershipTransferred",
      "type": "event"
    },
    {
      "anonymous": false,
      "inputs": [
        {
          "indexed": false,
          "internalType": "uint256",
          "name": "amount",
          "type": "uint256"
        }
      ],
      "name": "Withdraw",
      "type": "event"
    },
    {
      "stateMutability": "payable",
      "type": "fallback"
    },
    {
      "inputs": [],
      "name": "beneficiary",
      "outputs": [
        {
          "internalType": "address payable",
          "name": "",
          "type": "address"
        }
      ],
      "stateMutability": "view",
      "type": "function"
    },
    {
      "inputs": [],
      "name": "custodian",
      "outputs": [
        {
          "internalType": "address",
          "name": "",
          "type": "address"
        }
      ],
      "stateMutability": "view",
      "type": "function"
    },
    {
      "inputs": [],
      "name": "description",
      "outputs": [
        {
          "internalType": "string",
          "name": "",
          "type": "string"
        }
      ],
      "stateMutability": "view",
      "type": "function"
    },
    {
      "inputs": [],
      "name": "donationsCount",
      "outputs": [
        {
          "internalType": "uint256",
          "name": "",
          "type": "uint256"
        }
      ],
      "stateMutability": "view",
      "type": "function"
    },
    {
      "inputs": [],
      "name": "imageURL",
      "outputs": [
        {
          "internalType": "string",
          "name": "",
          "type": "string"
        }
      ],
      "stateMutability": "view",
      "type": "function"
    },
    {
      "inputs": [],
      "name": "name",
      "outputs": [
        {
          "internalType": "string",
          "name": "",
          "type": "string"
        }
      ],
      "stateMutability": "view",
      "type": "function"
    },
    {
      "inputs": [],
      "name": "owner",
      "outputs": [
        {
          "internalType": "address",
          "name": "",
          "type": "address"
        }
      ],
      "stateMutability": "view",
      "type": "function"
    },
    {
      "inputs": [],
      "name": "renounceOwnership",
      "outputs": [],
      "stateMutability": "nonpayable",
      "type": "function"
    },
    {
      "inputs": [],
      "name": "totalDonations",
      "outputs": [
        {
          "internalType": "uint256",
          "name": "",
          "type": "uint256"
        }
      ],
      "stateMutability": "view",
      "type": "function"
    },
    {
      "inputs": [
        {
          "internalType": "address",
          "name": "newOwner",
          "type": "address"
        }
      ],
      "name": "transferOwnership",
      "outputs": [],
      "stateMutability": "nonpayable",
      "type": "function"
    },
    {
      "inputs": [],
      "name": "url",
      "outputs": [
        {
          "internalType": "string",
          "name": "",
          "type": "string"
        }
      ],
      "stateMutability": "view",
      "type": "function"
    },
    {
      "inputs": [
        {
          "internalType": "address payable",
          "name": "_beneficiary",
          "type": "address"
        }
      ],
      "name": "setBeneficiary",
      "outputs": [],
      "stateMutability": "nonpayable",
      "type": "function"
    },
    {
      "inputs": [],
      "name": "myDonationsCount",
      "outputs": [
        {
          "internalType": "uint256",
          "name": "",
          "type": "uint256"
        }
      ],
      "stateMutability": "view",
      "type": "function"
    },
    {
      "inputs": [],
      "name": "donate",
      "outputs": [],
      "stateMutability": "payable",
      "type": "function"
    },
    {
      "inputs": [],
      "name": "myDonations",
      "outputs": [
        {
          "internalType": "uint256[]",
          "name": "values",
          "type": "uint256[]"
        },
        {
          "internalType": "uint256[]",
          "name": "dates",
          "type": "uint256[]"
        }
      ],
      "stateMutability": "view",
      "type": "function"
    },
    {
      "inputs": [],
      "name": "withdraw",
      "outputs": [],
      "stateMutability": "nonpayable",
      "type": "function"
    }
  ],
  "bytecode": "0x60806040523480156200001157600080fd5b5060405162000f6238038062000f62833981016040819052620000349162000329565b6200004862000042620000d2565b620000d6565b85516200005d906001906020890190620001bb565b50845162000073906002906020880190620001bb565b50835162000089906003906020870190620001bb565b5082516200009f906004906020860190620001bb565b50600580546001600160a01b0319166001600160a01b038416179055620000c68162000126565b505050505050620004cf565b3390565b600080546001600160a01b038381166001600160a01b0319831681178455604051919092169283917f8be0079c531659141344cd1fd0a4f28419497f9722a3daafe3b4186f6b6457e09190a35050565b62000130620000d2565b6001600160a01b031662000143620001ac565b6001600160a01b031614620001755760405162461bcd60e51b81526004016200016c9062000447565b60405180910390fd5b6001600160a01b0381166200019e5760405162461bcd60e51b81526004016200016c9062000401565b620001a981620000d6565b50565b6000546001600160a01b031690565b828054620001c9906200047c565b90600052602060002090601f016020900481019282620001ed576000855562000238565b82601f106200020857805160ff191683800117855562000238565b8280016001018555821562000238579182015b82811115620002385782518255916020019190600101906200021b565b50620002469291506200024a565b5090565b5b808211156200024657600081556001016200024b565b80516001600160a01b03811681146200027957600080fd5b919050565b600082601f8301126200028f578081fd5b81516001600160401b0380821115620002ac57620002ac620004b9565b6040516020601f8401601f1916820181018381118382101715620002d457620002d4620004b9565b6040528382528584018101871015620002eb578485fd5b8492505b838310156200030e5785830181015182840182015291820191620002ef565b838311156200031f57848185840101525b5095945050505050565b60008060008060008060c0878903121562000342578182fd5b86516001600160401b038082111562000359578384fd5b620003678a838b016200027e565b975060208901519150808211156200037d578384fd5b6200038b8a838b016200027e565b96506040890151915080821115620003a1578384fd5b620003af8a838b016200027e565b95506060890151915080821115620003c5578384fd5b50620003d489828a016200027e565b935050620003e56080880162000261565b9150620003f560a0880162000261565b90509295509295509295565b60208082526026908201527f4f776e61626c653a206e6577206f776e657220697320746865207a65726f206160408201526564647265737360d01b606082015260800190565b6020808252818101527f4f776e61626c653a2063616c6c6572206973206e6f7420746865206f776e6572604082015260600190565b6002810460018216806200049157607f821691505b60208210811415620004b357634e487b7160e01b600052602260045260246000fd5b50919050565b634e487b7160e01b600052604160045260246000fd5b610a8380620004df6000396000f3fe6080604052600436106100f35760003560e01c80635600f04f1161008a578063b90497e011610059578063b90497e014610261578063de2ed89314610276578063ed88c68e1461028b578063f2fde38b14610293576100f3565b80635600f04f1461020d578063715018a6146102225780637284e416146102375780638da5cb5b1461024c576100f3565b80631f522595116100c65780631f522595146101ac578063375b74c3146101c157806338af3eed146101e35780633ccfd60b146101f8576100f3565b80630180b97c1461011a57806306fdde03146101455780631a57f7b4146101675780631c31f7101461018a575b60085461010090346102b3565b6008556009805490600061011383610a07565b9190505550005b34801561012657600080fd5b5061012f6102e5565b60405161013c91906109ab565b60405180910390f35b34801561015157600080fd5b5061015a6102f8565b60405161013c91906108dd565b34801561017357600080fd5b5061017c610386565b60405161013c9291906108af565b34801561019657600080fd5b506101aa6101a536600461083e565b6104ff565b005b3480156101b857600080fd5b5061012f610569565b3480156101cd57600080fd5b506101d661056f565b60405161013c919061089b565b3480156101ef57600080fd5b506101d661057e565b34801561020457600080fd5b506101aa61058d565b34801561021957600080fd5b5061015a610641565b34801561022e57600080fd5b506101aa61064e565b34801561024357600080fd5b5061015a610699565b34801561025857600080fd5b506101d66106a6565b34801561026d57600080fd5b5061015a6106b5565b34801561028257600080fd5b5061012f6106c2565b6101aa6106c8565b34801561029f57600080fd5b506101aa6102ae36600461083e565b610779565b60006102bf82846109b4565b9050828110156102df57634e487b7160e01b600052600160045260246000fd5b92915050565b3360009081526007602052604090205490565b60018054610305906109cc565b80601f0160208091040260200160405190810160405280929190818152602001828054610331906109cc565b801561037e5780601f106103535761010080835404028352916020019161037e565b820191906000526020600020905b81548152906001019060200180831161036157829003601f168201915b505050505081565b60608060006103936102e5565b90508067ffffffffffffffff8111156103bc57634e487b7160e01b600052604160045260246000fd5b6040519080825280602002602001820160405280156103e5578160200160208202803683370190505b5092508067ffffffffffffffff81111561040f57634e487b7160e01b600052604160045260246000fd5b604051908082528060200260200182016040528015610438578160200160208202803683370190505b50915060005b818110156104f95733600090815260076020526040812080548390811061047557634e487b7160e01b600052603260045260246000fd5b9060005260206000209060020201905080600001548583815181106104aa57634e487b7160e01b600052603260045260246000fd5b60200260200101818152505080600101548483815181106104db57634e487b7160e01b600052603260045260246000fd5b602090810291909101015250806104f181610a07565b91505061043e565b50509091565b6105076107ea565b6001600160a01b03166105186106a6565b6001600160a01b0316146105475760405162461bcd60e51b815260040161053e90610976565b60405180910390fd5b600580546001600160a01b0319166001600160a01b0392909216919091179055565b60095481565b6006546001600160a01b031681565b6005546001600160a01b031681565b6105956107ea565b6001600160a01b03166105a66106a6565b6001600160a01b0316146105cc5760405162461bcd60e51b815260040161053e90610976565b60055460405147916001600160a01b03169082156108fc029083906000818181858888f19350505050158015610606573d6000803e3d6000fd5b507f5b6b431d4476a211bb7d41c20d1aab9ae2321deee0d20be3d9fc9b1093fa6e3d8160405161063691906109ab565b60405180910390a150565b60028054610305906109cc565b6106566107ea565b6001600160a01b03166106676106a6565b6001600160a01b03161461068d5760405162461bcd60e51b815260040161053e90610976565b61069760006107ee565b565b60048054610305906109cc565b6000546001600160a01b031690565b60038054610305906109cc565b60085481565b60408051808201825234808252426020808401918252336000908152600782529485208054600181810183559187529190952084516002909202019081559051930192909255600854909161071d91906102b3565b6008556009805490600061073083610a07565b9190505550336001600160a01b03167f264f630d9efa0d07053a31163641d9fcc0adafc9d9e76f1c37c2ce3a558d2c523460405161076e91906109ab565b60405180910390a250565b6107816107ea565b6001600160a01b03166107926106a6565b6001600160a01b0316146107b85760405162461bcd60e51b815260040161053e90610976565b6001600160a01b0381166107de5760405162461bcd60e51b815260040161053e90610930565b6107e7816107ee565b50565b3390565b600080546001600160a01b038381166001600160a01b0319831681178455604051919092169283917f8be0079c531659141344cd1fd0a4f28419497f9722a3daafe3b4186f6b6457e09190a35050565b60006020828403121561084f578081fd5b813561085a81610a38565b9392505050565b6000815180845260208085019450808401835b8381101561089057815187529582019590820190600101610874565b509495945050505050565b6001600160a01b0391909116815260200190565b6000604082526108c26040830185610861565b82810360208401526108d48185610861565b95945050505050565b6000602080835283518082850152825b81811015610909578581018301518582016040015282016108ed565b8181111561091a5783604083870101525b50601f01601f1916929092016040019392505050565b60208082526026908201527f4f776e61626c653a206e6577206f776e657220697320746865207a65726f206160408201526564647265737360d01b606082015260800190565b6020808252818101527f4f776e61626c653a2063616c6c6572206973206e6f7420746865206f776e6572604082015260600190565b90815260200190565b600082198211156109c7576109c7610a22565b500190565b6002810460018216806109e057607f821691505b60208210811415610a0157634e487b7160e01b600052602260045260246000fd5b50919050565b6000600019821415610a1b57610a1b610a22565b5060010190565b634e487b7160e01b600052601160045260246000fd5b6001600160a01b03811681146107e757600080fdfea2646970667358221220e4a4515e15bf29cc3c1643ca9fe7d1806bf8e49e0298cf0d2af27615ea9d152764736f6c63430008000033",
  "immutableReferences": {},
  "source": "pragma solidity >0.4.23;\n\nimport \"@openzeppelin/contracts/access/Ownable.sol\";\nimport \"openzeppelin-solidity/contracts/math/SafeMath.sol\";\n\n\ncontract Fundraiser is Ownable {\n    // SafeMath\n    using SafeMath for uint256;\n    // \n    string public name;\n    string public url;\n    string public imageURL;\n    string public description; \n    // \n    address payable public beneficiary;\n    // \n    address public custodian;\n    // \n    struct Donation {\n        uint256 value;\n        uint256 date; \n    }\n    // map\n    mapping (address => Donation[]) private _donations;\n    // \n    uint256 public totalDonations;\n    // \n    uint256 public donationsCount;\n\n    // \n    event DonationReceived (address indexed donor, uint256 value);\n    // \n    event Withdraw(uint256 amount);\n\n    /**\n     * \n     */\n    constructor (string memory _name, string memory _url, string memory _imageURL, string memory _description, address payable _beneficiary, address _custodian) public {\n        name = _name;\n        url = _url;\n        imageURL = _imageURL;\n        description = _description;\n        beneficiary = _beneficiary;\n        transferOwnership(_custodian);\n    }\n\n    /**\n     * \n     */\n    function setBeneficiary (address payable _beneficiary) public onlyOwner {\n        beneficiary = _beneficiary;\n    }\n\n    /**\n     * \n     */\n    function myDonationsCount () public view returns (uint256) {\n        return _donations[msg.sender].length;\n    }\n\n    /**\n     * donate\n     */\n    function donate () public payable {\n        // \n        Donation memory donation = Donation({\n            value: msg.value,\n            date: block.timestamp\n        });\n        // \n        _donations[msg.sender].push(donation);\n        // \n        totalDonations = totalDonations.add(msg.value);\n        // \n        donationsCount++;\n        // \n        emit DonationReceived (msg.sender, msg.value);\n      }\n\n    /**\n     * \n     */\n    function myDonations () public view returns (uint256[] memory values, uint256[] memory dates) {\n        // \n        uint256 count = myDonationsCount();\n        values = new uint256[](count);\n        dates = new uint256[](count);\n        // \n        for (uint256 i = 0; i < count; i++) {\n            Donation storage donation = _donations[msg.sender][i];\n            values[i] = donation.value;\n            dates[i] = donation.date;\n        }\n        return (values, dates);\n    }\n\n    /**\n     * \n     */\n    function withdraw () public onlyOwner {\n        // \n        uint256 balance = address(this).balance;\n        // \n        beneficiary.transfer(balance);\n        // \n        emit Withdraw(balance);\n    }\n\n    /**\n     * \n     */\n    fallback () external payable {\n        // \n        totalDonations = totalDonations.add(msg.value);\n        // \n        donationsCount++;\n    }\n}",
  "sourcePath": "/Users/harukikondo/git/fundraiser-dapp/contracts/Fundraiser.sol",
  "compiler": {
    "name": "solc",
    "version": "0.8.0+commit.c7dfd78e.Emscripten.clang"
  },
  "schemaVersion": "3.4.4",
  "updatedAt": "2022-08-27T03:20:55.768Z",
  "devdoc": {
    "kind": "dev",
    "methods": {
      "owner()": {
        "details": "Returns the address of the current owner."
      },
      "renounceOwnership()": {
        "details": "Leaves the contract without owner. It will not be possible to call `onlyOwner` functions anymore. Can only be called by the current owner. NOTE: Renouncing ownership will leave the contract without an owner, thereby removing any functionality that is only available to the owner."
      },
      "transferOwnership(address)": {
        "details": "Transfers ownership of the contract to a new account (`newOwner`). Can only be called by the current owner."
      }
    },
    "version": 1
  },
  "userdoc": {
    "kind": "user",
    "methods": {
      "constructor": {
        "notice": ""
      },
      "donate()": {
        "notice": "donate"
      },
      "myDonations()": {
        "notice": ""
      },
      "myDonationsCount()": {
        "notice": ""
      },
      "setBeneficiary(address)": {
        "notice": ""
      },
      "withdraw()": {
        "notice": ""
      }
    },
    "version": 1
  }
}