{
  "contractName": "GnosisSafe",
  "abi": [
    {
      "inputs": [
        {
          "internalType": "string",
          "name": "walletName_",
          "type": "string"
        }
      ],
      "stateMutability": "nonpayable",
      "type": "constructor"
    },
    {
      "anonymous": false,
      "inputs": [
        {
          "indexed": false,
          "internalType": "address",
          "name": "owner",
          "type": "address"
        }
      ],
      "name": "AddedOwner",
      "type": "event"
    },
    {
      "anonymous": false,
      "inputs": [
        {
          "indexed": true,
          "internalType": "bytes32",
          "name": "approvedHash",
          "type": "bytes32"
        },
        {
          "indexed": true,
          "internalType": "address",
          "name": "owner",
          "type": "address"
        }
      ],
      "name": "ApproveHash",
      "type": "event"
    },
    {
      "anonymous": false,
      "inputs": [
        {
          "indexed": false,
          "internalType": "address",
          "name": "handler",
          "type": "address"
        }
      ],
      "name": "ChangedFallbackHandler",
      "type": "event"
    },
    {
      "anonymous": false,
      "inputs": [
        {
          "indexed": false,
          "internalType": "address",
          "name": "guard",
          "type": "address"
        }
      ],
      "name": "ChangedGuard",
      "type": "event"
    },
    {
      "anonymous": false,
      "inputs": [
        {
          "indexed": false,
          "internalType": "uint256",
          "name": "threshold",
          "type": "uint256"
        }
      ],
      "name": "ChangedThreshold",
      "type": "event"
    },
    {
      "anonymous": false,
      "inputs": [
        {
          "indexed": false,
          "internalType": "address",
          "name": "module",
          "type": "address"
        }
      ],
      "name": "DisabledModule",
      "type": "event"
    },
    {
      "anonymous": false,
      "inputs": [
        {
          "indexed": false,
          "internalType": "address",
          "name": "module",
          "type": "address"
        }
      ],
      "name": "EnabledModule",
      "type": "event"
    },
    {
      "anonymous": false,
      "inputs": [
        {
          "indexed": false,
          "internalType": "bytes32",
          "name": "txHash",
          "type": "bytes32"
        },
        {
          "indexed": false,
          "internalType": "uint256",
          "name": "payment",
          "type": "uint256"
        }
      ],
      "name": "ExecutionFailure",
      "type": "event"
    },
    {
      "anonymous": false,
      "inputs": [
        {
          "indexed": true,
          "internalType": "address",
          "name": "module",
          "type": "address"
        }
      ],
      "name": "ExecutionFromModuleFailure",
      "type": "event"
    },
    {
      "anonymous": false,
      "inputs": [
        {
          "indexed": true,
          "internalType": "address",
          "name": "module",
          "type": "address"
        }
      ],
      "name": "ExecutionFromModuleSuccess",
      "type": "event"
    },
    {
      "anonymous": false,
      "inputs": [
        {
          "indexed": false,
          "internalType": "bytes32",
          "name": "txHash",
          "type": "bytes32"
        },
        {
          "indexed": false,
          "internalType": "uint256",
          "name": "payment",
          "type": "uint256"
        }
      ],
      "name": "ExecutionSuccess",
      "type": "event"
    },
    {
      "anonymous": false,
      "inputs": [
        {
          "indexed": false,
          "internalType": "address",
          "name": "owner",
          "type": "address"
        }
      ],
      "name": "RemovedOwner",
      "type": "event"
    },
    {
      "anonymous": false,
      "inputs": [
        {
          "indexed": true,
          "internalType": "address",
          "name": "sender",
          "type": "address"
        },
        {
          "indexed": false,
          "internalType": "uint256",
          "name": "value",
          "type": "uint256"
        }
      ],
      "name": "SafeReceived",
      "type": "event"
    },
    {
      "anonymous": false,
      "inputs": [
        {
          "indexed": true,
          "internalType": "address",
          "name": "initiator",
          "type": "address"
        },
        {
          "indexed": false,
          "internalType": "address[]",
          "name": "owners",
          "type": "address[]"
        },
        {
          "indexed": false,
          "internalType": "uint256",
          "name": "threshold",
          "type": "uint256"
        },
        {
          "indexed": false,
          "internalType": "address",
          "name": "initializer",
          "type": "address"
        },
        {
          "indexed": false,
          "internalType": "address",
          "name": "fallbackHandler",
          "type": "address"
        }
      ],
      "name": "SafeSetup",
      "type": "event"
    },
    {
      "anonymous": false,
      "inputs": [
        {
          "indexed": true,
          "internalType": "bytes32",
          "name": "msgHash",
          "type": "bytes32"
        }
      ],
      "name": "SignMsg",
      "type": "event"
    },
    {
      "stateMutability": "nonpayable",
      "type": "fallback"
    },
    {
      "inputs": [],
      "name": "VERSION",
      "outputs": [
        {
          "internalType": "string",
          "name": "",
          "type": "string"
        }
      ],
      "stateMutability": "view",
      "type": "function"
    },
    {
      "inputs": [
        {
          "internalType": "address",
          "name": "owner",
          "type": "address"
        },
        {
          "internalType": "uint256",
          "name": "_threshold",
          "type": "uint256"
        }
      ],
      "name": "addOwnerWithThreshold",
      "outputs": [],
      "stateMutability": "nonpayable",
      "type": "function"
    },
    {
      "inputs": [
        {
          "internalType": "address",
          "name": "",
          "type": "address"
        },
        {
          "internalType": "bytes32",
          "name": "",
          "type": "bytes32"
        }
      ],
      "name": "approvedHashes",
      "outputs": [
        {
          "internalType": "uint256",
          "name": "",
          "type": "uint256"
        }
      ],
      "stateMutability": "view",
      "type": "function"
    },
    {
      "inputs": [
        {
          "internalType": "uint256",
          "name": "_threshold",
          "type": "uint256"
        }
      ],
      "name": "changeThreshold",
      "outputs": [],
      "stateMutability": "nonpayable",
      "type": "function"
    },
    {
      "inputs": [
        {
          "internalType": "address",
          "name": "prevModule",
          "type": "address"
        },
        {
          "internalType": "address",
          "name": "module",
          "type": "address"
        }
      ],
      "name": "disableModule",
      "outputs": [],
      "stateMutability": "nonpayable",
      "type": "function"
    },
    {
      "inputs": [
        {
          "internalType": "address",
          "name": "module",
          "type": "address"
        }
      ],
      "name": "enableModule",
      "outputs": [],
      "stateMutability": "nonpayable",
      "type": "function"
    },
    {
      "inputs": [
        {
          "internalType": "address",
          "name": "to",
          "type": "address"
        },
        {
          "internalType": "uint256",
          "name": "value",
          "type": "uint256"
        },
        {
          "internalType": "bytes",
          "name": "data",
          "type": "bytes"
        },
        {
          "internalType": "enum Enum.Operation",
          "name": "operation",
          "type": "uint8"
        }
      ],
      "name": "execTransactionFromModule",
      "outputs": [
        {
          "internalType": "bool",
          "name": "success",
          "type": "bool"
        }
      ],
      "stateMutability": "nonpayable",
      "type": "function"
    },
    {
      "inputs": [
        {
          "internalType": "address",
          "name": "to",
          "type": "address"
        },
        {
          "internalType": "uint256",
          "name": "value",
          "type": "uint256"
        },
        {
          "internalType": "bytes",
          "name": "data",
          "type": "bytes"
        },
        {
          "internalType": "enum Enum.Operation",
          "name": "operation",
          "type": "uint8"
        }
      ],
      "name": "execTransactionFromModuleReturnData",
      "outputs": [
        {
          "internalType": "bool",
          "name": "success",
          "type": "bool"
        },
        {
          "internalType": "bytes",
          "name": "returnData",
          "type": "bytes"
        }
      ],
      "stateMutability": "nonpayable",
      "type": "function"
    },
    {
      "inputs": [
        {
          "internalType": "address",
          "name": "start",
          "type": "address"
        },
        {
          "internalType": "uint256",
          "name": "pageSize",
          "type": "uint256"
        }
      ],
      "name": "getModulesPaginated",
      "outputs": [
        {
          "internalType": "address[]",
          "name": "array",
          "type": "address[]"
        },
        {
          "internalType": "address",
          "name": "next",
          "type": "address"
        }
      ],
      "stateMutability": "view",
      "type": "function"
    },
    {
      "inputs": [],
      "name": "getOwners",
      "outputs": [
        {
          "internalType": "address[]",
          "name": "",
          "type": "address[]"
        }
      ],
      "stateMutability": "view",
      "type": "function"
    },
    {
      "inputs": [
        {
          "internalType": "uint256",
          "name": "offset",
          "type": "uint256"
        },
        {
          "internalType": "uint256",
          "name": "length",
          "type": "uint256"
        }
      ],
      "name": "getStorageAt",
      "outputs": [
        {
          "internalType": "bytes",
          "name": "",
          "type": "bytes"
        }
      ],
      "stateMutability": "view",
      "type": "function"
    },
    {
      "inputs": [],
      "name": "getThreshold",
      "outputs": [
        {
          "internalType": "uint256",
          "name": "",
          "type": "uint256"
        }
      ],
      "stateMutability": "view",
      "type": "function"
    },
    {
      "inputs": [
        {
          "internalType": "address",
          "name": "module",
          "type": "address"
        }
      ],
      "name": "isModuleEnabled",
      "outputs": [
        {
          "internalType": "bool",
          "name": "",
          "type": "bool"
        }
      ],
      "stateMutability": "view",
      "type": "function"
    },
    {
      "inputs": [
        {
          "internalType": "address",
          "name": "owner",
          "type": "address"
        }
      ],
      "name": "isOwner",
      "outputs": [
        {
          "internalType": "bool",
          "name": "",
          "type": "bool"
        }
      ],
      "stateMutability": "view",
      "type": "function"
    },
    {
      "inputs": [],
      "name": "nonce",
      "outputs": [
        {
          "internalType": "uint256",
          "name": "",
          "type": "uint256"
        }
      ],
      "stateMutability": "view",
      "type": "function"
    },
    {
      "inputs": [
        {
          "internalType": "address",
          "name": "prevOwner",
          "type": "address"
        },
        {
          "internalType": "address",
          "name": "owner",
          "type": "address"
        },
        {
          "internalType": "uint256",
          "name": "_threshold",
          "type": "uint256"
        }
      ],
      "name": "removeOwner",
      "outputs": [],
      "stateMutability": "nonpayable",
      "type": "function"
    },
    {
      "inputs": [
        {
          "internalType": "address",
          "name": "handler",
          "type": "address"
        }
      ],
      "name": "setFallbackHandler",
      "outputs": [],
      "stateMutability": "nonpayable",
      "type": "function"
    },
    {
      "inputs": [
        {
          "internalType": "address",
          "name": "guard",
          "type": "address"
        }
      ],
      "name": "setGuard",
      "outputs": [],
      "stateMutability": "nonpayable",
      "type": "function"
    },
    {
      "inputs": [
        {
          "internalType": "bytes32",
          "name": "",
          "type": "bytes32"
        }
      ],
      "name": "signedMessages",
      "outputs": [
        {
          "internalType": "uint256",
          "name": "",
          "type": "uint256"
        }
      ],
      "stateMutability": "view",
      "type": "function"
    },
    {
      "inputs": [
        {
          "internalType": "address",
          "name": "targetContract",
          "type": "address"
        },
        {
          "internalType": "bytes",
          "name": "calldataPayload",
          "type": "bytes"
        }
      ],
      "name": "simulateAndRevert",
      "outputs": [],
      "stateMutability": "nonpayable",
      "type": "function"
    },
    {
      "inputs": [
        {
          "internalType": "address",
          "name": "prevOwner",
          "type": "address"
        },
        {
          "internalType": "address",
          "name": "oldOwner",
          "type": "address"
        },
        {
          "internalType": "address",
          "name": "newOwner",
          "type": "address"
        }
      ],
      "name": "swapOwner",
      "outputs": [],
      "stateMutability": "nonpayable",
      "type": "function"
    },
    {
      "inputs": [],
      "name": "walletName",
      "outputs": [
        {
          "internalType": "string",
          "name": "",
          "type": "string"
        }
      ],
      "stateMutability": "view",
      "type": "function"
    },
    {
      "stateMutability": "payable",
      "type": "receive"
    },
    {
      "inputs": [
        {
          "internalType": "address[]",
          "name": "_owners",
          "type": "address[]"
        },
        {
          "internalType": "uint256",
          "name": "_threshold",
          "type": "uint256"
        },
        {
          "internalType": "address",
          "name": "to",
          "type": "address"
        },
        {
          "internalType": "bytes",
          "name": "data",
          "type": "bytes"
        },
        {
          "internalType": "address",
          "name": "fallbackHandler",
          "type": "address"
        },
        {
          "internalType": "address",
          "name": "paymentToken",
          "type": "address"
        },
        {
          "internalType": "uint256",
          "name": "payment",
          "type": "uint256"
        },
        {
          "internalType": "address payable",
          "name": "paymentReceiver",
          "type": "address"
        }
      ],
      "name": "setup",
      "outputs": [],
      "stateMutability": "nonpayable",
      "type": "function"
    },
    {
      "inputs": [
        {
          "internalType": "address",
          "name": "to",
          "type": "address"
        },
        {
          "internalType": "uint256",
          "name": "value",
          "type": "uint256"
        },
        {
          "internalType": "bytes",
          "name": "data",
          "type": "bytes"
        },
        {
          "internalType": "enum Enum.Operation",
          "name": "operation",
          "type": "uint8"
        },
        {
          "internalType": "uint256",
          "name": "safeTxGas",
          "type": "uint256"
        },
        {
          "internalType": "uint256",
          "name": "baseGas",
          "type": "uint256"
        },
        {
          "internalType": "uint256",
          "name": "gasPrice",
          "type": "uint256"
        },
        {
          "internalType": "address",
          "name": "gasToken",
          "type": "address"
        },
        {
          "internalType": "address payable",
          "name": "refundReceiver",
          "type": "address"
        },
        {
          "internalType": "bytes",
          "name": "signatures",
          "type": "bytes"
        }
      ],
      "name": "execTransaction",
      "outputs": [
        {
          "internalType": "bool",
          "name": "success",
          "type": "bool"
        }
      ],
      "stateMutability": "payable",
      "type": "function"
    },
    {
      "inputs": [
        {
          "internalType": "bytes32",
          "name": "dataHash",
          "type": "bytes32"
        },
        {
          "internalType": "bytes",
          "name": "data",
          "type": "bytes"
        },
        {
          "internalType": "bytes",
          "name": "signatures",
          "type": "bytes"
        }
      ],
      "name": "checkSignatures",
      "outputs": [],
      "stateMutability": "view",
      "type": "function"
    },
    {
      "inputs": [
        {
          "internalType": "bytes32",
          "name": "dataHash",
          "type": "bytes32"
        },
        {
          "internalType": "bytes",
          "name": "data",
          "type": "bytes"
        },
        {
          "internalType": "bytes",
          "name": "signatures",
          "type": "bytes"
        },
        {
          "internalType": "uint256",
          "name": "requiredSignatures",
          "type": "uint256"
        }
      ],
      "name": "checkNSignatures",
      "outputs": [],
      "stateMutability": "view",
      "type": "function"
    },
    {
      "inputs": [
        {
          "internalType": "address",
          "name": "to",
          "type": "address"
        },
        {
          "internalType": "uint256",
          "name": "value",
          "type": "uint256"
        },
        {
          "internalType": "bytes",
          "name": "data",
          "type": "bytes"
        },
        {
          "internalType": "enum Enum.Operation",
          "name": "operation",
          "type": "uint8"
        }
      ],
      "name": "requiredTxGas",
      "outputs": [
        {
          "internalType": "uint256",
          "name": "",
          "type": "uint256"
        }
      ],
      "stateMutability": "nonpayable",
      "type": "function"
    },
    {
      "inputs": [
        {
          "internalType": "bytes32",
          "name": "hashToApprove",
          "type": "bytes32"
        }
      ],
      "name": "approveHash",
      "outputs": [],
      "stateMutability": "nonpayable",
      "type": "function"
    },
    {
      "inputs": [],
      "name": "getChainId",
      "outputs": [
        {
          "internalType": "uint256",
          "name": "",
          "type": "uint256"
        }
      ],
      "stateMutability": "view",
      "type": "function"
    },
    {
      "inputs": [],
      "name": "getWalletName",
      "outputs": [
        {
          "internalType": "string",
          "name": "",
          "type": "string"
        }
      ],
      "stateMutability": "view",
      "type": "function"
    },
    {
      "inputs": [],
      "name": "domainSeparator",
      "outputs": [
        {
          "internalType": "bytes32",
          "name": "",
          "type": "bytes32"
        }
      ],
      "stateMutability": "view",
      "type": "function"
    },
    {
      "inputs": [
        {
          "internalType": "address",
          "name": "to",
          "type": "address"
        },
        {
          "internalType": "uint256",
          "name": "value",
          "type": "uint256"
        },
        {
          "internalType": "bytes",
          "name": "data",
          "type": "bytes"
        },
        {
          "internalType": "enum Enum.Operation",
          "name": "operation",
          "type": "uint8"
        },
        {
          "internalType": "uint256",
          "name": "safeTxGas",
          "type": "uint256"
        },
        {
          "internalType": "uint256",
          "name": "baseGas",
          "type": "uint256"
        },
        {
          "internalType": "uint256",
          "name": "gasPrice",
          "type": "uint256"
        },
        {
          "internalType": "address",
          "name": "gasToken",
          "type": "address"
        },
        {
          "internalType": "address",
          "name": "refundReceiver",
          "type": "address"
        },
        {
          "internalType": "uint256",
          "name": "_nonce",
          "type": "uint256"
        }
      ],
      "name": "encodeTransactionData",
      "outputs": [
        {
          "internalType": "bytes",
          "name": "",
          "type": "bytes"
        }
      ],
      "stateMutability": "view",
      "type": "function"
    },
    {
      "inputs": [
        {
          "internalType": "address",
          "name": "to",
          "type": "address"
        },
        {
          "internalType": "uint256",
          "name": "value",
          "type": "uint256"
        },
        {
          "internalType": "bytes",
          "name": "data",
          "type": "bytes"
        },
        {
          "internalType": "enum Enum.Operation",
          "name": "operation",
          "type": "uint8"
        },
        {
          "internalType": "uint256",
          "name": "safeTxGas",
          "type": "uint256"
        },
        {
          "internalType": "uint256",
          "name": "baseGas",
          "type": "uint256"
        },
        {
          "internalType": "uint256",
          "name": "gasPrice",
          "type": "uint256"
        },
        {
          "internalType": "address",
          "name": "gasToken",
          "type": "address"
        },
        {
          "internalType": "address",
          "name": "refundReceiver",
          "type": "address"
        },
        {
          "internalType": "uint256",
          "name": "_nonce",
          "type": "uint256"
        }
      ],
      "name": "getTransactionHash",
      "outputs": [
        {
          "internalType": "bytes32",
          "name": "",
          "type": "bytes32"
        }
      ],
      "stateMutability": "view",
      "type": "function"
    }
  ],
  "bytecode": "0x60806040523480156200001157600080fd5b50604051620035d4380380620035d48339810160408190526200003491620000fc565b80516200004990600790602084019062000056565b505060016004556200021e565b8280546200006490620001cb565b90600052602060002090601f016020900481019282620000885760008555620000d3565b82601f10620000a357805160ff1916838001178555620000d3565b82800160010185558215620000d3579182015b82811115620000d3578251825591602001919060010190620000b6565b50620000e1929150620000e5565b5090565b5b80821115620000e15760008155600101620000e6565b600060208083850312156200010f578182fd5b82516001600160401b038082111562000126578384fd5b818501915085601f8301126200013a578384fd5b8151818111156200014f576200014f62000208565b604051601f8201601f191681018501838111828210171562000175576200017562000208565b60405281815283820185018810156200018c578586fd5b8592505b81831015620001af578383018501518184018601529184019162000190565b81831115620001c057858583830101525b979650505050505050565b600281046001821680620001e057607f821691505b602082108114156200020257634e487b7160e01b600052602260045260246000fd5b50919050565b634e487b7160e01b600052604160045260246000fd5b6133a6806200022e6000396000f3fe6080604052600436106101f25760003560e01c8063b4faba091161010d578063e009cfde116100a0578063e86637db1161006f578063e86637db1461062c578063f08a03231461064c578063f698da251461066c578063f8dc5dd914610681578063ffa1ad74146106a15761023a565b8063e009cfde146105b7578063e19a9dd9146105d7578063e318b52b146105f7578063e75235b8146106175761023a565b8063cc2f8452116100dc578063cc2f845214610534578063cf8d8ca014610562578063d4d9bdcd14610577578063d8d11f78146105975761023a565b8063b4faba09146104bf578063b4fe0082146104df578063b63e800d146104f4578063c4ca3a9c146105145761023a565b80635ae6bd37116101855780637d832974116101545780637d83297414610448578063934f3a1114610468578063a0e67e2b14610488578063affed0e0146104aa5761023a565b80635ae6bd37146103d5578063610b5925146103f5578063694e80c3146104155780636a761202146104355761023a565b80633408e470116101c15780633408e47014610338578063468721a71461035a5780635229073f1461037a5780635624b25b146103a85761023a565b80630d582f13146102a057806312fb68e0146102c25780632d9ad53d146102e25780632f54bf6e146103185761023a565b3661023a57336001600160a01b03167f3d0ce9bfc3ed7d6862dbb28b2dea94561fe714a1b4d019aa8af39730d1ad7c3d346040516102309190612c3a565b60405180910390a2005b34801561024657600080fd5b507f6c9a6c4a39284e37ed1cf53d337577d14212a4870fb976a4366c693b939918d580548061027157005b36600080373360601b365260008060143601600080855af190503d6000803e8061029a573d6000fd5b503d6000f35b3480156102ac57600080fd5b506102c06102bb3660046125ea565b6106b6565b005b3480156102ce57600080fd5b506102c06102dd366004612a58565b610811565b3480156102ee57600080fd5b506103026102fd36600461250c565b610b95565b60405161030f9190612dcb565b60405180910390f35b34801561032457600080fd5b5061030261033336600461250c565b610bd2565b34801561034457600080fd5b5061034d610c0a565b60405161030f9190612c3a565b34801561036657600080fd5b50610302610375366004612863565b610c0e565b34801561038657600080fd5b5061039a610395366004612863565b610ccd565b60405161030f929190612dd6565b3480156103b457600080fd5b506103c86103c3366004612af1565b610d03565b60405161030f9190612ed0565b3480156103e157600080fd5b5061034d6103f03660046129d7565b610d98565b34801561040157600080fd5b506102c061041036600461250c565b610daa565b34801561042157600080fd5b506102c06104303660046129d7565b610ec2565b6103026104433660046126d0565b610f42565b34801561045457600080fd5b5061034d6104633660046125ea565b611239565b34801561047457600080fd5b506102c06104833660046129ef565b611256565b34801561049457600080fd5b5061049d611288565b60405161030f9190612d8e565b3480156104b657600080fd5b5061034d611394565b3480156104cb57600080fd5b506102c06104da366004612615565b61139a565b3480156104eb57600080fd5b506103c86113bd565b34801561050057600080fd5b506102c061050f3660046128ca565b61144f565b34801561052057600080fd5b5061034d61052f366004612662565b611551565b34801561054057600080fd5b5061055461054f3660046125ea565b6115e9565b60405161030f929190612da1565b34801561056e57600080fd5b506103c86116fe565b34801561058357600080fd5b506102c06105923660046129d7565b61178c565b3480156105a357600080fd5b5061034d6105b23660046127a5565b611809565b3480156105c357600080fd5b506102c06105d2366004612528565b611836565b3480156105e357600080fd5b506102c06105f236600461250c565b611937565b34801561060357600080fd5b506102c0610612366004612560565b611a41565b34801561062357600080fd5b5061034d611c16565b34801561063857600080fd5b506103c86106473660046127a5565b611c1c565b34801561065857600080fd5b506102c061066736600461250c565b611cdd565b34801561067857600080fd5b5061034d611d1d565b34801561068d57600080fd5b506102c061069c3660046125aa565b611d76565b3480156106ad57600080fd5b506103c8611ecc565b6106be611eed565b6001600160a01b038216158015906106e057506001600160a01b038216600114155b80156106f557506001600160a01b0382163014155b61071a5760405162461bcd60e51b815260040161071190612fc2565b60405180910390fd5b6001600160a01b0382811660009081526002602052604090205416156107525760405162461bcd60e51b815260040161071190613155565b60026020527fe90b7bceb6e7df5418fb78d8ee546e97c83a08bbccc01a0644d599ccd2a7c2e080546001600160a01b038481166000818152604081208054939094166001600160a01b0319938416179093556001835283549091161790915560038054916107bf83613311565b91905055507f9465fa0c962cc76958e6373a993326400c1c94f8be2fe3a952adfa7f60b2ea26826040516107f39190612c43565b60405180910390a1806004541461080d5761080d81610ec2565b5050565b61081c816041611f0e565b8251101561083c5760405162461bcd60e51b8152600401610711906131f0565b6000808060008060005b86811015610b89576108588882611f47565b9195509350915060ff84166109b6579193508391610877876041611f0e565b8210156108965760405162461bcd60e51b8152600401610711906131b2565b87516108a3836020611f65565b11156108c15760405162461bcd60e51b815260040161071190612fa3565b6020828901810151895190916108e49083906108de908790611f65565b90611f65565b11156109025760405162461bcd60e51b815260040161071190612f08565b6040516320c13b0b60e01b8082528a8501602001916001600160a01b038916906320c13b0b90610938908f908690600401612ee3565b60206040518083038186803b15801561095057600080fd5b505afa158015610964573d6000803e3d6000fd5b505050506040513d601f19601f820116820180604052508101906109889190612ac9565b6001600160e01b031916146109af5760405162461bcd60e51b815260040161071190612f46565b5050610b07565b8360ff1660011415610a21579193508391336001600160a01b0384161480610a0057506001600160a01b03851660009081526009602090815260408083208d845290915290205415155b610a1c5760405162461bcd60e51b815260040161071190613136565b610b07565b601e8460ff161115610ab55760018a604051602001610a409190612c09565b60405160208183030381529060405280519060200120600486610a63919061329c565b858560405160008152602001604052604051610a829493929190612e9d565b6020604051602081039080840390855afa158015610aa4573d6000803e3d6000fd5b505050602060405103519450610b07565b60018a85858560405160008152602001604052604051610ad89493929190612e9d565b6020604051602081039080840390855afa158015610afa573d6000803e3d6000fd5b5050506020604051035194505b856001600160a01b0316856001600160a01b0316118015610b4157506001600160a01b038581166000908152600260205260409020541615155b8015610b5757506001600160a01b038516600114155b610b735760405162461bcd60e51b815260040161071190612f27565b8495508080610b8190613311565b915050610846565b50505050505050505050565b600060016001600160a01b03831614801590610bca57506001600160a01b038281166000908152600160205260409020541615155b90505b919050565b60006001600160a01b038216600114801590610bca5750506001600160a01b0390811660009081526002602052604090205416151590565b4690565b600033600114801590610c385750336000908152600160205260409020546001600160a01b031615155b610c545760405162461bcd60e51b8152600401610711906130f8565b610c61858585855a611f81565b90508015610c995760405133907f6895c13664aa4f67288b25d7a21d7aaa34916e355fb9b6fae0a139a9085becb890600090a2610cc5565b60405133907facd2c8702804128fdb0db2bb49f6d127dd0181c13fd45dbfe16de0930e2bd37590600090a25b949350505050565b60006060610cdd86868686610c0e565b915060405160203d0181016040523d81523d6000602083013e8091505094509492505050565b60606000610d12836020613266565b6001600160401b03811115610d3757634e487b7160e01b600052604160045260246000fd5b6040519080825280601f01601f191660200182016040528015610d61576020820181803683370190505b50905060005b83811015610d8e578481015460208083028401015280610d8681613311565b915050610d67565b5090505b92915050565b60086020526000908152604090205481565b610db2611eed565b6001600160a01b03811615801590610dd457506001600160a01b038116600114155b610df05760405162461bcd60e51b8152600401610711906131d1565b6001600160a01b038181166000908152600160205260409020541615610e285760405162461bcd60e51b815260040161071190613174565b600160208190527fcc69885fda6bcc1a4ace058b4a62bf5e179ea78fd58a1ccd71c22cc9b688792f80546001600160a01b03848116600081815260408082208054949095166001600160a01b031994851617909455949094528254169092179055517fecdf3a3effea5783a3c4c2140e677577666428d44ed9d474a0b3a4c9943f844090610eb7908390612c43565b60405180910390a150565b610eca611eed565b600354811115610eec5760405162461bcd60e51b815260040161071190612f84565b6001811015610f0d5760405162461bcd60e51b8152600401610711906130d9565b60048190556040517f610f7ff2b304ae8903c3de74c60c6ab1f7d6226b3f52c5161905bb5ad4039c9390610eb7908390612c3a565b6000806000610f5c8e8e8e8e8e8e8e8e8e8e600554611c1c565b600580549192506000610f6e83613311565b9091555050805160208201209150610f87828286611256565b506000610f92611fd7565b90506001600160a01b0381161561101857806001600160a01b03166375f0bb528f8f8f8f8f8f8f8f8f8f8f336040518d63ffffffff1660e01b8152600401610fe59c9b9a99989796959493929190612c70565b600060405180830381600087803b158015610fff57600080fd5b505af1158015611013573d6000803e3d6000fd5b505050505b6110446110278a6109c461322e565b603f6110348c6040613266565b61103e9190613246565b90611ffc565b611050906101f461322e565b5a101561106f5760405162461bcd60e51b8152600401610711906130ba565b60005a90506110e08f8f8f8f8080601f016020809104026020016040519081016040528093929190818152602001838380828437600081840152601f19601f820116905080830192505050505050508e8c6000146110cd578e6110db565b6109c45a6110db9190613285565b611f81565b93506110ed5a8290612013565b905083806110fa57508915155b8061110457508715155b6111205760405162461bcd60e51b81526004016107119061309b565b6000881561113857611135828b8b8b8b61202e565b90505b841561117c577f442e715f626346e8c54381002da614f62bee8d27386535b2521ec8540898556e848260405161116f929190612e70565b60405180910390a16111b6565b7f23428b18acfb3ea64b08dc0c1d296ea9c09702c09083ca5272e64d115b687d2384826040516111ad929190612e70565b60405180910390a15b50506001600160a01b0381161561122857604051631264e26d60e31b81526001600160a01b038216906393271368906111f59085908790600401612e60565b600060405180830381600087803b15801561120f57600080fd5b505af1158015611223573d6000803e3d6000fd5b505050505b50509b9a5050505050505050505050565b600960209081526000928352604080842090915290825290205481565b600454806112765760405162461bcd60e51b81526004016107119061307c565b61128284848484610811565b50505050565b606060006003546001600160401b038111156112b457634e487b7160e01b600052604160045260246000fd5b6040519080825280602002602001820160405280156112dd578160200160208202803683370190505b506001600090815260026020527fe90b7bceb6e7df5418fb78d8ee546e97c83a08bbccc01a0644d599ccd2a7c2e054919250906001600160a01b03165b6001600160a01b03811660011461138c578083838151811061134c57634e487b7160e01b600052603260045260246000fd5b6001600160a01b0392831660209182029290920181019190915291811660009081526002909252604090912054168161138481613311565b92505061131a565b509091505090565b60055481565b600080825160208401855af480600052503d6020523d600060403e60403d016000fd5b6060600780546113cc906132d6565b80601f01602080910402602001604051908101604052809291908181526020018280546113f8906132d6565b80156114455780601f1061141a57610100808354040283529160200191611445565b820191906000526020600020905b81548152906001019060200180831161142857829003601f168201915b5050505050905090565b61148d8a8a808060200260200160405190810160405280939291908181526020018383602002808284376000920191909152508c9250612104915050565b6001600160a01b038416156114a5576114a5846122ad565b6114e58787878080601f0160208091040260200160405190810160405280939291908181526020018383808284376000920191909152506122d192505050565b81156114fc576114fa8260006001868561202e565b505b336001600160a01b03167f141df868a6331af528e38c83b7aa03edc19be66e37ae67f9285bf4f8e3c6a1a88b8b8b8b8960405161153d959493929190612d22565b60405180910390a250505050505050505050565b6000805a905061159a878787878080601f01602080910402602001604051908101604052809392919081815260200183838082843760009201919091525089925050505a611f81565b6115a357600080fd5b60005a6115b09083613285565b9050806040516020016115c39190612c3a565b60408051601f198184030181529082905262461bcd60e51b825261071191600401612ed0565b60606000826001600160401b0381111561161357634e487b7160e01b600052604160045260246000fd5b60405190808252806020026020018201604052801561163c578160200160208202803683370190505b506001600160a01b0380861660009081526001602052604081205492945091165b6001600160a01b0381161580159061167f57506001600160a01b038116600114155b801561168a57508482105b156116f057808483815181106116b057634e487b7160e01b600052603260045260246000fd5b6001600160a01b039283166020918202929092018101919091529181166000908152600190925260409091205416816116e881613311565b92505061165d565b908352919491935090915050565b6007805461170b906132d6565b80601f0160208091040260200160405190810160405280929190818152602001828054611737906132d6565b80156117845780601f1061175957610100808354040283529160200191611784565b820191906000526020600020905b81548152906001019060200180831161176757829003601f168201915b505050505081565b336000908152600260205260409020546001600160a01b03166117c15760405162461bcd60e51b815260040161071190612f65565b336000818152600960209081526040808320858452909152808220600190555183917ff2a0eb156472d1440255b0d7c1e19cc07115d1051fe605b0dce69acfec884d9c91a350565b600061181e8c8c8c8c8c8c8c8c8c8c8c611c1c565b8051906020012090509b9a5050505050505050505050565b61183e611eed565b6001600160a01b0381161580159061186057506001600160a01b038116600114155b61187c5760405162461bcd60e51b8152600401610711906131d1565b6001600160a01b038281166000908152600160205260409020548116908216146118b85760405162461bcd60e51b81526004016107119061301f565b6001600160a01b03818116600081815260016020526040808220805487861684528284208054919096166001600160a01b0319918216179095559290915281549092169055517faab4fa2b463f581b2b32cb3b7e3b704b9ce37cc209b5fb4d77e593ace40542769061192b908390612c43565b60405180910390a15050565b61193f611eed565b6001600160a01b038116156119ed576040516301ffc9a760e01b81526001600160a01b038216906301ffc9a7906119819063736bd41d60e11b90600401612ebb565b60206040518083038186803b15801561199957600080fd5b505afa1580156119ad573d6000803e3d6000fd5b505050506040513d601f19601f820116820180604052508101906119d191906129b7565b6119ed5760405162461bcd60e51b815260040161071190613193565b7f4a204f620c8c5ccdca3fd54d003badd85ba500436a431f0cbda4f558c93c34c88181556040517f1151116914515bc0891ff9047a6cb32cf902546f83066499bcf8ba33d2353fa29061192b908490612c43565b611a49611eed565b6001600160a01b03811615801590611a6b57506001600160a01b038116600114155b8015611a8057506001600160a01b0381163014155b611a9c5760405162461bcd60e51b815260040161071190612fc2565b6001600160a01b038181166000908152600260205260409020541615611ad45760405162461bcd60e51b815260040161071190613155565b6001600160a01b03821615801590611af657506001600160a01b038216600114155b611b125760405162461bcd60e51b815260040161071190612fc2565b6001600160a01b03838116600090815260026020526040902054811690831614611b4e5760405162461bcd60e51b81526004016107119061320f565b6001600160a01b03828116600081815260026020526040808220805486861680855283852080549288166001600160a01b03199384161790559589168452828420805482169096179095559290915281549092169055517ff8d49fc529812e9a7c5c50e69c20f0dccc0db8fa95c98bc58cc9a4f1c1299eaf90611bd2908490612c43565b60405180910390a17f9465fa0c962cc76958e6373a993326400c1c94f8be2fe3a952adfa7f60b2ea2681604051611c099190612c43565b60405180910390a1505050565b60045490565b606060007fbb8310d486368db6bd6f849402fdd73ad53d316b5a4b2644ad6efe0f941286d860001b8d8d8d8d604051611c56929190612bf9565b604051908190038120611c7c949392918e908e908e908e908e908e908e90602001612df1565b60408051601f1981840301815291905280516020909101209050601960f81b600160f81b611ca8611d1d565b83604051602001611cbc9493929190612bcf565b6040516020818303038152906040529150509b9a5050505050505050505050565b611ce5611eed565b611cee816122ad565b7f5ac6c46c93c8d0e53714ba3b53db3e7c046da994313d7ed0d192028bc7c228b081604051610eb79190612c43565b60007f47e79534a245952e8b16893a336b85a3d9ea9fa8c573f3d803afb92a79469218611d48610c0a565b30604051602001611d5b93929190612e7e565b60405160208183030381529060405280519060200120905090565b611d7e611eed565b806001600354611d8e9190613285565b1015611dac5760405162461bcd60e51b815260040161071190612f84565b6001600160a01b03821615801590611dce57506001600160a01b038216600114155b611dea5760405162461bcd60e51b815260040161071190612fc2565b6001600160a01b03838116600090815260026020526040902054811690831614611e265760405162461bcd60e51b81526004016107119061320f565b6001600160a01b03828116600081815260026020526040808220805488861684529183208054929095166001600160a01b03199283161790945591815282549091169091556003805491611e79836132bf565b91905055507ff8d49fc529812e9a7c5c50e69c20f0dccc0db8fa95c98bc58cc9a4f1c1299eaf82604051611ead9190612c43565b60405180910390a18060045414611ec757611ec781610ec2565b505050565b604051806040016040528060058152602001640312e332e360dc1b81525081565b333014611f0c5760405162461bcd60e51b815260040161071190613117565b565b600082611f1d57506000610d92565b6000611f298385613266565b905082611f368583613246565b14611f4057600080fd5b9392505050565b60419081029190910160208101516040820151919092015160ff1692565b600080611f72838561322e565b905083811015611f4057600080fd5b60006001836001811115611fa557634e487b7160e01b600052602160045260246000fd5b1415611fbe576000808551602087018986f49050611fce565b600080855160208701888a87f190505b95945050505050565b7f4a204f620c8c5ccdca3fd54d003badd85ba500436a431f0cbda4f558c93c34c85490565b60008183101561200c5781611f40565b5090919050565b60008282111561202257600080fd5b6000610cc58385613285565b6000806001600160a01b038316156120465782612048565b325b90506001600160a01b0384166120c35761207a3a8610612068573a61206a565b855b6120748989611f65565b90611f0e565b6040519092506001600160a01b0382169083156108fc029084906000818181858888f193505050506120be5760405162461bcd60e51b815260040161071190613000565b6120fa565b6120d1856120748989611f65565b91506120de84828461239b565b6120fa5760405162461bcd60e51b81526004016107119061303e565b5095945050505050565b6000600455815181111561212a5760405162461bcd60e51b815260040161071190612f84565b600181101561214b5760405162461bcd60e51b8152600401610711906130d9565b600160005b835181101561227a57600084828151811061217b57634e487b7160e01b600052603260045260246000fd5b6020026020010151905060006001600160a01b0316816001600160a01b0316141580156121b257506001600160a01b038116600114155b80156121c757506001600160a01b0381163014155b80156121e55750806001600160a01b0316836001600160a01b031614155b6122015760405162461bcd60e51b815260040161071190612fc2565b6001600160a01b0381811660009081526002602052604090205416156122395760405162461bcd60e51b815260040161071190613155565b6001600160a01b03928316600090815260026020526040902080546001600160a01b031916938216939093179092558061227281613311565b915050612150565b506001600160a01b0316600090815260026020526040902080546001600160a01b03191660011790559051600355600455565b7f6c9a6c4a39284e37ed1cf53d337577d14212a4870fb976a4366c693b939918d555565b600160008190526020527fcc69885fda6bcc1a4ace058b4a62bf5e179ea78fd58a1ccd71c22cc9b688792f546001600160a01b0316156123235760405162461bcd60e51b81526004016107119061305d565b6001600081905260208190527fcc69885fda6bcc1a4ace058b4a62bf5e179ea78fd58a1ccd71c22cc9b688792f80546001600160a01b03191690911790556001600160a01b0382161561080d5761237f8260008360015a611f81565b61080d5760405162461bcd60e51b815260040161071190612fe1565b60008063a9059cbb84846040516024016123b6929190612c57565b6040516020818303038152906040529060e01b6020820180516001600160e01b0383818316178352505050509050602060008251602084016000896127105a03f13d801561240f57602081146124175760009350612422565b819350612422565b600051158215171593505b5050509392505050565b8035610bcd81613358565b60008083601f840112612448578182fd5b5081356001600160401b0381111561245e578182fd5b60208301915083602082850101111561247657600080fd5b9250929050565b600082601f83011261248d578081fd5b81356001600160401b03808211156124a7576124a7613342565b604051601f8301601f1916810160200182811182821017156124cb576124cb613342565b6040528281528483016020018610156124e2578384fd5b82602086016020830137918201602001929092529392505050565b803560028110610bcd57600080fd5b60006020828403121561251d578081fd5b8135611f4081613358565b6000806040838503121561253a578081fd5b823561254581613358565b9150602083013561255581613358565b809150509250929050565b600080600060608486031215612574578081fd5b833561257f81613358565b9250602084013561258f81613358565b9150604084013561259f81613358565b809150509250925092565b6000806000606084860312156125be578283fd5b83356125c981613358565b925060208401356125d981613358565b929592945050506040919091013590565b600080604083850312156125fc578182fd5b823561260781613358565b946020939093013593505050565b60008060408385031215612627578182fd5b823561263281613358565b915060208301356001600160401b0381111561264c578182fd5b6126588582860161247d565b9150509250929050565b600080600080600060808688031215612679578081fd5b853561268481613358565b94506020860135935060408601356001600160401b038111156126a5578182fd5b6126b188828901612437565b90945092506126c49050606087016124fd565b90509295509295909350565b60008060008060008060008060008060006101408c8e0312156126f1578586fd5b6126fa8c61242c565b9a5060208c013599506001600160401b038060408e0135111561271b578687fd5b61272b8e60408f01358f01612437565b909a50985061273c60608e016124fd565b975060808d0135965060a08d0135955060c08d0135945061275f60e08e0161242c565b935061276e6101008e0161242c565b9250806101208e01351115612781578182fd5b506127938d6101208e01358e0161247d565b90509295989b509295989b9093969950565b60008060008060008060008060008060006101408c8e0312156127c6578485fd5b8b356127d181613358565b9a5060208c0135995060408c01356001600160401b038111156127f2578586fd5b6127fe8e828f01612437565b909a509850612811905060608d016124fd565b965060808c0135955060a08c0135945060c08c0135935060e08c013561283681613358565b92506101008c013561284781613358565b809250506101208c013590509295989b509295989b9093969950565b60008060008060808587031215612878578182fd5b843561288381613358565b93506020850135925060408501356001600160401b038111156128a4578283fd5b6128b08782880161247d565b9250506128bf606086016124fd565b905092959194509250565b6000806000806000806000806000806101008b8d0312156128e9578384fd5b8a356001600160401b03808211156128ff578586fd5b818d0191508d601f830112612912578586fd5b813581811115612920578687fd5b8e60208083028501011115612933578687fd5b60208381019d50909b508d0135995061294e60408e0161242c565b985060608d0135915080821115612963578586fd5b506129708d828e01612437565b9097509550612983905060808c0161242c565b935061299160a08c0161242c565b925060c08b013591506129a660e08c0161242c565b90509295989b9194979a5092959850565b6000602082840312156129c8578081fd5b81518015158114611f40578182fd5b6000602082840312156129e8578081fd5b5035919050565b600080600060608486031215612a03578081fd5b8335925060208401356001600160401b0380821115612a20578283fd5b612a2c8783880161247d565b93506040860135915080821115612a41578283fd5b50612a4e8682870161247d565b9150509250925092565b60008060008060808587031215612a6d578182fd5b8435935060208501356001600160401b0380821115612a8a578384fd5b612a968883890161247d565b94506040870135915080821115612aab578384fd5b50612ab88782880161247d565b949793965093946060013593505050565b600060208284031215612ada578081fd5b81516001600160e01b031981168114611f40578182fd5b60008060408385031215612b03578182fd5b50508035926020909101359150565b6001600160a01b03169052565b6000815180845260208085019450808401835b83811015612b575781516001600160a01b031687529582019590820190600101612b32565b509495945050505050565b60008151808452815b81811015612b8757602081850181015186830182015201612b6b565b81811115612b985782602083870101525b50601f01601f19169290920160200192915050565b60028110612bcb57634e487b7160e01b600052602160045260246000fd5b9052565b6001600160f81b031994851681529290931660018301526002820152602281019190915260420190565b6000828483379101908152919050565b7f19457468657265756d205369676e6564204d6573736167653a0a3332000000008152601c810191909152603c0190565b90815260200190565b6001600160a01b0391909116815260200190565b6001600160a01b03929092168252602082015260400190565b6001600160a01b038d168152602081018c90526101606040820181905281018a905260006101808b8d8285013781818d85010152601f19601f8d01168301612cbb606085018d612bad565b8a60808501528960a08501528860c0850152612cda60e0850189612b12565b612ce8610100850188612b12565b8184820301610120850152612cff82820187612b62565b92505050612d11610140830184612b12565b9d9c50505050505050505050505050565b6080808252810185905260008660a08301825b88811015612d65578235612d4881613358565b6001600160a01b0316825260209283019290910190600101612d35565b50602084019690965250506001600160a01b039283166040820152911660609091015292915050565b600060208252611f406020830184612b1f565b600060408252612db46040830185612b1f565b905060018060a01b03831660208301529392505050565b901515815260200190565b6000831515825260406020830152610cc56040830184612b62565b8b81526001600160a01b038b81166020830152604082018b9052606082018a9052610160820190612e25608084018b612bad565b60a083019890985260c082019690965260e0810194909452918516610100840152909316610120820152610140019190915295945050505050565b9182521515602082015260400190565b918252602082015260400190565b92835260208301919091526001600160a01b0316604082015260600190565b93845260ff9290921660208401526040830152606082015260800190565b6001600160e01b031991909116815260200190565b600060208252611f406020830184612b62565b600060408252612ef66040830185612b62565b8281036020840152611fce8185612b62565b602080825260059082015264475330323360d81b604082015260600190565b60208082526005908201526423a998191b60d91b604082015260600190565b60208082526005908201526411d4cc0c8d60da1b604082015260600190565b602080825260059082015264047533033360dc1b604082015260600190565b602080825260059082015264475332303160d81b604082015260600190565b60208082526005908201526423a998191960d91b604082015260600190565b602080825260059082015264475332303360d81b604082015260600190565b602080825260059082015264047533030360dc1b604082015260600190565b602080825260059082015264475330313160d81b604082015260600190565b602080825260059082015264475331303360d81b604082015260600190565b60208082526005908201526423a998189960d91b604082015260600190565b602080825260059082015264047533130360dc1b604082015260600190565b602080825260059082015264475330303160d81b604082015260600190565b602080825260059082015264475330313360d81b604082015260600190565b602080825260059082015264047533031360dc1b604082015260600190565b60208082526005908201526423a999181960d91b604082015260600190565b60208082526005908201526411d4cc4c0d60da1b604082015260600190565b602080825260059082015264475330333160d81b604082015260600190565b602080825260059082015264475330323560d81b604082015260600190565b60208082526005908201526411d4cc8c0d60da1b604082015260600190565b60208082526005908201526423a998981960d91b604082015260600190565b602080825260059082015264047533330360dc1b604082015260600190565b602080825260059082015264475330323160d81b604082015260600190565b602080825260059082015264475331303160d81b604082015260600190565b602080825260059082015264047533032360dc1b604082015260600190565b602080825260059082015264475332303560d81b604082015260600190565b600082198211156132415761324161332c565b500190565b60008261326157634e487b7160e01b81526012600452602481fd5b500490565b60008160001904831182151516156132805761328061332c565b500290565b6000828210156132975761329761332c565b500390565b600060ff821660ff8416808210156132b6576132b661332c565b90039392505050565b6000816132ce576132ce61332c565b506000190190565b6002810460018216806132ea57607f821691505b6020821081141561330b57634e487b7160e01b600052602260045260246000fd5b50919050565b60006000198214156133255761332561332c565b5060010190565b634e487b7160e01b600052601160045260246000fd5b634e487b7160e01b600052604160045260246000fd5b6001600160a01b038116811461336d57600080fd5b5056fea26469706673582212205abbe8cf3408d844ffc361842ec1a74932003979204643a66db8f6459f619af364736f6c63430008000033",
  "immutableReferences": {},
  "source": "/**\n * \n */\n\npragma solidity >=0.7.0 <0.9.0;\n\n// \nimport \"./base/ModuleManager.sol\";\nimport \"./base/OwnerManager.sol\";\nimport \"./base/FallbackManager.sol\";\nimport \"./base/GuardManager.sol\";\nimport \"./common/EtherPaymentFallback.sol\";\nimport \"./common/Singleton.sol\";\nimport \"./common/SignatureDecoder.sol\";\nimport \"./common/SecuredTokenTransfer.sol\";\nimport \"./common/StorageAccessible.sol\";\nimport \"./interfaces/ISignatureValidator.sol\";\nimport \"./external/GnosisSafeMath.sol\";\n\n/**\n * GnosisSafe\n */\ncontract GnosisSafe is\n    EtherPaymentFallback,\n    Singleton,\n    ModuleManager,\n    OwnerManager,\n    SignatureDecoder,\n    SecuredTokenTransfer,\n    ISignatureValidatorConstants,\n    FallbackManager,\n    StorageAccessible,\n    GuardManager\n{\n    // uint256GnosisSafeMath\n    using GnosisSafeMath for uint256;\n\n    string public constant VERSION = \"1.3.0\";\n\n    bytes32 private constant DOMAIN_SEPARATOR_TYPEHASH = 0x47e79534a245952e8b16893a336b85a3d9ea9fa8c573f3d803afb92a79469218;\n    bytes32 private constant SAFE_TX_TYPEHASH = 0xbb8310d486368db6bd6f849402fdd73ad53d316b5a4b2644ad6efe0f941286d8;\n    // \n    event SafeSetup(address indexed initiator, address[] owners, uint256 threshold, address initializer, address fallbackHandler);\n    event ApproveHash(bytes32 indexed approvedHash, address indexed owner);\n    event SignMsg(bytes32 indexed msgHash);\n    event ExecutionFailure(bytes32 txHash, uint256 payment);\n    event ExecutionSuccess(bytes32 txHash, uint256 payment);\n    // \n    uint256 public nonce;\n    bytes32 private _deprecatedDomainSeparator;\n    // Wallet\n    string public walletName;\n    // Mapping to keep track of all message hashes that have been approved by ALL REQUIRED owners\n    mapping(bytes32 => uint256) public signedMessages;\n    // Mapping to keep track of all hashes (message or transaction) that have been approved by ANY owners\n    mapping(address => mapping(bytes32 => uint256)) public approvedHashes;\n\n    /**\n     * \n     */\n    constructor(string memory walletName_) {\n        // By setting the threshold it is not possible to call setup anymore,\n        // so we create a Safe with 0 owners and threshold 1.\n        // \n        walletName = walletName_;\n        threshold = 1;\n    }\n\n    /** \n     * \n     * @param _owners List of Safe owners.\n     * @param _threshold Number of required confirmations for a Safe transaction.\n     * @param to Contract address for optional delegate call.\n     * @param data Data payload for optional delegate call.\n     * @param fallbackHandler Handler for fallback calls to this contract\n     * @param paymentToken Token that should be used for the payment (0 is ETH)\n     * @param payment Value that should be paid\n     * @param paymentReceiver Address that should receive the payment (or 0 if tx.origin)\n     */\n    function setup(\n        address[] calldata _owners,\n        uint256 _threshold,\n        address to,\n        bytes calldata data,\n        address fallbackHandler,\n        address paymentToken,\n        uint256 payment,\n        address payable paymentReceiver\n    ) external {\n        // setupOwners checks if the Threshold is already set, therefore preventing that this method is called twice\n        setupOwners(_owners, _threshold);\n        if (fallbackHandler != address(0)) internalSetFallbackHandler(fallbackHandler);\n        // As setupOwners can only be called if the contract has not been initialized we don't need a check for setupModules\n        setupModules(to, data);\n\n        if (payment > 0) {\n            // To avoid running into issues with EIP-170 we reuse the handlePayment function (to avoid adjusting code of that has been verified we do not adjust the method itself)\n            // baseGas = 0, gasPrice = 1 and gas = payment => amount = (payment + 0) * 1 = payment\n            handlePayment(payment, 0, 1, paymentToken, paymentReceiver);\n        }\n        emit SafeSetup(msg.sender, _owners, _threshold, to, fallbackHandler);\n    }\n\n    /**\n     * \n     *      Note: The fees are always transferred, even if the user transaction fails.\n     * @param to Destination address of Safe transaction.\n     * @param value Ether value of Safe transaction.\n     * @param data Data payload of Safe transaction.\n     * @param operation Operation type of Safe transaction.\n     * @param safeTxGas Gas that should be used for the Safe transaction.\n     * @param baseGas Gas costs that are independent of the transaction execution(e.g. base transaction fee, signature check, payment of the refund)\n     * @param gasPrice Gas price that should be used for the payment calculation.\n     * @param gasToken Token address (or 0 if ETH) that is used for the payment.\n     * @param refundReceiver Address of receiver of gas payment (or 0 if tx.origin).\n     * @param signatures Packed signature data ({bytes32 r}{bytes32 s}{uint8 v})\n    */\n    function execTransaction(\n        address to,\n        uint256 value,\n        bytes calldata data,\n        Enum.Operation operation,\n        uint256 safeTxGas,\n        uint256 baseGas,\n        uint256 gasPrice,\n        address gasToken,\n        address payable refundReceiver,\n        bytes memory signatures\n    ) public payable virtual returns (bool success) {\n        bytes32 txHash;\n        // Use scope here to limit variable lifetime and prevent `stack too deep` errors\n        {\n            bytes memory txHashData =\n                encodeTransactionData(\n                    // Transaction info\n                    to,\n                    value,\n                    data,\n                    operation,\n                    safeTxGas,\n                    // Payment info\n                    baseGas,\n                    gasPrice,\n                    gasToken,\n                    refundReceiver,\n                    // Signature info\n                    nonce\n                );\n            // Increase nonce and execute transaction.\n            nonce++;\n            // \n            txHash = keccak256(txHashData);\n            // \n            checkSignatures(txHash, txHashData, signatures);\n        }\n        address guard = getGuard();\n        {\n            if (guard != address(0)) {\n                Guard(guard).checkTransaction(\n                    // Transaction info\n                    to,\n                    value,\n                    data,\n                    operation,\n                    safeTxGas,\n                    // Payment info\n                    baseGas,\n                    gasPrice,\n                    gasToken,\n                    refundReceiver,\n                    // Signature info\n                    signatures,\n                    msg.sender\n                );\n            }\n        }\n        // We require some gas to emit the events (at least 2500) after the execution and some to perform code until the execution (500)\n        // We also include the 1/64 in the check that is not send along with a call to counteract potential shortings because of EIP-150\n        require(gasleft() >= ((safeTxGas * 64) / 63).max(safeTxGas + 2500) + 500, \"GS010\");\n        // Use scope here to limit variable lifetime and prevent `stack too deep` errors\n        {\n            uint256 gasUsed = gasleft();\n            // If the gasPrice is 0 we assume that nearly all available gas can be used (it is always more than safeTxGas)\n            // We only substract 2500 (compared to the 3000 before) to ensure that the amount passed is still higher than safeTxGas\n            success = execute(to, value, data, operation, gasPrice == 0 ? (gasleft() - 2500) : safeTxGas);\n            gasUsed = gasUsed.sub(gasleft());\n            // If no safeTxGas and no gasPrice was set (e.g. both are 0), then the internal tx is required to be successful\n            // This makes it possible to use `estimateGas` without issues, as it searches for the minimum gas where the tx doesn't revert\n            require(success || safeTxGas != 0 || gasPrice != 0, \"GS013\");\n            // We transfer the calculated tx costs to the tx.origin to avoid sending it to intermediate contracts that have made calls\n            uint256 payment = 0;\n            if (gasPrice > 0) {\n                payment = handlePayment(gasUsed, baseGas, gasPrice, gasToken, refundReceiver);\n            }\n            if (success) emit ExecutionSuccess(txHash, payment);\n            else emit ExecutionFailure(txHash, payment);\n        }\n        {\n            if (guard != address(0)) {\n                Guard(guard).checkAfterExecution(txHash, success);\n            }\n        }\n    }\n\n    /**\n     * \n     */\n    function handlePayment(\n        uint256 gasUsed,\n        uint256 baseGas,\n        uint256 gasPrice,\n        address gasToken,\n        address payable refundReceiver\n    ) private returns (uint256 payment) {\n        // solhint-disable-next-line avoid-tx-origin\n        address payable receiver = refundReceiver == address(0) ? payable(tx.origin) : refundReceiver;\n        if (gasToken == address(0)) {\n            // For ETH we will only adjust the gas price to not be higher than the actual used gas price\n            payment = gasUsed.add(baseGas).mul(gasPrice < tx.gasprice ? gasPrice : tx.gasprice);\n            require(receiver.send(payment), \"GS011\");\n        } else {\n            payment = gasUsed.add(baseGas).mul(gasPrice);\n            require(transferToken(gasToken, receiver, payment), \"GS012\");\n        }\n    }\n\n    /**\n     * \n     * @param dataHash Hash of the data (could be either a message hash or transaction hash)\n     * @param data That should be signed (this is passed to an external validator contract)\n     * @param signatures Signature data that should be verified. Can be ECDSA signature, contract signature (EIP-1271) or approved hash.\n     */\n    function checkSignatures(\n        bytes32 dataHash,\n        bytes memory data,\n        bytes memory signatures\n    ) public view {\n        // Load threshold to avoid multiple storage loads\n        uint256 _threshold = threshold;\n        // Check that a threshold is set\n        require(_threshold > 0, \"GS001\");\n        checkNSignatures(dataHash, data, signatures, _threshold);\n    }\n\n    /**\n     * \n     * @param dataHash Hash of the data (could be either a message hash or transaction hash)\n     * @param data That should be signed (this is passed to an external validator contract)\n     * @param signatures Signature data that should be verified. Can be ECDSA signature, contract signature (EIP-1271) or approved hash.\n     * @param requiredSignatures Amount of required valid signatures.\n     */\n    function checkNSignatures(\n        bytes32 dataHash,\n        bytes memory data,\n        bytes memory signatures,\n        uint256 requiredSignatures\n    ) public view {\n        // Check that the provided signature data is not too short\n        require(signatures.length >= requiredSignatures.mul(65), \"GS020\");\n        // There cannot be an owner with address 0.\n        address lastOwner = address(0);\n        address currentOwner;\n        uint8 v;\n        bytes32 r;\n        bytes32 s;\n        uint256 i;\n        for (i = 0; i < requiredSignatures; i++) {\n            (v, r, s) = signatureSplit(signatures, i);\n            if (v == 0) {\n                // If v is 0 then it is a contract signature\n                // When handling contract signatures the address of the contract is encoded into r\n                currentOwner = address(uint160(uint256(r)));\n\n                // Check that signature data pointer (s) is not pointing inside the static part of the signatures bytes\n                // This check is not completely accurate, since it is possible that more signatures than the threshold are send.\n                // Here we only check that the pointer is not pointing inside the part that is being processed\n                require(uint256(s) >= requiredSignatures.mul(65), \"GS021\");\n\n                // Check that signature data pointer (s) is in bounds (points to the length of data -> 32 bytes)\n                require(uint256(s).add(32) <= signatures.length, \"GS022\");\n\n                // Check if the contract signature is in bounds: start of data is s + 32 and end is start + signature length\n                uint256 contractSignatureLen;\n                // solhint-disable-next-line no-inline-assembly\n                assembly {\n                    contractSignatureLen := mload(add(add(signatures, s), 0x20))\n                }\n                require(uint256(s).add(32).add(contractSignatureLen) <= signatures.length, \"GS023\");\n\n                // Check signature\n                bytes memory contractSignature;\n                // solhint-disable-next-line no-inline-assembly\n                assembly {\n                    // The signature data for contract signatures is appended to the concatenated signatures and the offset is stored in s\n                    contractSignature := add(add(signatures, s), 0x20)\n                }\n                require(ISignatureValidator(currentOwner).isValidSignature(data, contractSignature) == EIP1271_MAGIC_VALUE, \"GS024\");\n            } else if (v == 1) {\n                // If v is 1 then it is an approved hash\n                // When handling approved hashes the address of the approver is encoded into r\n                currentOwner = address(uint160(uint256(r)));\n                // Hashes are automatically approved by the sender of the message or when they have been pre-approved via a separate transaction\n                require(msg.sender == currentOwner || approvedHashes[currentOwner][dataHash] != 0, \"GS025\");\n            } else if (v > 30) {\n                // If v > 30 then default va (27,28) has been adjusted for eth_sign flow\n                // To support eth_sign and similar we adjust v and hash the messageHash with the Ethereum message prefix before applying ecrecover\n                currentOwner = ecrecover(keccak256(abi.encodePacked(\"\\x19Ethereum Signed Message:\\n32\", dataHash)), v - 4, r, s);\n            } else {\n                // Default is the ecrecover flow with the provided data hash\n                // Use ecrecover with the messageHash for EOA signatures\n                currentOwner = ecrecover(dataHash, v, r, s);\n            }\n            require(currentOwner > lastOwner && owners[currentOwner] != address(0) && currentOwner != SENTINEL_OWNERS, \"GS026\");\n            lastOwner = currentOwner;\n        }\n    }\n\n    /** \n     * @dev Allows to estimate a Safe transaction.\n     *      This method is only meant for estimation purpose, therefore the call will always revert and encode the result in the revert data.\n     *      Since the `estimateGas` function includes refunds, call this method to get an estimated of the costs that are deducted from the safe with `execTransaction`\n     * @param to Destination address of Safe transaction.\n     * @param value Ether value of Safe transaction.\n     * @param data Data payload of Safe transaction.\n     * @param operation Operation type of Safe transaction.\n     * @return Estimate without refunds and overhead fees (base transaction and payload data gas costs).\n     * @notice Deprecated in favor of common/StorageAccessible.sol and will be removed in next version.\n     */\n    function requiredTxGas(\n        address to,\n        uint256 value,\n        bytes calldata data,\n        Enum.Operation operation\n    ) external returns (uint256) {\n        uint256 startGas = gasleft();\n        // We don't provide an error message here, as we use it to return the estimate\n        require(execute(to, value, data, operation, gasleft()));\n        uint256 requiredGas = startGas - gasleft();\n        // Convert response to string and return via error message\n        revert(string(abi.encodePacked(requiredGas)));\n    }\n\n    /**  \n     * @dev Marks a hash as approved. This can be used to validate a hash that is used by a signature.\n     * @param hashToApprove The hash that should be marked as approved for signatures that are verified by this contract.\n     */\n    function approveHash(bytes32 hashToApprove) external {\n        require(owners[msg.sender] != address(0), \"GS030\");\n        approvedHashes[msg.sender][hashToApprove] = 1;\n        emit ApproveHash(hashToApprove, msg.sender);\n    }\n\n    /**\n     * ID\n     */\n    function getChainId() public view returns (uint256) {\n        uint256 id;\n        // solhint-disable-next-line no-inline-assembly\n        assembly {\n            id := chainid()\n        }\n        return id;\n    }\n\n    /**\n     * \n     */\n    function getWalletName() public view returns (string memory) {\n        return walletName;\n    }\n\n    function domainSeparator() public view returns (bytes32) {\n        return keccak256(abi.encode(DOMAIN_SEPARATOR_TYPEHASH, getChainId(), this));\n    }\n\n    /**\n     * \n     * @dev Returns the bytes that are hashed to be signed by owners.\n     * @param to Destination address.\n     * @param value Ether value.\n     * @param data Data payload.\n     * @param operation Operation type.\n     * @param safeTxGas Gas that should be used for the safe transaction.\n     * @param baseGas Gas costs for that are independent of the transaction execution(e.g. base transaction fee, signature check, payment of the refund)\n     * @param gasPrice Maximum gas price that should be used for this transaction.\n     * @param gasToken Token address (or 0 if ETH) that is used for the payment.\n     * @param refundReceiver Address of receiver of gas payment (or 0 if tx.origin).\n     * @param _nonce Transaction nonce.\n     * @return Transaction hash bytes.\n     */\n    function encodeTransactionData(\n        address to,\n        uint256 value,\n        bytes calldata data,\n        Enum.Operation operation,\n        uint256 safeTxGas,\n        uint256 baseGas,\n        uint256 gasPrice,\n        address gasToken,\n        address refundReceiver,\n        uint256 _nonce\n    ) public view returns (bytes memory) {\n        // \n        bytes32 safeTxHash =\n            keccak256(\n                abi.encode(\n                    SAFE_TX_TYPEHASH,\n                    to,\n                    value,\n                    keccak256(data),\n                    operation,\n                    safeTxGas,\n                    baseGas,\n                    gasPrice,\n                    gasToken,\n                    refundReceiver,\n                    _nonce\n                )\n            );\n        return abi.encodePacked(bytes1(0x19), bytes1(0x01), domainSeparator(), safeTxHash);\n    }\n\n    /**\n     * \n     * @param to Destination address.\n     * @param value Ether value.\n     * @param data Data payload.\n     * @param operation Operation type.\n     * @param safeTxGas Fas that should be used for the safe transaction.\n     * @param baseGas Gas costs for data used to trigger the safe transaction.\n     * @param gasPrice Maximum gas price that should be used for this transaction.\n     * @param gasToken Token address (or 0 if ETH) that is used for the payment.\n     * @param refundReceiver Address of receiver of gas payment (or 0 if tx.origin).\n     * @param _nonce Transaction nonce.\n     * @return Transaction hash.\n     */\n    function getTransactionHash(\n        address to,\n        uint256 value,\n        bytes calldata data,\n        Enum.Operation operation,\n        uint256 safeTxGas,\n        uint256 baseGas,\n        uint256 gasPrice,\n        address gasToken,\n        address refundReceiver,\n        uint256 _nonce\n    ) public view returns (bytes32) {\n        // \n        return keccak256(encodeTransactionData(to, value, data, operation, safeTxGas, baseGas, gasPrice, gasToken, refundReceiver, _nonce));\n    }\n}",
  "sourcePath": "/Users/harukikondo/git/fundraiser-dapp/contracts/safeContracts/GnosisSafe.sol",
  "compiler": {
    "name": "solc",
    "version": "0.8.0+commit.c7dfd78e.Emscripten.clang"
  },
  "schemaVersion": "3.2.0",
  "updatedAt": "2022-06-04T09:30:29.956Z",
  "devdoc": {
    "kind": "dev",
    "methods": {
      "addOwnerWithThreshold(address,uint256)": {
        "details": "Allows to add a new owner to the Safe and update the threshold at the same time.      This can only be done via a Safe transaction.",
        "params": {
          "_threshold": "New threshold.",
          "owner": "New owner address."
        }
      },
      "approveHash(bytes32)": {
        "details": "Marks a hash as approved. This can be used to validate a hash that is used by a signature.",
        "params": {
          "hashToApprove": "The hash that should be marked as approved for signatures that are verified by this contract."
        }
      },
      "changeThreshold(uint256)": {
        "details": "Allows to update the number of required confirmations by Safe owners.      This can only be done via a Safe transaction.",
        "params": {
          "_threshold": "New threshold."
        }
      },
      "checkNSignatures(bytes32,bytes,bytes,uint256)": {
        "params": {
          "data": "That should be signed (this is passed to an external validator contract)",
          "dataHash": "Hash of the data (could be either a message hash or transaction hash)",
          "requiredSignatures": "Amount of required valid signatures.",
          "signatures": "Signature data that should be verified. Can be ECDSA signature, contract signature (EIP-1271) or approved hash."
        }
      },
      "checkSignatures(bytes32,bytes,bytes)": {
        "params": {
          "data": "That should be signed (this is passed to an external validator contract)",
          "dataHash": "Hash of the data (could be either a message hash or transaction hash)",
          "signatures": "Signature data that should be verified. Can be ECDSA signature, contract signature (EIP-1271) or approved hash."
        }
      },
      "disableModule(address,address)": {
        "details": "Allows to remove a module from the whitelist.      This can only be done via a Safe transaction.",
        "params": {
          "module": "Module to be removed.",
          "prevModule": "Module that pointed to the module to be removed in the linked list"
        }
      },
      "enableModule(address)": {
        "details": "Allows to add a module to the whitelist.      This can only be done via a Safe transaction.",
        "params": {
          "module": "Module to be whitelisted."
        }
      },
      "encodeTransactionData(address,uint256,bytes,uint8,uint256,uint256,uint256,address,address,uint256)": {
        "details": "Returns the bytes that are hashed to be signed by owners.",
        "params": {
          "_nonce": "Transaction nonce.",
          "baseGas": "Gas costs for that are independent of the transaction execution(e.g. base transaction fee, signature check, payment of the refund)",
          "data": "Data payload.",
          "gasPrice": "Maximum gas price that should be used for this transaction.",
          "gasToken": "Token address (or 0 if ETH) that is used for the payment.",
          "operation": "Operation type.",
          "refundReceiver": "Address of receiver of gas payment (or 0 if tx.origin).",
          "safeTxGas": "Gas that should be used for the safe transaction.",
          "to": "Destination address.",
          "value": "Ether value."
        },
        "returns": {
          "_0": "Transaction hash bytes."
        }
      },
      "execTransaction(address,uint256,bytes,uint8,uint256,uint256,uint256,address,address,bytes)": {
        "params": {
          "baseGas": "Gas costs that are independent of the transaction execution(e.g. base transaction fee, signature check, payment of the refund)",
          "data": "Data payload of Safe transaction.",
          "gasPrice": "Gas price that should be used for the payment calculation.",
          "gasToken": "Token address (or 0 if ETH) that is used for the payment.",
          "operation": "Operation type of Safe transaction.",
          "refundReceiver": "Address of receiver of gas payment (or 0 if tx.origin).",
          "safeTxGas": "Gas that should be used for the Safe transaction.",
          "signatures": "Packed signature data ({bytes32 r}{bytes32 s}{uint8 v})",
          "to": "Destination address of Safe transaction.",
          "value": "Ether value of Safe transaction."
        }
      },
      "execTransactionFromModule(address,uint256,bytes,uint8)": {
        "details": "Allows a Module to execute a Safe transaction without any further confirmations.",
        "params": {
          "data": "Data payload of module transaction.",
          "operation": "Operation type of module transaction.",
          "to": "Destination address of module transaction.",
          "value": "Ether value of module transaction."
        }
      },
      "execTransactionFromModuleReturnData(address,uint256,bytes,uint8)": {
        "details": "Allows a Module to execute a Safe transaction without any further confirmations and return data",
        "params": {
          "data": "Data payload of module transaction.",
          "operation": "Operation type of module transaction.",
          "to": "Destination address of module transaction.",
          "value": "Ether value of module transaction."
        }
      },
      "getModulesPaginated(address,uint256)": {
        "details": "Returns array of modules.",
        "params": {
          "pageSize": "Maximum number of modules that should be returned.",
          "start": "Start of the page."
        },
        "returns": {
          "array": "Array of modules.",
          "next": "Start of the next page."
        }
      },
      "getOwners()": {
        "details": "Returns array of owners.",
        "returns": {
          "_0": "Array of Safe owners."
        }
      },
      "getStorageAt(uint256,uint256)": {
        "details": "Reads `length` bytes of storage in the currents contract",
        "params": {
          "length": "- the number of words (32 bytes) of data to read",
          "offset": "- the offset in the current contract's storage in words to start reading from"
        },
        "returns": {
          "_0": "the bytes that were read."
        }
      },
      "getTransactionHash(address,uint256,bytes,uint8,uint256,uint256,uint256,address,address,uint256)": {
        "params": {
          "_nonce": "Transaction nonce.",
          "baseGas": "Gas costs for data used to trigger the safe transaction.",
          "data": "Data payload.",
          "gasPrice": "Maximum gas price that should be used for this transaction.",
          "gasToken": "Token address (or 0 if ETH) that is used for the payment.",
          "operation": "Operation type.",
          "refundReceiver": "Address of receiver of gas payment (or 0 if tx.origin).",
          "safeTxGas": "Fas that should be used for the safe transaction.",
          "to": "Destination address.",
          "value": "Ether value."
        },
        "returns": {
          "_0": "Transaction hash."
        }
      },
      "isModuleEnabled(address)": {
        "details": "Returns if an module is enabled",
        "returns": {
          "_0": "True if the module is enabled"
        }
      },
      "removeOwner(address,address,uint256)": {
        "details": "Allows to remove an owner from the Safe and update the threshold at the same time.      This can only be done via a Safe transaction.",
        "params": {
          "_threshold": "New threshold.",
          "owner": "Owner address to be removed.",
          "prevOwner": "Owner that pointed to the owner to be removed in the linked list"
        }
      },
      "requiredTxGas(address,uint256,bytes,uint8)": {
        "details": "Allows to estimate a Safe transaction.      This method is only meant for estimation purpose, therefore the call will always revert and encode the result in the revert data.      Since the `estimateGas` function includes refunds, call this method to get an estimated of the costs that are deducted from the safe with `execTransaction`",
        "params": {
          "data": "Data payload of Safe transaction.",
          "operation": "Operation type of Safe transaction.",
          "to": "Destination address of Safe transaction.",
          "value": "Ether value of Safe transaction."
        },
        "returns": {
          "_0": "Estimate without refunds and overhead fees (base transaction and payload data gas costs)."
        }
      },
      "setFallbackHandler(address)": {
        "details": "Allows to add a contract to handle fallback calls.      Only fallback calls without value and with data will be forwarded.      This can only be done via a Safe transaction.",
        "params": {
          "handler": "contract to handle fallback calls."
        }
      },
      "setGuard(address)": {
        "details": "Set a guard that checks transactions before execution",
        "params": {
          "guard": "The address of the guard to be used or the 0 address to disable the guard"
        }
      },
      "setup(address[],uint256,address,bytes,address,address,uint256,address)": {
        "params": {
          "_owners": "List of Safe owners.",
          "_threshold": "Number of required confirmations for a Safe transaction.",
          "data": "Data payload for optional delegate call.",
          "fallbackHandler": "Handler for fallback calls to this contract",
          "payment": "Value that should be paid",
          "paymentReceiver": "Address that should receive the payment (or 0 if tx.origin)",
          "paymentToken": "Token that should be used for the payment (0 is ETH)",
          "to": "Contract address for optional delegate call."
        }
      },
      "simulateAndRevert(address,bytes)": {
        "details": "Performs a delegatecall on a targetContract in the context of self. Internally reverts execution to avoid side effects (making it static). This method reverts with data equal to `abi.encode(bool(success), bytes(response))`. Specifically, the `returndata` after a call to this method will be: `success:bool || response.length:uint256 || response:bytes`.",
        "params": {
          "calldataPayload": "Calldata that should be sent to the target contract (encoded method name and arguments).",
          "targetContract": "Address of the contract containing the code to execute."
        }
      },
      "swapOwner(address,address,address)": {
        "details": "Allows to swap/replace an owner from the Safe with another address.      This can only be done via a Safe transaction.",
        "params": {
          "newOwner": "New owner address.",
          "oldOwner": "Owner address to be replaced.",
          "prevOwner": "Owner that pointed to the owner to be replaced in the linked list"
        }
      }
    },
    "version": 1
  },
  "userdoc": {
    "kind": "user",
    "methods": {
      "addOwnerWithThreshold(address,uint256)": {
        "notice": "ownerAdds the owner `owner` to the Safe and updates the threshold to `_threshold`."
      },
      "changeThreshold(uint256)": {
        "notice": "Changes the threshold of the Safe to `_threshold`."
      },
      "checkNSignatures(bytes32,bytes,bytes,uint256)": {
        "notice": ""
      },
      "checkSignatures(bytes32,bytes,bytes)": {
        "notice": ""
      },
      "constructor": {
        "notice": ""
      },
      "disableModule(address,address)": {
        "notice": "Disables the module `module` for the Safe."
      },
      "enableModule(address)": {
        "notice": "Enables the module `module` for the Safe."
      },
      "encodeTransactionData(address,uint256,bytes,uint8,uint256,uint256,uint256,address,address,uint256)": {
        "notice": ""
      },
      "execTransaction(address,uint256,bytes,uint8,uint256,uint256,uint256,address,address,bytes)": {
        "notice": "      Note: The fees are always transferred, even if the user transaction fails."
      },
      "execTransactionFromModule(address,uint256,bytes,uint8)": {
        "notice": ""
      },
      "getChainId()": {
        "notice": "ID"
      },
      "getOwners()": {
        "notice": "Owner"
      },
      "getStorageAt(uint256,uint256)": {
        "notice": " "
      },
      "getThreshold()": {
        "notice": ""
      },
      "getTransactionHash(address,uint256,bytes,uint8,uint256,uint256,uint256,address,address,uint256)": {
        "notice": ""
      },
      "getWalletName()": {
        "notice": ""
      },
      "isModuleEnabled(address)": {
        "notice": ""
      },
      "isOwner(address)": {
        "notice": "Owner"
      },
      "removeOwner(address,address,uint256)": {
        "notice": "ownerRemoves the owner `owner` from the Safe and updates the threshold to `_threshold`."
      },
      "requiredTxGas(address,uint256,bytes,uint8)": {
        "notice": "Deprecated in favor of common/StorageAccessible.sol and will be removed in next version."
      },
      "setGuard(address)": {
        "notice": "Guard"
      },
      "setup(address[],uint256,address,bytes,address,address,uint256,address)": {
        "notice": ""
      },
      "swapOwner(address,address,address)": {
        "notice": "OwnserReplaces the owner `oldOwner` in the Safe with `newOwner`."
      }
    },
    "notice": "GnosisSafe",
    "version": 1
  }
}