{
  "contractName": "GnosisSafeProxyFactory",
  "abi": [
    {
      "anonymous": false,
      "inputs": [
        {
          "indexed": false,
          "internalType": "contract GnosisSafeProxy",
          "name": "proxy",
          "type": "address"
        },
        {
          "indexed": false,
          "internalType": "address",
          "name": "singleton",
          "type": "address"
        }
      ],
      "name": "ProxyCreation",
      "type": "event"
    },
    {
      "inputs": [
        {
          "internalType": "address",
          "name": "singleton",
          "type": "address"
        },
        {
          "internalType": "bytes",
          "name": "data",
          "type": "bytes"
        }
      ],
      "name": "createProxy",
      "outputs": [
        {
          "internalType": "contract GnosisSafeProxy",
          "name": "proxy",
          "type": "address"
        }
      ],
      "stateMutability": "nonpayable",
      "type": "function"
    },
    {
      "inputs": [],
      "name": "proxyRuntimeCode",
      "outputs": [
        {
          "internalType": "bytes",
          "name": "",
          "type": "bytes"
        }
      ],
      "stateMutability": "pure",
      "type": "function",
      "constant": true
    },
    {
      "inputs": [],
      "name": "proxyCreationCode",
      "outputs": [
        {
          "internalType": "bytes",
          "name": "",
          "type": "bytes"
        }
      ],
      "stateMutability": "pure",
      "type": "function",
      "constant": true
    },
    {
      "inputs": [
        {
          "internalType": "address",
          "name": "_singleton",
          "type": "address"
        },
        {
          "internalType": "bytes",
          "name": "initializer",
          "type": "bytes"
        },
        {
          "internalType": "uint256",
          "name": "saltNonce",
          "type": "uint256"
        }
      ],
      "name": "createProxyWithNonce",
      "outputs": [
        {
          "internalType": "contract GnosisSafeProxy",
          "name": "proxy",
          "type": "address"
        }
      ],
      "stateMutability": "nonpayable",
      "type": "function"
    },
    {
      "inputs": [
        {
          "internalType": "address",
          "name": "_singleton",
          "type": "address"
        },
        {
          "internalType": "bytes",
          "name": "initializer",
          "type": "bytes"
        },
        {
          "internalType": "uint256",
          "name": "saltNonce",
          "type": "uint256"
        },
        {
          "internalType": "contract IProxyCreationCallback",
          "name": "callback",
          "type": "address"
        }
      ],
      "name": "createProxyWithCallback",
      "outputs": [
        {
          "internalType": "contract GnosisSafeProxy",
          "name": "proxy",
          "type": "address"
        }
      ],
      "stateMutability": "nonpayable",
      "type": "function"
    },
    {
      "inputs": [
        {
          "internalType": "address",
          "name": "_singleton",
          "type": "address"
        },
        {
          "internalType": "bytes",
          "name": "initializer",
          "type": "bytes"
        },
        {
          "internalType": "uint256",
          "name": "saltNonce",
          "type": "uint256"
        }
      ],
      "name": "calculateCreateProxyWithNonceAddress",
      "outputs": [
        {
          "internalType": "contract GnosisSafeProxy",
          "name": "proxy",
          "type": "address"
        }
      ],
      "stateMutability": "nonpayable",
      "type": "function"
    },
    {
      "inputs": [],
      "name": "proxysCount",
      "outputs": [
        {
          "internalType": "uint256",
          "name": "",
          "type": "uint256"
        }
      ],
      "stateMutability": "view",
      "type": "function",
      "constant": true
    },
    {
      "inputs": [
        {
          "internalType": "uint256",
          "name": "limit",
          "type": "uint256"
        },
        {
          "internalType": "uint256",
          "name": "offset",
          "type": "uint256"
        }
      ],
      "name": "proxys",
      "outputs": [
        {
          "internalType": "contract GnosisSafeProxy[]",
          "name": "coll",
          "type": "address[]"
        }
      ],
      "stateMutability": "view",
      "type": "function",
      "constant": true
    }
  ],
  "bytecode": "0x608060405234801561001057600080fd5b50610d41806100206000396000f3fe608060405234801561001057600080fd5b50600436106100885760003560e01c806361b69abd1161005b57806361b69abd146100fe5780637e074d9714610111578063addacc0f14610126578063d18af54d1461012e57610088565b80631688f0b91461008d5780631da17e85146100b65780632500510e146100d657806353e5d935146100e9575b600080fd5b6100a061009b3660046107a3565b610141565b6040516100ad919061091e565b60405180910390f35b6100c96100c4366004610864565b6101b3565b6040516100ad9190610932565b6100a06100e43660046106cf565b610318565b6100f1610395565b6040516100ad919061097f565b6100a061010c366004610755565b6103bf565b6101196104a2565b6040516100ad9190610a4b565b6100f16104a8565b6100a061013c3660046107fa565b6104ba565b600061014e848484610575565b8351909150156101735760008060008551602087016000865af1141561017357600080fd5b7f4f51faf6c4561ff95f067657e43439f0f856d97c04d9ec9070a6199ad418e23581856040516101a4929190610999565b60405180910390a19392505050565b60606101bd6104a2565b8211156101e55760405162461bcd60e51b81526004016101dc906109f0565b60405180910390fd5b6000826101f06104a2565b6101fa9190610a6c565b9050838110610209578361020b565b805b90506014811061021c57601461021e565b805b90508067ffffffffffffffff81111561024757634e487b7160e01b600052604160045260246000fd5b604051908082528060200260200182016040528015610270578160200160208202803683370190505b50915060005b8181101561031057600061028a8286610a54565b815481106102a857634e487b7160e01b600052603260045260246000fd5b9060005260206000200160009054906101000a90046001600160a01b03168382815181106102e657634e487b7160e01b600052603260045260246000fd5b6001600160a01b03909216602092830291909101909101528061030881610ab3565b915050610276565b505092915050565b600061035c8585858080601f016020809104026020016040519081016040528093929190818152602001838380828437600092019190915250879250610575915050565b90508060405160200161036f91906108e1565b60408051601f198184030181529082905262461bcd60e51b82526101dc9160040161097f565b6060604051806020016103a790610635565b601f1982820381018352601f90910116604052905090565b6000826040516103ce90610635565b6103d8919061091e565b604051809103906000f0801580156103f4573d6000803e3d6000fd5b5082519091501561041a5760008060008451602086016000865af1141561041a57600080fd5b600080546001810182559080527f290decd9548b62a8d60345a988386fc84ba6bc95484008f6362f93160ef3e5630180546001600160a01b0319166001600160a01b0383161790556040517f4f51faf6c4561ff95f067657e43439f0f856d97c04d9ec9070a6199ad418e235906104949083908690610999565b60405180910390a192915050565b60005490565b6060604051806020016103a790610642565b60008083836040516020016104d09291906108fe565b6040516020818303038152906040528051906020012060001c90506104f6868683610141565b91506001600160a01b0383161561056c576040516303ca56a360e31b81526001600160a01b03841690631e52b518906105399085908a908a908a906004016109b3565b600060405180830381600087803b15801561055357600080fd5b505af1158015610567573d6000803e3d6000fd5b505050505b50949350505050565b6000808380519060200120836040516020016105929291906108b1565b6040516020818303038152906040528051906020012090506000604051806020016105bc90610635565b601f1982820381018352601f9091011660408190526105e991906001600160a01b038916906020016108bf565b6040516020818303038152906040529050818151826020016000f592506001600160a01b03831661062c5760405162461bcd60e51b81526004016101dc90610a1e565b50509392505050565b61017d80610b1383390190565b607c80610c9083390190565b600082601f83011261065e578081fd5b813567ffffffffffffffff8082111561067957610679610ae4565b604051601f8301601f19168101602001828111828210171561069d5761069d610ae4565b6040528281528483016020018610156106b4578384fd5b82602086016020830137918201602001929092529392505050565b600080600080606085870312156106e4578384fd5b84356106ef81610afa565b9350602085013567ffffffffffffffff8082111561070b578485fd5b818701915087601f83011261071e578485fd5b81358181111561072c578586fd5b88602082850101111561073d578586fd5b95986020929092019750949560400135945092505050565b60008060408385031215610767578182fd5b823561077281610afa565b9150602083013567ffffffffffffffff81111561078d578182fd5b6107998582860161064e565b9150509250929050565b6000806000606084860312156107b7578283fd5b83356107c281610afa565b9250602084013567ffffffffffffffff8111156107dd578283fd5b6107e98682870161064e565b925050604084013590509250925092565b6000806000806080858703121561080f578384fd5b843561081a81610afa565b9350602085013567ffffffffffffffff811115610835578384fd5b6108418782880161064e565b93505060408501359150606085013561085981610afa565b939692955090935050565b60008060408385031215610876578182fd5b50508035926020909101359150565b6000815180845261089d816020860160208601610a83565b601f01601f19169290920160200192915050565b918252602082015260400190565b600083516108d1818460208801610a83565b9190910191825250602001919050565b60609190911b6bffffffffffffffffffffffff1916815260140190565b91825260601b6bffffffffffffffffffffffff1916602082015260340190565b6001600160a01b0391909116815260200190565b6020808252825182820181905260009190848201906040850190845b818110156109735783516001600160a01b03168352928401929184019160010161094e565b50909695505050505050565b6000602082526109926020830184610885565b9392505050565b6001600160a01b0392831681529116602082015260400190565b6001600160a01b038581168252841660208201526080604082018190526000906109df90830185610885565b905082606083015295945050505050565b6020808252601490820152736f6666736574206f7574206f6620626f756e647360601b604082015260600190565b60208082526013908201527210dc99585d194c8818d85b1b0819985a5b1959606a1b604082015260600190565b90815260200190565b60008219821115610a6757610a67610ace565b500190565b600082821015610a7e57610a7e610ace565b500390565b60005b83811015610a9e578181015183820152602001610a86565b83811115610aad576000848401525b50505050565b6000600019821415610ac757610ac7610ace565b5060010190565b634e487b7160e01b600052601160045260246000fd5b634e487b7160e01b600052604160045260246000fd5b6001600160a01b0381168114610b0f57600080fd5b5056fe608060405234801561001057600080fd5b5060405161017d38038061017d83398101604081905261002f91610083565b6001600160a01b03811661005e5760405162461bcd60e51b8152600401610055906100b1565b60405180910390fd5b600080546001600160a01b0319166001600160a01b03929092169190911790556100f3565b600060208284031215610094578081fd5b81516001600160a01b03811681146100aa578182fd5b9392505050565b60208082526022908201527f496e76616c69642073696e676c65746f6e20616464726573732070726f766964604082015261195960f21b606082015260800190565b607c806101016000396000f3fe6080604052600080546001600160a01b0316813563530ca43760e11b1415602857808252602082f35b3682833781823684845af490503d82833e806041573d82fd5b503d81f3fea2646970667358221220f40185b64826983d7d6a1ff9374f8e7909b8da83780abf239de99cf4e51ce04b64736f6c634300080000336080604052600080546001600160a01b0316813563530ca43760e11b1415602857808252602082f35b3682833781823684845af490503d82833e806041573d82fd5b503d81f3fea2646970667358221220f40185b64826983d7d6a1ff9374f8e7909b8da83780abf239de99cf4e51ce04b64736f6c63430008000033a2646970667358221220a8e8f058848e71909bee5228405ea4ec8f841582594a6a50e530eae11439187764736f6c63430008000033",
  "immutableReferences": {},
  "source": "/**\n * Proxyfactory\n */\npragma solidity >=0.7.0 <0.9.0;\n// \nimport \"./GnosisSafeProxy.sol\";\nimport \"./IProxyCreationCallback.sol\";\n\n/**\n * Allows to create new proxy contact and execute a message call to the new proxy within one transaction.\n * @author Stefan George - <stefan@gnosis.pm>\n */\ncontract GnosisSafeProxyFactory {\n    // GnosisSafeProxy\n    GnosisSafeProxy[] private _proxys;\n    // proxys\n    uint256 constant maxLimit = 20;\n    // \n    event ProxyCreation(GnosisSafeProxy proxy, address singleton);\n\n    /**\n     * proxy\n     * Allows to create new proxy contact and execute a message call to the new proxy within one transaction.\n     * @param singleton Address of singleton contract.\n     * @param data Payload for message call sent to new proxy contract.\n     */\n    function createProxy(address singleton, bytes memory data) public returns (GnosisSafeProxy proxy) {\n        // \n        proxy = new GnosisSafeProxy(singleton);\n        // data\n        if (data.length > 0)\n            // solhint-disable-next-line no-inline-assembly\n            assembly {\n                if eq(call(gas(), proxy, 0, add(data, 0x20), mload(data), 0, 0), 0) {\n                    revert(0, 0)\n                }\n            }\n        // \n        _proxys.push(proxy);\n        // \n        emit ProxyCreation(proxy, singleton);\n    }\n\n    /// @dev Allows to retrieve the runtime code of a deployed Proxy. This can be used to check that the expected Proxy was deployed.\n    function proxyRuntimeCode() public pure returns (bytes memory) {\n        return type(GnosisSafeProxy).runtimeCode;\n    }\n\n    /// @dev Allows to retrieve the creation code used for the Proxy deployment. With this it is easily possible to calculate predicted address.\n    function proxyCreationCode() public pure returns (bytes memory) {\n        return type(GnosisSafeProxy).creationCode;\n    }\n\n    /// @dev Allows to create new proxy contact using CREATE2 but it doesn't run the initializer.\n    ///      This method is only meant as an utility to be called from other methods\n    /// @param _singleton Address of singleton contract.\n    /// @param initializer Payload for message call sent to new proxy contract.\n    /// @param saltNonce Nonce that will be used to generate the salt to calculate the address of the new proxy contract.\n    function deployProxyWithNonce(\n        address _singleton,\n        bytes memory initializer,\n        uint256 saltNonce\n    ) internal returns (GnosisSafeProxy proxy) {\n        // If the initializer changes the proxy address should change too. Hashing the initializer data is cheaper than just concatinating it\n        bytes32 salt = keccak256(abi.encodePacked(keccak256(initializer), saltNonce));\n        bytes memory deploymentData = abi.encodePacked(type(GnosisSafeProxy).creationCode, uint256(uint160(_singleton)));\n        // solhint-disable-next-line no-inline-assembly\n        assembly {\n            proxy := create2(0x0, add(0x20, deploymentData), mload(deploymentData), salt)\n        }\n        require(address(proxy) != address(0), \"Create2 call failed\");\n    }\n\n    /// @dev Allows to create new proxy contact and execute a message call to the new proxy within one transaction.\n    /// @param _singleton Address of singleton contract.\n    /// @param initializer Payload for message call sent to new proxy contract.\n    /// @param saltNonce Nonce that will be used to generate the salt to calculate the address of the new proxy contract.\n    function createProxyWithNonce(\n        address _singleton,\n        bytes memory initializer,\n        uint256 saltNonce\n    ) public returns (GnosisSafeProxy proxy) {\n        proxy = deployProxyWithNonce(_singleton, initializer, saltNonce);\n        if (initializer.length > 0)\n            // solhint-disable-next-line no-inline-assembly\n            assembly {\n                if eq(call(gas(), proxy, 0, add(initializer, 0x20), mload(initializer), 0, 0), 0) {\n                    revert(0, 0)\n                }\n            }\n        emit ProxyCreation(proxy, _singleton);\n    }\n\n    /// @dev Allows to create new proxy contact, execute a message call to the new proxy and call a specified callback within one transaction\n    /// @param _singleton Address of singleton contract.\n    /// @param initializer Payload for message call sent to new proxy contract.\n    /// @param saltNonce Nonce that will be used to generate the salt to calculate the address of the new proxy contract.\n    /// @param callback Callback that will be invoked after the new proxy contract has been successfully deployed and initialized.\n    function createProxyWithCallback(\n        address _singleton,\n        bytes memory initializer,\n        uint256 saltNonce,\n        IProxyCreationCallback callback\n    ) public returns (GnosisSafeProxy proxy) {\n        uint256 saltNonceWithCallback = uint256(keccak256(abi.encodePacked(saltNonce, callback)));\n        proxy = createProxyWithNonce(_singleton, initializer, saltNonceWithCallback);\n        if (address(callback) != address(0)) callback.proxyCreated(proxy, _singleton, initializer, saltNonce);\n    }\n\n    /// @dev Allows to get the address for a new proxy contact created via `createProxyWithNonce`\n    ///      This method is only meant for address calculation purpose when you use an initializer that would revert,\n    ///      therefore the response is returned with a revert. When calling this method set `from` to the address of the proxy factory.\n    /// @param _singleton Address of singleton contract.\n    /// @param initializer Payload for message call sent to new proxy contract.\n    /// @param saltNonce Nonce that will be used to generate the salt to calculate the address of the new proxy contract.\n    function calculateCreateProxyWithNonceAddress(\n        address _singleton,\n        bytes calldata initializer,\n        uint256 saltNonce\n    ) external returns (GnosisSafeProxy proxy) {\n        proxy = deployProxyWithNonce(_singleton, initializer, saltNonce);\n        revert(string(abi.encodePacked(proxy)));\n    }\n\n    /**\n     * \n     */\n    function proxysCount () public view returns (uint256) {\n        return _proxys.length;\n    }\n\n    /**\n     * \n     */\n    function proxys (uint256 limit, uint256 offset) public view returns (GnosisSafeProxy[] memory coll) {\n        \n        require (offset <= proxysCount(), \"offset out of bounds\");\n        // limit\n        uint256 size = proxysCount() - offset;\n        size = size < limit ? size : limit;\n        // sizemaxLimit\n        size = size < maxLimit ? size : maxLimit;\n        coll = new GnosisSafeProxy[](size);\n\n        for (uint256 i = 0; i < size; i++) {\n            coll[i] = _proxys[offset + i];\n        }\n\n        return coll;    \n    }\n}",
  "sourcePath": "/Users/harukikondo/git/fundraiser-dapp/contracts/safeContracts/proxies/GnosisSafeProxyFactory.sol",
  "compiler": {
    "name": "solc",
    "version": "0.8.0+commit.c7dfd78e.Emscripten.clang"
  },
  "schemaVersion": "3.4.4",
  "updatedAt": "2022-08-27T03:25:13.073Z",
  "networkType": "ethereum",
  "devdoc": {
    "author": "Stefan George - <stefan@gnosis.pm>",
    "kind": "dev",
    "methods": {
      "calculateCreateProxyWithNonceAddress(address,bytes,uint256)": {
        "details": "Allows to get the address for a new proxy contact created via `createProxyWithNonce`      This method is only meant for address calculation purpose when you use an initializer that would revert,      therefore the response is returned with a revert. When calling this method set `from` to the address of the proxy factory.",
        "params": {
          "_singleton": "Address of singleton contract.",
          "initializer": "Payload for message call sent to new proxy contract.",
          "saltNonce": "Nonce that will be used to generate the salt to calculate the address of the new proxy contract."
        }
      },
      "createProxy(address,bytes)": {
        "params": {
          "data": "Payload for message call sent to new proxy contract.",
          "singleton": "Address of singleton contract."
        }
      },
      "createProxyWithCallback(address,bytes,uint256,address)": {
        "details": "Allows to create new proxy contact, execute a message call to the new proxy and call a specified callback within one transaction",
        "params": {
          "_singleton": "Address of singleton contract.",
          "callback": "Callback that will be invoked after the new proxy contract has been successfully deployed and initialized.",
          "initializer": "Payload for message call sent to new proxy contract.",
          "saltNonce": "Nonce that will be used to generate the salt to calculate the address of the new proxy contract."
        }
      },
      "createProxyWithNonce(address,bytes,uint256)": {
        "details": "Allows to create new proxy contact and execute a message call to the new proxy within one transaction.",
        "params": {
          "_singleton": "Address of singleton contract.",
          "initializer": "Payload for message call sent to new proxy contract.",
          "saltNonce": "Nonce that will be used to generate the salt to calculate the address of the new proxy contract."
        }
      },
      "proxyCreationCode()": {
        "details": "Allows to retrieve the creation code used for the Proxy deployment. With this it is easily possible to calculate predicted address."
      },
      "proxyRuntimeCode()": {
        "details": "Allows to retrieve the runtime code of a deployed Proxy. This can be used to check that the expected Proxy was deployed."
      }
    },
    "version": 1
  },
  "userdoc": {
    "kind": "user",
    "methods": {
      "createProxy(address,bytes)": {
        "notice": "proxy Allows to create new proxy contact and execute a message call to the new proxy within one transaction."
      },
      "proxys(uint256,uint256)": {
        "notice": ""
      },
      "proxysCount()": {
        "notice": ""
      }
    },
    "notice": "Allows to create new proxy contact and execute a message call to the new proxy within one transaction.",
    "version": 1
  }
}