{
  "contractName": "GuardManager",
  "abi": [
    {
      "anonymous": false,
      "inputs": [
        {
          "indexed": false,
          "internalType": "address",
          "name": "guard",
          "type": "address"
        }
      ],
      "name": "ChangedGuard",
      "type": "event"
    },
    {
      "inputs": [
        {
          "internalType": "address",
          "name": "guard",
          "type": "address"
        }
      ],
      "name": "setGuard",
      "outputs": [],
      "stateMutability": "nonpayable",
      "type": "function"
    }
  ],
  "bytecode": "0x608060405234801561001057600080fd5b50610270806100206000396000f3fe608060405234801561001057600080fd5b506004361061002b5760003560e01c8063e19a9dd914610030575b600080fd5b61004361003e366004610185565b610045565b005b61004d610164565b6001600160a01b03811615610104576040516301ffc9a760e01b81526001600160a01b038216906301ffc9a79061008f9063736bd41d60e11b906004016101e7565b60206040518083038186803b1580156100a757600080fd5b505afa1580156100bb573d6000803e3d6000fd5b505050506040513d601f19601f820116820180604052508101906100df91906101b3565b6101045760405162461bcd60e51b81526004016100fb9061021b565b60405180910390fd5b7f4a204f620c8c5ccdca3fd54d003badd85ba500436a431f0cbda4f558c93c34c88181556040517f1151116914515bc0891ff9047a6cb32cf902546f83066499bcf8ba33d2353fa2906101589084906101d3565b60405180910390a15050565b3330146101835760405162461bcd60e51b81526004016100fb906101fc565b565b600060208284031215610196578081fd5b81356001600160a01b03811681146101ac578182fd5b9392505050565b6000602082840312156101c4578081fd5b815180151581146101ac578182fd5b6001600160a01b0391909116815260200190565b6001600160e01b031991909116815260200190565b602080825260059082015264475330333160d81b604082015260600190565b602080825260059082015264047533330360dc1b60408201526060019056fea264697066735822122027de271bde743fbe107030a3eb8cab75a183e6f02f0068a54240e4c3dda0a6d764736f6c63430008000033",
  "immutableReferences": {},
  "source": "/**\n * Guardを管理するためのコントラクト\n */\n\npragma solidity >=0.7.0 <0.9.0;\n// インポートする。\nimport \"../common/Enum.sol\";\nimport \"../common/SelfAuthorized.sol\";\nimport \"../interfaces/IERC165.sol\";\n\n/**\n * Guardコントラクト\n * IERC165を継承 \n */\ninterface Guard is IERC165 {\n\n    /**\n     * トランザクションをチェックする関数 \n     */\n    function checkTransaction(\n        address to,\n        uint256 value,\n        bytes memory data,\n        Enum.Operation operation,\n        uint256 safeTxGas,\n        uint256 baseGas,\n        uint256 gasPrice,\n        address gasToken,\n        address payable refundReceiver,\n        bytes memory signatures,\n        address msgSender\n    ) external;\n\n    /**\n     * トランザクション実行御の結果を確認する関数\n     */\n    function checkAfterExecution(bytes32 txHash, bool success) external;\n}\n\n/**\n * BaseGuardコントラクト\n * Guradコントラクトを継承する。\n */\nabstract contract BaseGuard is Guard {\n\n    /**\n     * インターフェースをサポートするための関数\n     */\n    function supportsInterface(bytes4 interfaceId) external view virtual override returns (bool) {\n        return\n            interfaceId == type(Guard).interfaceId || // 0xe6d7a83a\n            interfaceId == type(IERC165).interfaceId; // 0x01ffc9a7\n    }\n}\n\n\n/**\n * GuardManager コントラクト\n * @title Fallback Manager - A contract that manages fallback calls made to this contract\n * @author Richard Meissner - <richard@gnosis.pm>\n */\ncontract GuardManager is SelfAuthorized {\n    // イベントの定義\n    event ChangedGuard(address guard);\n    // keccak256(\"guard_manager.guard.address\")\n    bytes32 internal constant GUARD_STORAGE_SLOT = 0x4a204f620c8c5ccdca3fd54d003badd85ba500436a431f0cbda4f558c93c34c8;\n\n    /**\n     * Guardのアドレスを設定する関数\n     * @dev Set a guard that checks transactions before execution\n     * @param guard The address of the guard to be used or the 0 address to disable the guard\n     */\n    function setGuard(address guard) external authorized {\n        if (guard != address(0)) {\n            require(Guard(guard).supportsInterface(type(Guard).interfaceId), \"GS300\");\n        }\n        bytes32 slot = GUARD_STORAGE_SLOT;\n        // solhint-disable-next-line no-inline-assembly\n        assembly {\n            sstore(slot, guard)\n        }\n        emit ChangedGuard(guard);\n    }\n\n    /**\n     * Guardのアドレスを取得するための関数\n     */\n    function getGuard() internal view returns (address guard) {\n        bytes32 slot = GUARD_STORAGE_SLOT;\n        // solhint-disable-next-line no-inline-assembly\n        assembly {\n            guard := sload(slot)\n        }\n    }\n}",
  "sourcePath": "/Users/harukikondo/git/fundraiser-dapp/contracts/safeContracts/base/GuardManager.sol",
  "compiler": {
    "name": "solc",
    "version": "0.8.0+commit.c7dfd78e.Emscripten.clang"
  },
  "schemaVersion": "3.2.0",
  "updatedAt": "2022-06-04T09:30:29.974Z",
  "devdoc": {
    "author": "Richard Meissner - <richard@gnosis.pm>",
    "kind": "dev",
    "methods": {
      "setGuard(address)": {
        "details": "Set a guard that checks transactions before execution",
        "params": {
          "guard": "The address of the guard to be used or the 0 address to disable the guard"
        }
      }
    },
    "title": "Fallback Manager - A contract that manages fallback calls made to this contract",
    "version": 1
  },
  "userdoc": {
    "kind": "user",
    "methods": {
      "setGuard(address)": {
        "notice": "Guardのアドレスを設定する関数"
      }
    },
    "notice": "GuardManager コントラクト",
    "version": 1
  }
}