{
  "contractName": "ModuleManager",
  "abi": [
    {
      "anonymous": false,
      "inputs": [
        {
          "indexed": false,
          "internalType": "address",
          "name": "module",
          "type": "address"
        }
      ],
      "name": "DisabledModule",
      "type": "event"
    },
    {
      "anonymous": false,
      "inputs": [
        {
          "indexed": false,
          "internalType": "address",
          "name": "module",
          "type": "address"
        }
      ],
      "name": "EnabledModule",
      "type": "event"
    },
    {
      "anonymous": false,
      "inputs": [
        {
          "indexed": true,
          "internalType": "address",
          "name": "module",
          "type": "address"
        }
      ],
      "name": "ExecutionFromModuleFailure",
      "type": "event"
    },
    {
      "anonymous": false,
      "inputs": [
        {
          "indexed": true,
          "internalType": "address",
          "name": "module",
          "type": "address"
        }
      ],
      "name": "ExecutionFromModuleSuccess",
      "type": "event"
    },
    {
      "inputs": [
        {
          "internalType": "address",
          "name": "module",
          "type": "address"
        }
      ],
      "name": "enableModule",
      "outputs": [],
      "stateMutability": "nonpayable",
      "type": "function"
    },
    {
      "inputs": [
        {
          "internalType": "address",
          "name": "prevModule",
          "type": "address"
        },
        {
          "internalType": "address",
          "name": "module",
          "type": "address"
        }
      ],
      "name": "disableModule",
      "outputs": [],
      "stateMutability": "nonpayable",
      "type": "function"
    },
    {
      "inputs": [
        {
          "internalType": "address",
          "name": "to",
          "type": "address"
        },
        {
          "internalType": "uint256",
          "name": "value",
          "type": "uint256"
        },
        {
          "internalType": "bytes",
          "name": "data",
          "type": "bytes"
        },
        {
          "internalType": "enum Enum.Operation",
          "name": "operation",
          "type": "uint8"
        }
      ],
      "name": "execTransactionFromModule",
      "outputs": [
        {
          "internalType": "bool",
          "name": "success",
          "type": "bool"
        }
      ],
      "stateMutability": "nonpayable",
      "type": "function"
    },
    {
      "inputs": [
        {
          "internalType": "address",
          "name": "to",
          "type": "address"
        },
        {
          "internalType": "uint256",
          "name": "value",
          "type": "uint256"
        },
        {
          "internalType": "bytes",
          "name": "data",
          "type": "bytes"
        },
        {
          "internalType": "enum Enum.Operation",
          "name": "operation",
          "type": "uint8"
        }
      ],
      "name": "execTransactionFromModuleReturnData",
      "outputs": [
        {
          "internalType": "bool",
          "name": "success",
          "type": "bool"
        },
        {
          "internalType": "bytes",
          "name": "returnData",
          "type": "bytes"
        }
      ],
      "stateMutability": "nonpayable",
      "type": "function"
    },
    {
      "inputs": [
        {
          "internalType": "address",
          "name": "module",
          "type": "address"
        }
      ],
      "name": "isModuleEnabled",
      "outputs": [
        {
          "internalType": "bool",
          "name": "",
          "type": "bool"
        }
      ],
      "stateMutability": "view",
      "type": "function"
    },
    {
      "inputs": [
        {
          "internalType": "address",
          "name": "start",
          "type": "address"
        },
        {
          "internalType": "uint256",
          "name": "pageSize",
          "type": "uint256"
        }
      ],
      "name": "getModulesPaginated",
      "outputs": [
        {
          "internalType": "address[]",
          "name": "array",
          "type": "address[]"
        },
        {
          "internalType": "address",
          "name": "next",
          "type": "address"
        }
      ],
      "stateMutability": "view",
      "type": "function"
    }
  ],
  "bytecode": "0x608060405234801561001057600080fd5b50610941806100206000396000f3fe608060405234801561001057600080fd5b50600436106100625760003560e01c80632d9ad53d14610067578063468721a7146100905780635229073f146100a3578063610b5925146100c4578063cc2f8452146100d9578063e009cfde146100fa575b600080fd5b61007a610075366004610612565b61010d565b60405161008791906107cb565b60405180910390f35b61007a61009e36600461068e565b61014a565b6100b66100b136600461068e565b610212565b6040516100879291906107d6565b6100d76100d2366004610612565b610248565b005b6100ec6100e7366004610665565b61035f565b60405161008792919061076e565b6100d7610108366004610633565b610474565b600060016001600160a01b0383161480159061014257506001600160a01b038281166000908152602081905260409020541615155b90505b919050565b6000336001148015906101745750336000908152602081905260409020546001600160a01b031615155b6101995760405162461bcd60e51b815260040161019090610852565b60405180910390fd5b6101a6858585855a610575565b905080156101de5760405133907f6895c13664aa4f67288b25d7a21d7aaa34916e355fb9b6fae0a139a9085becb890600090a261020a565b60405133907facd2c8702804128fdb0db2bb49f6d127dd0181c13fd45dbfe16de0930e2bd37590600090a25b949350505050565b600060606102228686868661014a565b915060405160203d0181016040523d81523d6000602083013e8091505094509492505050565b6102506105cb565b6001600160a01b0381161580159061027257506001600160a01b038116600114155b61028e5760405162461bcd60e51b8152600401610190906108af565b6001600160a01b0381811660009081526020819052604090205416156102c65760405162461bcd60e51b815260040161019090610890565b600060208190527fada5013122d395ba3c54772283fb069b10426056ef8ca54750cb9bb552a59e7d80546001600160a01b0384811680855260408086208054939094166001600160a01b03199384161790935560019094528254169092179055517fecdf3a3effea5783a3c4c2140e677577666428d44ed9d474a0b3a4c9943f84409061035490839061075a565b60405180910390a150565b606060008267ffffffffffffffff81111561038a57634e487b7160e01b600052604160045260246000fd5b6040519080825280602002602001820160405280156103b3578160200160208202803683370190505b506001600160a01b0380861660009081526020819052604081205492945091165b6001600160a01b038116158015906103f657506001600160a01b038116600114155b801561040157508482105b15610466578084838151811061042757634e487b7160e01b600052603260045260246000fd5b6001600160a01b03928316602091820292909201810191909152918116600090815291829052604090912054168161045e816108ce565b9250506103d4565b908352919491935090915050565b61047c6105cb565b6001600160a01b0381161580159061049e57506001600160a01b038116600114155b6104ba5760405162461bcd60e51b8152600401610190906108af565b6001600160a01b038281166000908152602081905260409020548116908216146104f65760405162461bcd60e51b815260040161019090610833565b6001600160a01b03818116600081815260208190526040808220805487861684528284208054919096166001600160a01b0319918216179095559290915281549092169055517faab4fa2b463f581b2b32cb3b7e3b704b9ce37cc209b5fb4d77e593ace40542769061056990839061075a565b60405180910390a15050565b6000600183600181111561059957634e487b7160e01b600052602160045260246000fd5b14156105b2576000808551602087018986f490506105c2565b600080855160208701888a87f190505b95945050505050565b3330146105ea5760405162461bcd60e51b815260040161019090610871565b565b80356001600160a01b038116811461014557600080fd5b80356002811061014557600080fd5b600060208284031215610623578081fd5b61062c826105ec565b9392505050565b60008060408385031215610645578081fd5b61064e836105ec565b915061065c602084016105ec565b90509250929050565b60008060408385031215610677578182fd5b610680836105ec565b946020939093013593505050565b600080600080608085870312156106a3578182fd5b6106ac856105ec565b93506020808601359350604086013567ffffffffffffffff808211156106d0578485fd5b818801915088601f8301126106e3578485fd5b8135818111156106f5576106f56108f5565b604051601f8201601f1916810185018381118282101715610718576107186108f5565b60405281815283820185018b101561072e578687fd5b81858501868301379081019093019490945250915061074f60608601610603565b905092959194509250565b6001600160a01b0391909116815260200190565b604080825283519082018190526000906020906060840190828701845b828110156107b05781516001600160a01b03168452928401929084019060010161078b565b5050506001600160a01b039490941692019190915250919050565b901515815260200190565b6000831515825260206040818401528351806040850152825b8181101561080b578581018301518582016060015282016107ef565b8181111561081c5783606083870101525b50601f01601f191692909201606001949350505050565b602080825260059082015264475331303360d81b604082015260600190565b60208082526005908201526411d4cc4c0d60da1b604082015260600190565b602080825260059082015264475330333160d81b604082015260600190565b60208082526005908201526423a998981960d91b604082015260600190565b602080825260059082015264475331303160d81b604082015260600190565b60006000198214156108ee57634e487b7160e01b81526011600452602481fd5b5060010190565b634e487b7160e01b600052604160045260246000fdfea2646970667358221220c90f8088385e246a12e612127e53b83aeafb87d90f5694dacb6e2deb1e8ac9c064736f6c63430008000033",
  "immutableReferences": {},
  "source": "/**\n * モジュールを管理するためのコントラクト\n */\n\npragma solidity >=0.7.0 <0.9.0;\n// 必要なものをインポートする。\nimport \"../common/Enum.sol\";\nimport \"../common/SelfAuthorized.sol\";\nimport \"./Executor.sol\";\n\n/**\n * ModuleManagerコントラクト\n * SelfAuthorizedとExecutorを継承する。\n * @title Module Manager - A contract that manages modules that can execute transactions via this contract\n * @author Stefan George - <stefan@gnosis.pm>\n * @author Richard Meissner - <richard@gnosis.pm>\n */\ncontract ModuleManager is SelfAuthorized, Executor {\n    // 各種イベントを定義する。\n    event EnabledModule(address module);\n    event DisabledModule(address module);\n    event ExecutionFromModuleSuccess(address indexed module);\n    event ExecutionFromModuleFailure(address indexed module);\n\n    address internal constant SENTINEL_MODULES = address(0x1);\n\n    mapping(address => address) internal modules;\n\n    /**\n     * 初期設定用の関数\n     */\n    function setupModules(address to, bytes memory data) internal {\n        require(modules[SENTINEL_MODULES] == address(0), \"GS100\");\n        modules[SENTINEL_MODULES] = SENTINEL_MODULES;\n        if (to != address(0))\n            // Setup has to complete successfully or transaction fails.\n            require(execute(to, 0, data, Enum.Operation.DelegateCall, gasleft()), \"GS000\");\n    }\n\n    /// @dev Allows to add a module to the whitelist.\n    ///      This can only be done via a Safe transaction.\n    /// @notice Enables the module `module` for the Safe.\n    /// @param module Module to be whitelisted.\n    function enableModule(address module) public authorized {\n        // Module address cannot be null or sentinel.\n        require(module != address(0) && module != SENTINEL_MODULES, \"GS101\");\n        // Module cannot be added twice.\n        require(modules[module] == address(0), \"GS102\");\n        modules[module] = modules[SENTINEL_MODULES];\n        modules[SENTINEL_MODULES] = module;\n        emit EnabledModule(module);\n    }\n\n    /**\n     * モジュールを無効化する関数\n     * @dev Allows to remove a module from the whitelist.\n     *      This can only be done via a Safe transaction.\n     * @notice Disables the module `module` for the Safe.\n     * @param prevModule Module that pointed to the module to be removed in the linked list\n     * @param module Module to be removed.\n     */\n    function disableModule(address prevModule, address module) public authorized {\n        // Validate module address and check that it corresponds to module index.\n        require(module != address(0) && module != SENTINEL_MODULES, \"GS101\");\n        require(modules[prevModule] == module, \"GS103\");\n        modules[prevModule] = modules[module];\n        modules[module] = address(0);\n        emit DisabledModule(module);\n    }\n\n    /**\n     * モジュールからトランザクションを実行するための関数\n     * @dev Allows a Module to execute a Safe transaction without any further confirmations.\n     * @param to Destination address of module transaction.\n     * @param value Ether value of module transaction.\n     * @param data Data payload of module transaction.\n     * @param operation Operation type of module transaction.\n     */\n    function execTransactionFromModule(\n        address to,\n        uint256 value,\n        bytes memory data,\n        Enum.Operation operation\n    ) public virtual returns (bool success) {\n        // Only whitelisted modules are allowed.\n        require(msg.sender != SENTINEL_MODULES && modules[msg.sender] != address(0), \"GS104\");\n        // トランザクション実行\n        success = execute(to, value, data, operation, gasleft());\n        if (success) emit ExecutionFromModuleSuccess(msg.sender);\n        else emit ExecutionFromModuleFailure(msg.sender);\n    }\n\n    /// @dev Allows a Module to execute a Safe transaction without any further confirmations and return data\n    /// @param to Destination address of module transaction.\n    /// @param value Ether value of module transaction.\n    /// @param data Data payload of module transaction.\n    /// @param operation Operation type of module transaction.\n    function execTransactionFromModuleReturnData(\n        address to,\n        uint256 value,\n        bytes memory data,\n        Enum.Operation operation\n    ) public returns (bool success, bytes memory returnData) {\n        success = execTransactionFromModule(to, value, data, operation);\n        // solhint-disable-next-line no-inline-assembly\n        assembly {\n            // Load free memory location\n            let ptr := mload(0x40)\n            // We allocate memory for the return data by setting the free memory location to\n            // current free memory location + data size + 32 bytes for data size value\n            mstore(0x40, add(ptr, add(returndatasize(), 0x20)))\n            // Store the size\n            mstore(ptr, returndatasize())\n            // Store the data\n            returndatacopy(add(ptr, 0x20), 0, returndatasize())\n            // Point the return data to the correct memory location\n            returnData := ptr\n        }\n    }\n\n    /**\n     * モジュールが有効かどうかチェックする関数\n     * @dev Returns if an module is enabled\n     * @return True if the module is enabled\n     */\n    function isModuleEnabled(address module) public view returns (bool) {\n        return SENTINEL_MODULES != module && modules[module] != address(0);\n    }\n\n    /// @dev Returns array of modules.\n    /// @param start Start of the page.\n    /// @param pageSize Maximum number of modules that should be returned.\n    /// @return array Array of modules.\n    /// @return next Start of the next page.\n    function getModulesPaginated(address start, uint256 pageSize) external view returns (address[] memory array, address next) {\n        // Init array with max page size\n        array = new address[](pageSize);\n\n        // Populate return array\n        uint256 moduleCount = 0;\n        address currentModule = modules[start];\n        while (currentModule != address(0x0) && currentModule != SENTINEL_MODULES && moduleCount < pageSize) {\n            array[moduleCount] = currentModule;\n            currentModule = modules[currentModule];\n            moduleCount++;\n        }\n        next = currentModule;\n        // Set correct size of returned array\n        // solhint-disable-next-line no-inline-assembly\n        assembly {\n            mstore(array, moduleCount)\n        }\n    }\n}",
  "sourcePath": "/Users/harukikondo/git/fundraiser-dapp/contracts/safeContracts/base/ModuleManager.sol",
  "compiler": {
    "name": "solc",
    "version": "0.8.0+commit.c7dfd78e.Emscripten.clang"
  },
  "schemaVersion": "3.2.0",
  "updatedAt": "2022-06-04T09:30:29.975Z",
  "devdoc": {
    "author": "Stefan George - <stefan@gnosis.pm>Richard Meissner - <richard@gnosis.pm>",
    "kind": "dev",
    "methods": {
      "disableModule(address,address)": {
        "details": "Allows to remove a module from the whitelist.      This can only be done via a Safe transaction.",
        "params": {
          "module": "Module to be removed.",
          "prevModule": "Module that pointed to the module to be removed in the linked list"
        }
      },
      "enableModule(address)": {
        "details": "Allows to add a module to the whitelist.      This can only be done via a Safe transaction.",
        "params": {
          "module": "Module to be whitelisted."
        }
      },
      "execTransactionFromModule(address,uint256,bytes,uint8)": {
        "details": "Allows a Module to execute a Safe transaction without any further confirmations.",
        "params": {
          "data": "Data payload of module transaction.",
          "operation": "Operation type of module transaction.",
          "to": "Destination address of module transaction.",
          "value": "Ether value of module transaction."
        }
      },
      "execTransactionFromModuleReturnData(address,uint256,bytes,uint8)": {
        "details": "Allows a Module to execute a Safe transaction without any further confirmations and return data",
        "params": {
          "data": "Data payload of module transaction.",
          "operation": "Operation type of module transaction.",
          "to": "Destination address of module transaction.",
          "value": "Ether value of module transaction."
        }
      },
      "getModulesPaginated(address,uint256)": {
        "details": "Returns array of modules.",
        "params": {
          "pageSize": "Maximum number of modules that should be returned.",
          "start": "Start of the page."
        },
        "returns": {
          "array": "Array of modules.",
          "next": "Start of the next page."
        }
      },
      "isModuleEnabled(address)": {
        "details": "Returns if an module is enabled",
        "returns": {
          "_0": "True if the module is enabled"
        }
      }
    },
    "title": "Module Manager - A contract that manages modules that can execute transactions via this contract",
    "version": 1
  },
  "userdoc": {
    "kind": "user",
    "methods": {
      "disableModule(address,address)": {
        "notice": "モジュールを無効化する関数Disables the module `module` for the Safe."
      },
      "enableModule(address)": {
        "notice": "Enables the module `module` for the Safe."
      },
      "execTransactionFromModule(address,uint256,bytes,uint8)": {
        "notice": "モジュールからトランザクションを実行するための関数"
      },
      "isModuleEnabled(address)": {
        "notice": "モジュールが有効かどうかチェックする関数"
      }
    },
    "notice": "ModuleManagerコントラクト SelfAuthorizedとExecutorを継承する。",
    "version": 1
  }
}