{
  "contractName": "MultiSigFactory",
  "abi": [
    {
      "anonymous": false,
      "inputs": [
        {
          "indexed": true,
          "internalType": "contract SimpleMultiSig",
          "name": "simpleMultiSig",
          "type": "address"
        },
        {
          "indexed": false,
          "internalType": "string",
          "name": "walletName",
          "type": "string"
        },
        {
          "indexed": true,
          "internalType": "uint256",
          "name": "threshold",
          "type": "uint256"
        },
        {
          "indexed": false,
          "internalType": "address[]",
          "name": "owners",
          "type": "address[]"
        },
        {
          "indexed": true,
          "internalType": "uint256",
          "name": "chainId",
          "type": "uint256"
        }
      ],
      "name": "MultiSigCreated",
      "type": "event"
    },
    {
      "inputs": [
        {
          "internalType": "string",
          "name": "walletName_",
          "type": "string"
        },
        {
          "internalType": "uint256",
          "name": "threshold_",
          "type": "uint256"
        },
        {
          "internalType": "address[]",
          "name": "owners_",
          "type": "address[]"
        },
        {
          "internalType": "uint256",
          "name": "chainId",
          "type": "uint256"
        }
      ],
      "name": "createMultiSig",
      "outputs": [],
      "stateMutability": "nonpayable",
      "type": "function"
    },
    {
      "inputs": [],
      "name": "multiSigWalletsCount",
      "outputs": [
        {
          "internalType": "uint256",
          "name": "",
          "type": "uint256"
        }
      ],
      "stateMutability": "view",
      "type": "function",
      "constant": true
    }
  ],
  "bytecode": "0x608060405234801561001057600080fd5b50611329806100206000396000f3fe60806040523480156200001157600080fd5b50600436106200003a5760003560e01c8063037634ee146200003f57806372465adb1462000061575b600080fd5b620000496200007a565b604051620000589190620003d7565b60405180910390f35b620000786200007236600462000205565b62000080565b005b60005490565b600084848484604051620000949062000157565b620000a3949392919062000396565b604051809103906000f080158015620000c0573d6000803e3d6000fd5b50600080546001810182559080527f290decd9548b62a8d60345a988386fc84ba6bc95484008f6362f93160ef3e5630180546001600160a01b0319166001600160a01b03831690811790915560405191925083918691907f6e8e07cf9df5d9ddb8a2f779649f97b327b228bffaf3c03a769749a87ccbb12b9062000148908a90899062000364565b60405180910390a45050505050565b610ed0806200042483390190565b600082601f83011262000176578081fd5b8135602067ffffffffffffffff8211156200019557620001956200040d565b808202620001a5828201620003e0565b838152828101908684018388018501891015620001c0578687fd5b8693505b85841015620001f95780356001600160a01b0381168114620001e4578788fd5b835260019390930192918401918401620001c4565b50979650505050505050565b600080600080608085870312156200021b578384fd5b843567ffffffffffffffff8082111562000233578586fd5b818701915087601f83011262000247578586fd5b81356020828211156200025e576200025e6200040d565b62000272601f8301601f19168201620003e0565b8281528a8284870101111562000286578889fd5b82828601838301379182018101979097529587013594506040870135915080821115620002b1578384fd5b50620002c08782880162000165565b949793965093946060013593505050565b6000815180845260208085019450808401835b838110156200030b5781516001600160a01b031687529582019590820190600101620002e4565b509495945050505050565b60008151808452815b818110156200033d576020818501810151868301820152016200031f565b818111156200034f5782602083870101525b50601f01601f19169290920160200192915050565b60006040825262000379604083018562000316565b82810360208401526200038d8185620002d1565b95945050505050565b600060808252620003ab608083018762000316565b8560208401528281036040840152620003c58186620002d1565b91505082606083015295945050505050565b90815260200190565b60405181810167ffffffffffffffff811182821017156200040557620004056200040d565b604052919050565b634e487b7160e01b600052604160045260246000fdfe60806040523480156200001157600080fd5b5060405162000ed038038062000ed08339810160408190526200003491620003ee565b600a82511115801562000048575081518311155b8015620000555750600083115b6200005f57600080fd5b6000805b83518110156200015b57816001600160a01b03168482815181106200009857634e487b7160e01b600052603260045260246000fd5b60200260200101516001600160a01b031611620000b457600080fd5b600160036000868481518110620000db57634e487b7160e01b600052603260045260246000fd5b60200260200101516001600160a01b03166001600160a01b0316815260200190815260200160002060006101000a81548160ff0219169083151502179055508381815181106200013b57634e487b7160e01b600052603260045260246000fd5b602002602001015191508080620001529062000577565b91505062000063565b5084516200017190600090602088019062000251565b50825162000187906004906020860190620002e0565b5060028490556040516200022a907fd87cd6ef79d4e2b95e15ce8abf732db51ec771f1ca2edccf22a46c729ac56472907fb7a0bfa1b79f2443f4d73ebb9259cddbcd510b18be6fc4da7d1aa7b1786e73e6907fc89efdaa54c0f20c7adf612882df0950f5a951637e0307cdcb4c672f298b8bc690869030907f251543af6a222378665a76fe38dbceae4871a070b7fdaf5c6c30cf758dc33cc090602001620004dd565b604051602081830303815290604052805190602001206005819055505050505050620005b5565b8280546200025f906200053a565b90600052602060002090601f016020900481019282620002835760008555620002ce565b82601f106200029e57805160ff1916838001178555620002ce565b82800160010185558215620002ce579182015b82811115620002ce578251825591602001919060010190620002b1565b50620002dc92915062000338565b5090565b828054828255906000526020600020908101928215620002ce579160200282015b82811115620002ce57825182546001600160a01b0319166001600160a01b0390911617825560209092019160019091019062000301565b5b80821115620002dc576000815560010162000339565b600082601f83011262000360578081fd5b815160206001600160401b038211156200037e576200037e6200059f565b8082026200038e8282016200050e565b838152828101908684018388018501891015620003a9578687fd5b8693505b85841015620003e25780516001600160a01b0381168114620003cd578788fd5b835260019390930192918401918401620003ad565b50979650505050505050565b6000806000806080858703121562000404578384fd5b84516001600160401b03808211156200041b578586fd5b818701915087601f8301126200042f578586fd5b8151818111156200044457620004446200059f565b60206200045a601f8301601f191682016200050e565b8281528a828487010111156200046e578889fd5b885b838110156200048d57858101830151828201840152820162000470565b838111156200049e57898385840101525b509089015160408a0151919850965092505080821115620004bd578384fd5b50620004cc878288016200034f565b606096909601519497939650505050565b9586526020860194909452604085019290925260608401526001600160a01b0316608083015260a082015260c00190565b6040518181016001600160401b03811182821017156200053257620005326200059f565b604052919050565b6002810460018216806200054f57607f821691505b602082108114156200057157634e487b7160e01b600052602260045260246000fd5b50919050565b60006000198214156200059857634e487b7160e01b81526011600452602481fd5b5060010190565b634e487b7160e01b600052604160045260246000fd5b61090b80620005c56000396000f3fe6080604052600436106100555760003560e01c806342cde4e814610057578063a0ab965314610082578063aa5df9e2146100a2578063affed0e0146100cf578063b4fe0082146100e4578063cf8d8ca014610106575b005b34801561006357600080fd5b5061006c61011b565b60405161007991906107e4565b60405180910390f35b34801561008e57600080fd5b5061005561009d366004610614565b610121565b3480156100ae57600080fd5b506100c26100bd3660046106f1565b610369565b6040516100799190610724565b3480156100db57600080fd5b5061006c610393565b3480156100f057600080fd5b506100f9610399565b6040516100799190610791565b34801561011257600080fd5b506100f961042b565b60025481565b60025487511461013057600080fd5b85518751148015610142575087518751145b61014b57600080fd5b6001600160a01b03821633148061016957506001600160a01b038216155b61017257600080fd5b82516020808501919091206001546040516000936101ba937f3ee892349ae4bbe61dce18f95115b5dc02daf49204cc602458cd4c1f540d56d7938b938b938a918a9101610738565b6040516020818303038152906040528051906020012090506000600554826040516020016101e9929190610709565b6040516020818303038152906040528051906020012090506000805b60025481101561032d5760006001848e848151811061023457634e487b7160e01b600052603260045260246000fd5b60200260200101518e858151811061025c57634e487b7160e01b600052603260045260246000fd5b60200260200101518e868151811061028457634e487b7160e01b600052603260045260246000fd5b6020026020010151604051600081526020016040526040516102a99493929190610773565b6020604051602081039080840390855afa1580156102cb573d6000803e3d6000fd5b505050602060405103519050826001600160a01b0316816001600160a01b031611801561031057506001600160a01b03811660009081526003602052604090205460ff165b61031957600080fd5b9150806103258161088e565b915050610205565b506001805461033b9161083b565b60018190555060008080885160208a018b8d8af190508061035b57600080fd5b505050505050505050505050565b6004818154811061037957600080fd5b6000918252602090912001546001600160a01b0316905081565b60015481565b6060600080546103a890610853565b80601f01602080910402602001604051908101604052809291908181526020018280546103d490610853565b80156104215780601f106103f657610100808354040283529160200191610421565b820191906000526020600020905b81548152906001019060200180831161040457829003601f168201915b5050505050905090565b6000805461043890610853565b80601f016020809104026020016040519081016040528092919081815260200182805461046490610853565b80156104b15780601f10610486576101008083540402835291602001916104b1565b820191906000526020600020905b81548152906001019060200180831161049457829003601f168201915b505050505081565b80356001600160a01b03811681146104d057600080fd5b919050565b600082601f8301126104e5578081fd5b813560206104fa6104f583610817565b6107ed565b8281528181019085830183850287018401881015610516578586fd5b855b8581101561053457813584529284019290840190600101610518565b5090979650505050505050565b600082601f830112610551578081fd5b813560206105616104f583610817565b828152818101908583018385028701840188101561057d578586fd5b855b8581101561053457813560ff81168114610597578788fd5b8452928401929084019060010161057f565b600082601f8301126105b9578081fd5b813567ffffffffffffffff8111156105d3576105d36108bf565b6105e6601f8201601f19166020016107ed565b8181528460208386010111156105fa578283fd5b816020850160208301379081016020019190915292915050565b600080600080600080600080610100898b031215610630578384fd5b883567ffffffffffffffff80821115610647578586fd5b6106538c838d01610541565b995060208b0135915080821115610668578586fd5b6106748c838d016104d5565b985060408b0135915080821115610689578586fd5b6106958c838d016104d5565b97506106a360608c016104b9565b965060808b0135955060a08b01359150808211156106bf578485fd5b506106cc8b828c016105a9565b9350506106db60c08a016104b9565b915060e089013590509295985092959890939650565b600060208284031215610702578081fd5b5035919050565b61190160f01b81526002810192909252602282015260420190565b6001600160a01b0391909116815260200190565b9687526001600160a01b03958616602088015260408701949094526060860192909252608085015290911660a083015260c082015260e00190565b93845260ff9290921660208401526040830152606082015260800190565b6000602080835283518082850152825b818110156107bd578581018301518582016040015282016107a1565b818111156107ce5783604083870101525b50601f01601f1916929092016040019392505050565b90815260200190565b60405181810167ffffffffffffffff8111828210171561080f5761080f6108bf565b604052919050565b600067ffffffffffffffff821115610831576108316108bf565b5060209081020190565b6000821982111561084e5761084e6108a9565b500190565b60028104600182168061086757607f821691505b6020821081141561088857634e487b7160e01b600052602260045260246000fd5b50919050565b60006000198214156108a2576108a26108a9565b5060010190565b634e487b7160e01b600052601160045260246000fd5b634e487b7160e01b600052604160045260246000fdfea264697066735822122054ec7565d3d6f662e3e438f21181e597417d28bc505ef9c28bdece06a202cfac64736f6c63430008000033a2646970667358221220e913284013ec9ae5ed120d4921e39e1ef428a5329552a83961b54f4641de61f964736f6c63430008000033",
  "immutableReferences": {},
  "source": "/**\n * \n */\n\npragma solidity >0.4.23;\n// \nimport \"./SimpleMultiSig.sol\";\n\n/**\n * MultiSigFactory\n */\ncontract MultiSigFactory {\n\n    // MultiSigWallet\n    SimpleMultiSig[] private _simpleMultiSigs;\n    // \n    event MultiSigCreated (SimpleMultiSig indexed simpleMultiSig, string walletName,uint indexed threshold, address[] owners, uint indexed chainId);\n\n    /**\n     * \n     */\n    function createMultiSig (string memory walletName_, uint threshold_, address[] memory owners_, uint chainId) public {\n        // \n        SimpleMultiSig simpleMultiSig = new SimpleMultiSig(walletName_, threshold_, owners_, chainId);\n        // \n        _simpleMultiSigs.push(simpleMultiSig);\n        // \n        emit MultiSigCreated(simpleMultiSig, walletName_, threshold_, owners_, chainId);\n    }\n\n    /**\n     * \n     */\n    function multiSigWalletsCount () public view returns (uint256) {\n        return _simpleMultiSigs.length;\n    }\n}",
  "sourcePath": "/Users/harukikondo/git/fundraiser-dapp/contracts/MultiSigFactory.sol",
  "compiler": {
    "name": "solc",
    "version": "0.8.0+commit.c7dfd78e.Emscripten.clang"
  },
  "schemaVersion": "3.4.4",
  "updatedAt": "2022-08-27T03:23:31.908Z",
  "networkType": "ethereum",
  "devdoc": {
    "kind": "dev",
    "methods": {},
    "version": 1
  },
  "userdoc": {
    "kind": "user",
    "methods": {
      "createMultiSig(string,uint256,address[],uint256)": {
        "notice": ""
      },
      "multiSigWalletsCount()": {
        "notice": ""
      }
    },
    "notice": "MultiSigFactory",
    "version": 1
  }
}