{
  "contractName": "NFTFactory",
  "abi": [
    {
      "anonymous": false,
      "inputs": [
        {
          "indexed": true,
          "internalType": "contract NFT",
          "name": "nft",
          "type": "address"
        },
        {
          "indexed": false,
          "internalType": "string",
          "name": "name",
          "type": "string"
        },
        {
          "indexed": false,
          "internalType": "string",
          "name": "symbol",
          "type": "string"
        },
        {
          "indexed": false,
          "internalType": "string",
          "name": "url",
          "type": "string"
        }
      ],
      "name": "NFTCreated",
      "type": "event"
    },
    {
      "inputs": [],
      "name": "NFTsCount",
      "outputs": [
        {
          "internalType": "uint256",
          "name": "",
          "type": "uint256"
        }
      ],
      "stateMutability": "view",
      "type": "function"
    },
    {
      "inputs": [
        {
          "internalType": "string",
          "name": "name",
          "type": "string"
        },
        {
          "internalType": "string",
          "name": "symbol",
          "type": "string"
        },
        {
          "internalType": "string",
          "name": "url",
          "type": "string"
        }
      ],
      "name": "createNFT",
      "outputs": [],
      "stateMutability": "nonpayable",
      "type": "function"
    },
    {
      "inputs": [
        {
          "internalType": "uint256",
          "name": "limit",
          "type": "uint256"
        },
        {
          "internalType": "uint256",
          "name": "offset",
          "type": "uint256"
        }
      ],
      "name": "nfts",
      "outputs": [
        {
          "internalType": "contract NFT[]",
          "name": "coll",
          "type": "address[]"
        }
      ],
      "stateMutability": "view",
      "type": "function"
    }
  ],
  "bytecode": "0x60806040527f9f2df0fed2c77648de5860a4cc508cd0818c85b8b8a1ab4ceeef8d981c8956a66001557f65d7a28e3265b37a6474929f336521b332c1681b933f6cb9f3376673440d862a60025534801561005857600080fd5b50613d76806100686000396000f3fe60806040523480156200001157600080fd5b5060043610620000465760003560e01c806336e5df3f146200004b5780639f8e9dbc146200007a578063b0dc92e51462000093575b600080fd5b620000626200005c366004620004f1565b620000ac565b60405162000071919062000561565b60405180910390f35b620000916200008b36600462000463565b62000228565b005b6200009d620003c6565b6040516200007191906200063e565b6060620000b8620003c6565b821115620000e35760405162461bcd60e51b8152600401620000da9062000610565b60405180910390fd5b600082620000f0620003c6565b620000fc919062000662565b90508381106200010d57836200010f565b805b9050601481106200012257601462000124565b805b90508067ffffffffffffffff8111156200014e57634e487b7160e01b600052604160045260246000fd5b60405190808252806020026020018201604052801562000178578160200160208202803683370190505b50915060005b818110156200022057600062000195828662000647565b81548110620001b457634e487b7160e01b600052603260045260246000fd5b9060005260206000200160009054906101000a90046001600160a01b0316838281518110620001f357634e487b7160e01b600052603260045260246000fd5b6001600160a01b03909216602092830291909101909101528062000217816200067c565b9150506200017e565b505092915050565b60008383836040516200023b90620003cc565b6200024993929190620005c7565b604051809103906000f08015801562000266573d6000803e3d6000fd5b50600154604051632f2ff15d60e01b81529192506001600160a01b03831691632f2ff15d916200029b913390600401620005b0565b600060405180830381600087803b158015620002b657600080fd5b505af1158015620002cb573d6000803e3d6000fd5b5050600254604051632f2ff15d60e01b81526001600160a01b0385169350632f2ff15d92506200030191903390600401620005b0565b600060405180830381600087803b1580156200031c57600080fd5b505af115801562000331573d6000803e3d6000fd5b5050600080546001810182559080527f290decd9548b62a8d60345a988386fc84ba6bc95484008f6362f93160ef3e5630180546001600160a01b0319166001600160a01b0385169081179091556040519092507f1b0e81db173ec64d80c2fde3bf29e4c58e548941cd70bc35a62a19f8126157cf9150620003b890879087908790620005c7565b60405180910390a250505050565b60005490565b61367a80620006c783390190565b600082601f830112620003eb578081fd5b813567ffffffffffffffff80821115620004095762000409620006b0565b604051601f8301601f191681016020018281118282101715620004305762000430620006b0565b60405282815284830160200186101562000448578384fd5b82602086016020830137918201602001929092529392505050565b60008060006060848603121562000478578283fd5b833567ffffffffffffffff8082111562000490578485fd5b6200049e87838801620003da565b94506020860135915080821115620004b4578384fd5b620004c287838801620003da565b93506040860135915080821115620004d8578283fd5b50620004e786828701620003da565b9150509250925092565b6000806040838503121562000504578182fd5b50508035926020909101359150565b60008151808452815b818110156200053a576020818501810151868301820152016200051c565b818111156200054c5782602083870101525b50601f01601f19169290920160200192915050565b6020808252825182820181905260009190848201906040850190845b81811015620005a45783516001600160a01b0316835292840192918401916001016200057d565b50909695505050505050565b9182526001600160a01b0316602082015260400190565b600060608252620005dc606083018662000513565b8281036020840152620005f0818662000513565b9050828103604084015262000606818562000513565b9695505050505050565b6020808252601490820152736f6666736574206f7574206f6620626f756e647360601b604082015260600190565b90815260200190565b600082198211156200065d576200065d6200069a565b500190565b6000828210156200067757620006776200069a565b500390565b60006000198214156200069357620006936200069a565b5060010190565b634e487b7160e01b600052601160045260246000fd5b634e487b7160e01b600052604160045260246000fdfe60806040523480156200001157600080fd5b506040516200367a3803806200367a83398101604081905262000034916200042e565b8282828282816002908051906020019062000051929190620002dd565b50805162000067906003906020840190620002dd565b5050600c805460ff191690555080516200008990600e906020840190620002dd565b50620000a060006200009a6200014c565b62000150565b620000cf7f9f2df0fed2c77648de5860a4cc508cd0818c85b8b8a1ab4ceeef8d981c8956a66200009a6200014c565b620000fe7f65d7a28e3265b37a6474929f336521b332c1681b933f6cb9f3376673440d862a6200009a6200014c565b50508351620001169150600f906020860190620002dd565b5081516200012c906010906020850190620002dd565b50805162000142906011906020840190620002dd565b505050506200050e565b3390565b6200015c828262000160565b5050565b620001778282620001a360201b62000f5b1760201c565b60008281526001602090815260409091206200019e91839062000fe06200022d821b17901c565b505050565b620001af82826200024d565b6200015c576000828152602081815260408083206001600160a01b03851684529091529020805460ff19166001179055620001e96200014c565b6001600160a01b0316816001600160a01b0316837f2f8788117e7eff1d82e926ec794901d17c78024a50270940304540a733656f0d60405160405180910390a45050565b600062000244836001600160a01b03841662000276565b90505b92915050565b6000918252602082815260408084206001600160a01b0393909316845291905290205460ff1690565b6000620002848383620002c5565b620002bc5750815460018181018455600084815260208082209093018490558454848252828601909352604090209190915562000247565b50600062000247565b60009081526001919091016020526040902054151590565b828054620002eb90620004bb565b90600052602060002090601f0160209004810192826200030f57600085556200035a565b82601f106200032a57805160ff19168380011785556200035a565b828001600101855582156200035a579182015b828111156200035a5782518255916020019190600101906200033d565b50620003689291506200036c565b5090565b5b808211156200036857600081556001016200036d565b600082601f83011262000394578081fd5b81516001600160401b0380821115620003b157620003b1620004f8565b6040516020601f8401601f1916820181018381118382101715620003d957620003d9620004f8565b6040528382528584018101871015620003f0578485fd5b8492505b83831015620004135785830181015182840182015291820191620003f4565b838311156200042457848185840101525b5095945050505050565b60008060006060848603121562000443578283fd5b83516001600160401b03808211156200045a578485fd5b620004688783880162000383565b945060208601519150808211156200047e578384fd5b6200048c8783880162000383565b93506040860151915080821115620004a2578283fd5b50620004b18682870162000383565b9150509250925092565b600281046001821680620004d057607f821691505b60208210811415620004f257634e487b7160e01b600052602260045260246000fd5b50919050565b634e487b7160e01b600052604160045260246000fd5b61315c806200051e6000396000f3fe60806040526004361061020f5760003560e01c80636352211e11610118578063b722720d116100a0578063d53913931161006f578063d5391393146105c3578063d547741f146105d8578063e63ab1e9146105f8578063e985e9c51461060d578063f7b5c5b61461062d5761020f565b8063b722720d1461054e578063b88d4fde14610563578063c87b56dd14610583578063ca15c873146105a35761020f565b80639010d07c116100e75780639010d07c146104c457806391d14854146104e457806395d89b4114610504578063a217fddf14610519578063a22cb4651461052e5761020f565b80636352211e1461044f5780636a6278421461046f57806370a082311461048f5780638456cb59146104af5761020f565b80632f745c591161019b57806342842e0e1161016a57806342842e0e146103ba57806342966c68146103da5780634f6ccce7146103fa5780635c975abb1461041a57806361eba5521461042f5761020f565b80632f745c591461035057806336568abe146103705780633bbdbee0146103905780633f4ba83a146103a55761020f565b806311ece751116101e257806311ece751146102bb57806318160ddd146102ce57806323b872dd146102f0578063248a9ca3146103105780632f2ff15d146103305761020f565b806301ffc9a71461021457806306fdde031461024a578063081812fc1461026c578063095ea7b314610299575b600080fd5b34801561022057600080fd5b5061023461022f3660046124f7565b610642565b6040516102419190612810565b60405180910390f35b34801561025657600080fd5b5061025f610655565b6040516102419190612824565b34801561027857600080fd5b5061028c61028736600461249c565b6106e7565b60405161024191906127bf565b3480156102a557600080fd5b506102b96102b4366004612473565b610733565b005b6102b96102c93660046123ea565b6107cb565b3480156102da57600080fd5b506102e36108a6565b604051610241919061281b565b3480156102fc57600080fd5b506102b961030b3660046122fc565b6108ac565b34801561031c57600080fd5b506102e361032b36600461249c565b6108e4565b34801561033c57600080fd5b506102b961034b3660046124b4565b6108f9565b34801561035c57600080fd5b506102e361036b366004612473565b61091d565b34801561037c57600080fd5b506102b961038b3660046124b4565b610972565b34801561039c57600080fd5b5061025f6109b8565b3480156103b157600080fd5b506102b96109c7565b3480156103c657600080fd5b506102b96103d53660046122fc565b610a19565b3480156103e657600080fd5b506102b96103f536600461249c565b610a34565b34801561040657600080fd5b506102e361041536600461249c565b610a67565b34801561042657600080fd5b50610234610ac2565b34801561043b57600080fd5b5061025f61044a36600461249c565b610acb565b34801561045b57600080fd5b5061028c61046a36600461249c565b610c3a565b34801561047b57600080fd5b506102b961048a3660046122b0565b610c6f565b34801561049b57600080fd5b506102e36104aa3660046122b0565b610cd4565b3480156104bb57600080fd5b506102b9610d18565b3480156104d057600080fd5b5061028c6104df3660046124d6565b610d68565b3480156104f057600080fd5b506102346104ff3660046124b4565b610d87565b34801561051057600080fd5b5061025f610db0565b34801561052557600080fd5b506102e3610dbf565b34801561053a57600080fd5b506102b96105493660046123b0565b610dc4565b34801561055a57600080fd5b5061025f610dd6565b34801561056f57600080fd5b506102b961057e366004612337565b610de5565b34801561058f57600080fd5b5061025f61059e36600461249c565b610e1e565b3480156105af57600080fd5b506102e36105be36600461249c565b610ea0565b3480156105cf57600080fd5b506102e3610eb7565b3480156105e457600080fd5b506102b96105f33660046124b4565b610edb565b34801561060457600080fd5b506102e3610efa565b34801561061957600080fd5b506102346106283660046122ca565b610f1e565b34801561063957600080fd5b5061025f610f4c565b600061064d82610ff5565b90505b919050565b60606002805461066490613024565b80601f016020809104026020016040519081016040528092919081815260200182805461069090613024565b80156106dd5780601f106106b2576101008083540402835291602001916106dd565b820191906000526020600020905b8154815290600101906020018083116106c057829003601f168201915b5050505050905090565b60006106f28261101a565b6107175760405162461bcd60e51b815260040161070e90612c2c565b60405180910390fd5b506000908152600660205260409020546001600160a01b031690565b600061073e82610c3a565b9050806001600160a01b0316836001600160a01b031614156107725760405162461bcd60e51b815260040161070e90612d10565b806001600160a01b0316610784611037565b6001600160a01b031614806107a057506107a081610628611037565b6107bc5760405162461bcd60e51b815260040161070e90612b07565b6107c6838361103b565b505050565b60128054600181018255600091909152835161080e917fbb8a6a4669ba250d26cd7a459eca9d215f8307e33aebe50379bc5a3617ec344401906020860190612171565b50601380546001810182556000919091528251610852917f66de8ffda797e3de9c05e8fc57b3bf0ec28a930d40b0d285d93c06501cf6a09001906020850190612171565b50601480546001810182556000919091528151610896917fce6d7b5282bd9a3661ae061feed1dbda4e52ab073b1f9285be6e155d9c38d4ec01906020840190612171565b506108a084610c6f565b50505050565b600a5490565b6108bd6108b7611037565b826110a9565b6108d95760405162461bcd60e51b815260040161070e90612d51565b6107c683838361112e565b60009081526020819052604090206001015490565b610902826108e4565b6109138161090e611037565b61125b565b6107c683836112bf565b600061092883610cd4565b82106109465760405162461bcd60e51b815260040161070e906128e5565b506001600160a01b03821660009081526008602090815260408083208484529091529020545b92915050565b61097a611037565b6001600160a01b0316816001600160a01b0316146109aa5760405162461bcd60e51b815260040161070e90612f24565b6109b482826112e1565b5050565b6060600f805461066490613024565b6109f37f65d7a28e3265b37a6474929f336521b332c1681b933f6cb9f3376673440d862a6104ff611037565b610a0f5760405162461bcd60e51b815260040161070e90612ec6565b610a17611303565b565b6107c683838360405180602001604052806000815250610de5565b610a3f6108b7611037565b610a5b5760405162461bcd60e51b815260040161070e90612e76565b610a6481611371565b50565b6000610a716108a6565b8210610a8f5760405162461bcd60e51b815260040161070e90612da2565b600a8281548110610ab057634e487b7160e01b600052603260045260246000fd5b90600052602060002001549050919050565b600c5460ff1690565b6060610ad68261101a565b610af25760405162461bcd60e51b815260040161070e90612e4b565b600060128381548110610b1557634e487b7160e01b600052603260045260246000fd5b90600052602060002001604051602001610b2f9190612657565b6040516020818303038152906040529050600060138481548110610b6357634e487b7160e01b600052603260045260246000fd5b90600052602060002001604051602001610b7d9190612622565b6040516020818303038152906040529050600060148581548110610bb157634e487b7160e01b600052603260045260246000fd5b90600052602060002001604051602001610bcb9190612674565b60405160208183030381529060405290506000838383604051602001610bf393929190612690565b60405160208183030381529060405290506000610c0f82611418565b604051602001610c1f9190612705565b60408051808303601f19018152919052979650505050505050565b6000818152600460205260408120546001600160a01b03168061064d5760405162461bcd60e51b815260040161070e90612bae565b610c9b7f9f2df0fed2c77648de5860a4cc508cd0818c85b8b8a1ab4ceeef8d981c8956a66104ff611037565b610cb75760405162461bcd60e51b815260040161070e90612dee565b610cca81610cc5600d61158c565b611590565b610a64600d61166f565b60006001600160a01b038216610cfc5760405162461bcd60e51b815260040161070e90612b64565b506001600160a01b031660009081526005602052604090205490565b610d447f65d7a28e3265b37a6474929f336521b332c1681b933f6cb9f3376673440d862a6104ff611037565b610d605760405162461bcd60e51b815260040161070e906129b9565b610a17611678565b6000828152600160205260408120610d8090836116d3565b9392505050565b6000918252602082815260408084206001600160a01b0393909316845291905290205460ff1690565b60606003805461066490613024565b600081565b6109b4610dcf611037565b83836116df565b60606011805461066490613024565b610df6610df0611037565b836110a9565b610e125760405162461bcd60e51b815260040161070e90612d51565b6108a084848484611782565b6060610e298261101a565b610e455760405162461bcd60e51b815260040161070e90612cc1565b6000610e4f6117b5565b90506000815111610e6f5760405180602001604052806000815250610d80565b80610e79846117c4565b604051602001610e8a9291906125f3565b6040516020818303038152906040529392505050565b600081815260016020526040812061064d906118df565b7f9f2df0fed2c77648de5860a4cc508cd0818c85b8b8a1ab4ceeef8d981c8956a681565b610ee4826108e4565b610ef08161090e611037565b6107c683836112e1565b7f65d7a28e3265b37a6474929f336521b332c1681b933f6cb9f3376673440d862a81565b6001600160a01b03918216600090815260076020908152604080832093909416825291909152205460ff1690565b60606010805461066490613024565b610f658282610d87565b6109b4576000828152602081815260408083206001600160a01b03851684529091529020805460ff19166001179055610f9c611037565b6001600160a01b0316816001600160a01b0316837f2f8788117e7eff1d82e926ec794901d17c78024a50270940304540a733656f0d60405160405180910390a45050565b6000610d80836001600160a01b0384166118ea565b60006001600160e01b0319821663780e9d6360e01b148061064d575061064d82611934565b6000908152600460205260409020546001600160a01b0316151590565b3390565b600081815260066020526040902080546001600160a01b0319166001600160a01b038416908117909155819061107082610c3a565b6001600160a01b03167f8c5be1e5ebec7d5bd14f71427d1e84f3dd0314c0f7b2291e5b200ac8c7c3b92560405160405180910390a45050565b60006110b48261101a565b6110d05760405162461bcd60e51b815260040161070e90612a91565b60006110db83610c3a565b9050806001600160a01b0316846001600160a01b031614806111165750836001600160a01b031661110b846106e7565b6001600160a01b0316145b8061112657506111268185610f1e565b949350505050565b826001600160a01b031661114182610c3a565b6001600160a01b0316146111675760405162461bcd60e51b815260040161070e90612c78565b6001600160a01b03821661118d5760405162461bcd60e51b815260040161070e90612a16565b611198838383611974565b6111a360008261103b565b6001600160a01b03831660009081526005602052604081208054600192906111cc908490612fca565b90915550506001600160a01b03821660009081526005602052604081208054600192906111fa908490612f7f565b909155505060008181526004602052604080822080546001600160a01b0319166001600160a01b0386811691821790925591518493918716917fddf252ad1be2c89b69c2b068fc378daa952ba7f163c4a11628f55a4df523b3ef91a4505050565b6112658282610d87565b6109b45761127d816001600160a01b0316601461197f565b61128883602061197f565b60405160200161129992919061274a565b60408051601f198184030181529082905262461bcd60e51b825261070e91600401612824565b6112c98282610f5b565b60008281526001602052604090206107c69082610fe0565b6112eb8282611b31565b60008281526001602052604090206107c69082611bb4565b61130b610ac2565b6113275760405162461bcd60e51b815260040161070e906128b7565b600c805460ff191690557f5db9ee0a495bf2e6ff9c91a7834c1ba4fdd244a5e8aa4e537bd38aeae4b073aa61135a611037565b60405161136791906127bf565b60405180910390a1565b600061137c82610c3a565b905061138a81600084611974565b61139560008361103b565b6001600160a01b03811660009081526005602052604081208054600192906113be908490612fca565b909155505060008281526004602052604080822080546001600160a01b0319169055518391906001600160a01b038416907fddf252ad1be2c89b69c2b068fc378daa952ba7f163c4a11628f55a4df523b3ef908390a45050565b805160609080611438575050604080516020810190915260008152610650565b60006003611447836002612f7f565b6114519190612f97565b61145c906004612fab565b9050600061146b826020612f7f565b67ffffffffffffffff81111561149157634e487b7160e01b600052604160045260246000fd5b6040519080825280601f01601f1916602001820160405280156114bb576020820181803683370190505b50905060006040518060600160405280604081526020016130e7604091399050600181016020830160005b86811015611547576003818a01810151603f601282901c8116860151600c83901c8216870151600684901c831688015192909316870151600891821b60ff94851601821b92841692909201901b91160160e01b8352600490920191016114e6565b50600386066001811461156157600281146115725761157e565b613d3d60f01b60011983015261157e565b603d60f81b6000198301525b505050918152949350505050565b5490565b6001600160a01b0382166115b65760405162461bcd60e51b815260040161070e90612bf7565b6115bf8161101a565b156115dc5760405162461bcd60e51b815260040161070e90612982565b6115e860008383611974565b6001600160a01b0382166000908152600560205260408120805460019290611611908490612f7f565b909155505060008181526004602052604080822080546001600160a01b0319166001600160a01b03861690811790915590518392907fddf252ad1be2c89b69c2b068fc378daa952ba7f163c4a11628f55a4df523b3ef908290a45050565b80546001019055565b611680610ac2565b1561169d5760405162461bcd60e51b815260040161070e90612add565b600c805460ff191660011790557f62e78cea01bee320cd4e420270b5ea74000d11b0c9f74754ebdbfc544b05a25861135a611037565b6000610d808383611bc9565b816001600160a01b0316836001600160a01b031614156117115760405162461bcd60e51b815260040161070e90612a5a565b6001600160a01b0383811660008181526007602090815260408083209487168084529490915290819020805460ff1916851515179055517f17307eab39ab6107e8899845ad3d59bd9653f200f220920489ca2b5937696c3190611775908590612810565b60405180910390a3505050565b61178d84848461112e565b61179984848484611c01565b6108a05760405162461bcd60e51b815260040161070e90612930565b6060600e805461066490613024565b6060816117e957506040805180820190915260018152600360fc1b6020820152610650565b8160005b811561181357806117fd8161305f565b915061180c9050600a83612f97565b91506117ed565b60008167ffffffffffffffff81111561183c57634e487b7160e01b600052604160045260246000fd5b6040519080825280601f01601f191660200182016040528015611866576020820181803683370190505b5090505b84156111265761187b600183612fca565b9150611888600a8661307a565b611893906030612f7f565b60f81b8183815181106118b657634e487b7160e01b600052603260045260246000fd5b60200101906001600160f81b031916908160001a9053506118d8600a86612f97565b945061186a565b600061064d8261158c565b60006118f68383611d1c565b61192c5750815460018181018455600084815260208082209093018490558454848252828601909352604090209190915561096c565b50600061096c565b60006001600160e01b031982166380ac58cd60e01b148061196557506001600160e01b03198216635b5e139f60e01b145b8061064d575061064d82611d34565b6107c6838383611d59565b6060600061198e836002612fab565b611999906002612f7f565b67ffffffffffffffff8111156119bf57634e487b7160e01b600052604160045260246000fd5b6040519080825280601f01601f1916602001820160405280156119e9576020820181803683370190505b509050600360fc1b81600081518110611a1257634e487b7160e01b600052603260045260246000fd5b60200101906001600160f81b031916908160001a905350600f60fb1b81600181518110611a4f57634e487b7160e01b600052603260045260246000fd5b60200101906001600160f81b031916908160001a9053506000611a73846002612fab565b611a7e906001612f7f565b90505b6001811115611b12576f181899199a1a9b1b9c1cb0b131b232b360811b85600f1660108110611ac057634e487b7160e01b600052603260045260246000fd5b1a60f81b828281518110611ae457634e487b7160e01b600052603260045260246000fd5b60200101906001600160f81b031916908160001a90535060049490941c93611b0b8161300d565b9050611a81565b508315610d805760405162461bcd60e51b815260040161070e90612837565b611b3b8282610d87565b156109b4576000828152602081815260408083206001600160a01b03851684529091529020805460ff19169055611b70611037565b6001600160a01b0316816001600160a01b0316837ff6391f5c32d9c69d2a47ea670b442974b53935d1edc7fd64eb21e047a839171b60405160405180910390a45050565b6000610d80836001600160a01b038416611d89565b6000826000018281548110611bee57634e487b7160e01b600052603260045260246000fd5b9060005260206000200154905092915050565b6000611c15846001600160a01b0316611ea6565b15611d1157836001600160a01b031663150b7a02611c31611037565b8786866040518563ffffffff1660e01b8152600401611c5394939291906127d3565b602060405180830381600087803b158015611c6d57600080fd5b505af1925050508015611c9d575060408051601f3d908101601f19168201909252611c9a91810190612513565b60015b611cf7573d808015611ccb576040519150601f19603f3d011682016040523d82523d6000602084013e611cd0565b606091505b508051611cef5760405162461bcd60e51b815260040161070e90612930565b805181602001fd5b6001600160e01b031916630a85bd0160e11b149050611126565b506001949350505050565b60009081526001919091016020526040902054151590565b60006001600160e01b03198216635a05180f60e01b148061064d575061064d82611eac565b611d64838383611ed1565b611d6c610ac2565b156107c65760405162461bcd60e51b815260040161070e9061286c565b60008181526001830160205260408120548015611e9c576000611dad600183612fca565b8554909150600090611dc190600190612fca565b9050818114611e42576000866000018281548110611def57634e487b7160e01b600052603260045260246000fd5b9060005260206000200154905080876000018481548110611e2057634e487b7160e01b600052603260045260246000fd5b6000918252602080832090910192909255918252600188019052604090208390555b8554869080611e6157634e487b7160e01b600052603160045260246000fd5b60019003818190600052602060002001600090559055856001016000868152602001908152602001600020600090556001935050505061096c565b600091505061096c565b3b151590565b60006001600160e01b03198216637965db0b60e01b148061064d575061064d82611f5a565b611edc8383836107c6565b6001600160a01b038316611ef857611ef381611f73565b611f1b565b816001600160a01b0316836001600160a01b031614611f1b57611f1b8382611fb7565b6001600160a01b038216611f3757611f3281612054565b6107c6565b826001600160a01b0316826001600160a01b0316146107c6576107c6828261212d565b6001600160e01b031981166301ffc9a760e01b14919050565b600a80546000838152600b60205260408120829055600182018355919091527fc65a7bb8d6351c1cf70c95a316cc6a92839c986682d98bc35f958f4883f9d2a80155565b60006001611fc484610cd4565b611fce9190612fca565b600083815260096020526040902054909150808214612021576001600160a01b03841660009081526008602090815260408083208584528252808320548484528184208190558352600990915290208190555b5060009182526009602090815260408084208490556001600160a01b039094168352600881528383209183525290812055565b600a5460009061206690600190612fca565b6000838152600b6020526040812054600a805493945090928490811061209c57634e487b7160e01b600052603260045260246000fd5b9060005260206000200154905080600a83815481106120cb57634e487b7160e01b600052603260045260246000fd5b6000918252602080832090910192909255828152600b9091526040808220849055858252812055600a80548061211157634e487b7160e01b600052603160045260246000fd5b6001900381819060005260206000200160009055905550505050565b600061213883610cd4565b6001600160a01b039093166000908152600860209081526040808320868452825280832085905593825260099052919091209190915550565b82805461217d90613024565b90600052602060002090601f01602090048101928261219f57600085556121e5565b82601f106121b857805160ff19168380011785556121e5565b828001600101855582156121e5579182015b828111156121e55782518255916020019190600101906121ca565b506121f19291506121f5565b5090565b5b808211156121f157600081556001016121f6565b600067ffffffffffffffff80841115612225576122256130ba565b604051601f8501601f191681016020018281118282101715612249576122496130ba565b60405284815291508183850186101561226157600080fd5b8484602083013760006020868301015250509392505050565b80356001600160a01b038116811461065057600080fd5b600082601f8301126122a1578081fd5b610d808383356020850161220a565b6000602082840312156122c1578081fd5b610d808261227a565b600080604083850312156122dc578081fd5b6122e58361227a565b91506122f36020840161227a565b90509250929050565b600080600060608486031215612310578081fd5b6123198461227a565b92506123276020850161227a565b9150604084013590509250925092565b6000806000806080858703121561234c578081fd5b6123558561227a565b93506123636020860161227a565b925060408501359150606085013567ffffffffffffffff811115612385578182fd5b8501601f81018713612395578182fd5b6123a48782356020840161220a565b91505092959194509250565b600080604083850312156123c2578182fd5b6123cb8361227a565b9150602083013580151581146123df578182fd5b809150509250929050565b600080600080608085870312156123ff578384fd5b6124088561227a565b9350602085013567ffffffffffffffff80821115612424578485fd5b61243088838901612291565b94506040870135915080821115612445578384fd5b61245188838901612291565b93506060870135915080821115612466578283fd5b506123a487828801612291565b60008060408385031215612485578182fd5b61248e8361227a565b946020939093013593505050565b6000602082840312156124ad578081fd5b5035919050565b600080604083850312156124c6578182fd5b823591506122f36020840161227a565b600080604083850312156124e8578182fd5b50508035926020909101359150565b600060208284031215612508578081fd5b8135610d80816130d0565b600060208284031215612524578081fd5b8151610d80816130d0565b60008151808452612547816020860160208601612fe1565b601f01601f19169290920160200192915050565b80546000906002810460018083168061257557607f831692505b602080841082141561259557634e487b7160e01b86526022600452602486fd5b8180156125a957600181146125ba576125e7565b60ff198616895284890196506125e7565b6125c388612f73565b60005b868110156125df5781548b8201529085019083016125c6565b505084890196505b50505050505092915050565b60008351612605818460208801612fe1565b835190830190612619818360208801612fe1565b01949350505050565b6e113232b9b1b934b83a34b7b7111d1160891b81526000612646600f83018461255b565b601160f91b81526001019392505050565b67113730b6b2911d1160c11b81526000612646600883018461255b565b66112aa926111d1160c91b81526000612646600783018461255b565b6000607b60f81b825284516126ac816001850160208901612fe1565b8083019050600b60fa1b80600183015285516126cf816002850160208a01612fe1565b600292019182015283516126ea816003840160208801612fe1565b607d60f81b6003929091019182015260040195945050505050565b60007f646174613a6170706c69636174696f6e2f6a736f6e3b6261736536342c0000008252825161273d81601d850160208701612fe1565b91909101601d0192915050565b60007f416363657373436f6e74726f6c3a206163636f756e742000000000000000000082528351612782816017850160208801612fe1565b7001034b99036b4b9b9b4b733903937b6329607d1b60179184019182015283516127b3816028840160208801612fe1565b01602801949350505050565b6001600160a01b0391909116815260200190565b6001600160a01b03858116825284166020820152604081018390526080606082018190526000906128069083018461252f565b9695505050505050565b901515815260200190565b90815260200190565b600060208252610d80602083018461252f565b6020808252818101527f537472696e67733a20686578206c656e67746820696e73756666696369656e74604082015260600190565b6020808252602b908201527f4552433732315061757361626c653a20746f6b656e207472616e73666572207760408201526a1a1a5b19481c185d5cd95960aa1b606082015260800190565b60208082526014908201527314185d5cd8589b194e881b9bdd081c185d5cd95960621b604082015260600190565b6020808252602b908201527f455243373231456e756d657261626c653a206f776e657220696e646578206f7560408201526a74206f6620626f756e647360a81b606082015260800190565b60208082526032908201527f4552433732313a207472616e7366657220746f206e6f6e20455243373231526560408201527131b2b4bb32b91034b6b83632b6b2b73a32b960711b606082015260800190565b6020808252601c908201527f4552433732313a20746f6b656e20616c7265616479206d696e74656400000000604082015260600190565b6020808252603e908201527f4552433732315072657365744d696e7465725061757365724175746f49643a2060408201527f6d75737420686176652070617573657220726f6c6520746f2070617573650000606082015260800190565b60208082526024908201527f4552433732313a207472616e7366657220746f20746865207a65726f206164646040820152637265737360e01b606082015260800190565b60208082526019908201527f4552433732313a20617070726f766520746f2063616c6c657200000000000000604082015260600190565b6020808252602c908201527f4552433732313a206f70657261746f7220717565727920666f72206e6f6e657860408201526b34b9ba32b73a103a37b5b2b760a11b606082015260800190565b60208082526010908201526f14185d5cd8589b194e881c185d5cd95960821b604082015260600190565b60208082526038908201527f4552433732313a20617070726f76652063616c6c6572206973206e6f74206f7760408201527f6e6572206e6f7220617070726f76656420666f7220616c6c0000000000000000606082015260800190565b6020808252602a908201527f4552433732313a2062616c616e636520717565727920666f7220746865207a65604082015269726f206164647265737360b01b606082015260800190565b60208082526029908201527f4552433732313a206f776e657220717565727920666f72206e6f6e657869737460408201526832b73a103a37b5b2b760b91b606082015260800190565b6020808252818101527f4552433732313a206d696e7420746f20746865207a65726f2061646472657373604082015260600190565b6020808252602c908201527f4552433732313a20617070726f76656420717565727920666f72206e6f6e657860408201526b34b9ba32b73a103a37b5b2b760a11b606082015260800190565b60208082526029908201527f4552433732313a207472616e73666572206f6620746f6b656e2074686174206960408201526839903737ba1037bbb760b91b606082015260800190565b6020808252602f908201527f4552433732314d657461646174613a2055524920717565727920666f72206e6f60408201526e3732bc34b9ba32b73a103a37b5b2b760891b606082015260800190565b60208082526021908201527f4552433732313a20617070726f76616c20746f2063757272656e74206f776e656040820152603960f91b606082015260800190565b60208082526031908201527f4552433732313a207472616e736665722063616c6c6572206973206e6f74206f6040820152701ddb995c881b9bdc88185c1c1c9bdd9959607a1b606082015260800190565b6020808252602c908201527f455243373231456e756d657261626c653a20676c6f62616c20696e646578206f60408201526b7574206f6620626f756e647360a01b606082015260800190565b6020808252603d908201527f4552433732315072657365744d696e7465725061757365724175746f49643a2060408201527f6d7573742068617665206d696e74657220726f6c6520746f206d696e74000000606082015260800190565b6020808252601190820152703737b732bc39b4ba32b73a103a37b5b2b760791b604082015260600190565b60208082526030908201527f4552433732314275726e61626c653a2063616c6c6572206973206e6f74206f7760408201526f1b995c881b9bdc88185c1c1c9bdd995960821b606082015260800190565b602080825260409082018190527f4552433732315072657365744d696e7465725061757365724175746f49643a20908201527f6d75737420686176652070617573657220726f6c6520746f20756e7061757365606082015260800190565b6020808252602f908201527f416363657373436f6e74726f6c3a2063616e206f6e6c792072656e6f756e636560408201526e103937b632b9903337b91039b2b63360891b606082015260800190565b60009081526020902090565b60008219821115612f9257612f9261308e565b500190565b600082612fa657612fa66130a4565b500490565b6000816000190483118215151615612fc557612fc561308e565b500290565b600082821015612fdc57612fdc61308e565b500390565b60005b83811015612ffc578181015183820152602001612fe4565b838111156108a05750506000910152565b60008161301c5761301c61308e565b506000190190565b60028104600182168061303857607f821691505b6020821081141561305957634e487b7160e01b600052602260045260246000fd5b50919050565b60006000198214156130735761307361308e565b5060010190565b600082613089576130896130a4565b500690565b634e487b7160e01b600052601160045260246000fd5b634e487b7160e01b600052601260045260246000fd5b634e487b7160e01b600052604160045260246000fd5b6001600160e01b031981168114610a6457600080fdfe4142434445464748494a4b4c4d4e4f505152535455565758595a6162636465666768696a6b6c6d6e6f707172737475767778797a303132333435363738392b2fa26469706673582212206919e6499223c1efc1f49f692187aaa4811388c8dbee918c3760dd3cc661436a64736f6c63430008000033a264697066735822122045a5cd97323b2312de1084ebd9f2397f1cf97eac91cc7be08b6a826682345dfc64736f6c63430008000033",
  "immutableReferences": {},
  "source": "/**\n * NFT\n */\n\npragma solidity >0.4.23;\n\n// NFT\nimport './NFT.sol';\n\n/**\n * NFTFactory\n */\ncontract NFTFactory {\n    // NFT\n    NFT[] private _NFTs;\n    // nfts\n    uint256 constant maxLimit = 20;\n    // MINTER_ROLEkeccak256\n    bytes32 minter_role = 0x9f2df0fed2c77648de5860a4cc508cd0818c85b8b8a1ab4ceeef8d981c8956a6;\n    // PAUSER_ROLEkecak256\n    bytes32 pauser_role = 0x65d7a28e3265b37a6474929f336521b332c1681b933f6cb9f3376673440d862a;\n    // NFT\n    event NFTCreated (NFT indexed nft,string name, string symbol, string url);\n\n    /**\n     * NFT\n     */\n    function NFTsCount () public view returns (uint256) {\n        return _NFTs.length;\n    }\n\n    /**\n     * NFT\n     */\n    function createNFT (string memory name, string memory symbol, string memory url) public {\n        // \n        NFT nft = new NFT (name, symbol, url);\n        // MINTERPAUSER\n        nft.grantRole(minter_role, msg.sender);\n        nft.grantRole(pauser_role, msg.sender);\n        // \n        _NFTs.push(nft);\n        // \n        emit NFTCreated(nft, name, symbol, url);\n    }\n\n    /**\n     * NFT\n     */\n    function nfts (uint256 limit, uint256 offset) public view returns (NFT[] memory coll) {\n        // offset\n        require (offset <= NFTsCount(), \"offset out of bounds\");\n        // limit\n        uint256 size = NFTsCount() - offset;\n        size = size < limit ? size : limit;\n        // sizemaxLimit\n        size = size < maxLimit ? size : maxLimit;\n        // \n        coll = new NFT[](size);\n        // \n        for (uint256 i = 0; i < size; i++) {\n            coll[i] = _NFTs[offset + i];\n        }\n\n        return coll;    \n    }\n}",
  "sourcePath": "/Users/harukikondo/git/fundraiser-dapp/contracts/NFTFactory.sol",
  "compiler": {
    "name": "solc",
    "version": "0.8.0+commit.c7dfd78e.Emscripten.clang"
  },
  "schemaVersion": "3.2.0",
  "updatedAt": "2022-06-04T09:30:29.944Z",
  "devdoc": {
    "kind": "dev",
    "methods": {},
    "version": 1
  },
  "userdoc": {
    "kind": "user",
    "methods": {
      "NFTsCount()": {
        "notice": "NFT"
      },
      "createNFT(string,string,string)": {
        "notice": "NFT"
      },
      "nfts(uint256,uint256)": {
        "notice": "NFT"
      }
    },
    "notice": "NFTFactory",
    "version": 1
  }
}