{
  "contractName": "OwnerManager",
  "abi": [
    {
      "anonymous": false,
      "inputs": [
        {
          "indexed": false,
          "internalType": "address",
          "name": "owner",
          "type": "address"
        }
      ],
      "name": "AddedOwner",
      "type": "event"
    },
    {
      "anonymous": false,
      "inputs": [
        {
          "indexed": false,
          "internalType": "uint256",
          "name": "threshold",
          "type": "uint256"
        }
      ],
      "name": "ChangedThreshold",
      "type": "event"
    },
    {
      "anonymous": false,
      "inputs": [
        {
          "indexed": false,
          "internalType": "address",
          "name": "owner",
          "type": "address"
        }
      ],
      "name": "RemovedOwner",
      "type": "event"
    },
    {
      "inputs": [
        {
          "internalType": "address",
          "name": "owner",
          "type": "address"
        },
        {
          "internalType": "uint256",
          "name": "_threshold",
          "type": "uint256"
        }
      ],
      "name": "addOwnerWithThreshold",
      "outputs": [],
      "stateMutability": "nonpayable",
      "type": "function"
    },
    {
      "inputs": [
        {
          "internalType": "address",
          "name": "prevOwner",
          "type": "address"
        },
        {
          "internalType": "address",
          "name": "owner",
          "type": "address"
        },
        {
          "internalType": "uint256",
          "name": "_threshold",
          "type": "uint256"
        }
      ],
      "name": "removeOwner",
      "outputs": [],
      "stateMutability": "nonpayable",
      "type": "function"
    },
    {
      "inputs": [
        {
          "internalType": "address",
          "name": "prevOwner",
          "type": "address"
        },
        {
          "internalType": "address",
          "name": "oldOwner",
          "type": "address"
        },
        {
          "internalType": "address",
          "name": "newOwner",
          "type": "address"
        }
      ],
      "name": "swapOwner",
      "outputs": [],
      "stateMutability": "nonpayable",
      "type": "function"
    },
    {
      "inputs": [
        {
          "internalType": "uint256",
          "name": "_threshold",
          "type": "uint256"
        }
      ],
      "name": "changeThreshold",
      "outputs": [],
      "stateMutability": "nonpayable",
      "type": "function"
    },
    {
      "inputs": [],
      "name": "getThreshold",
      "outputs": [
        {
          "internalType": "uint256",
          "name": "",
          "type": "uint256"
        }
      ],
      "stateMutability": "view",
      "type": "function"
    },
    {
      "inputs": [
        {
          "internalType": "address",
          "name": "owner",
          "type": "address"
        }
      ],
      "name": "isOwner",
      "outputs": [
        {
          "internalType": "bool",
          "name": "",
          "type": "bool"
        }
      ],
      "stateMutability": "view",
      "type": "function"
    },
    {
      "inputs": [],
      "name": "getOwners",
      "outputs": [
        {
          "internalType": "address[]",
          "name": "",
          "type": "address[]"
        }
      ],
      "stateMutability": "view",
      "type": "function"
    }
  ],
  "bytecode": "0x608060405234801561001057600080fd5b50610a5e806100206000396000f3fe608060405234801561001057600080fd5b506004361061007d5760003560e01c8063a0e67e2b1161005b578063a0e67e2b146100d3578063e318b52b146100e8578063e75235b8146100fb578063f8dc5dd9146101105761007d565b80630d582f13146100825780632f54bf6e14610097578063694e80c3146100c0575b600080fd5b610095610090366004610859565b610123565b005b6100aa6100a53660046107bb565b61027f565b6040516100b791906108fb565b60405180910390f35b6100956100ce366004610882565b6102bc565b6100db610347565b6040516100b791906108ae565b6100956100f63660046107dc565b610453565b610103610628565b6040516100b791906109c0565b61009561011e36600461081e565b61062e565b61012b610783565b6001600160a01b0382161580159061014d57506001600160a01b038216600114155b801561016257506001600160a01b0382163014155b6101875760405162461bcd60e51b815260040161017e90610925565b60405180910390fd5b6001600160a01b0382811660009081526020819052604090205416156101bf5760405162461bcd60e51b815260040161017e90610982565b600060208190527fada5013122d395ba3c54772283fb069b10426056ef8ca54750cb9bb552a59e7d80546001600160a01b03858116808552604085208054929093166001600160a01b0319928316179092556001808552835490911690911790915580549161022d836109f7565b91905055507f9465fa0c962cc76958e6373a993326400c1c94f8be2fe3a952adfa7f60b2ea2682604051610261919061089a565b60405180910390a1806002541461027b5761027b816102bc565b5050565b60006001600160a01b0382166001148015906102b457506001600160a01b038281166000908152602081905260409020541615155b90505b919050565b6102c4610783565b6001548111156102e65760405162461bcd60e51b815260040161017e90610906565b60018110156103075760405162461bcd60e51b815260040161017e90610944565b60028190556040517f610f7ff2b304ae8903c3de74c60c6ab1f7d6226b3f52c5161905bb5ad4039c939061033c9083906109c0565b60405180910390a150565b6060600060015467ffffffffffffffff81111561037457634e487b7160e01b600052604160045260246000fd5b60405190808252806020026020018201604052801561039d578160200160208202803683370190505b506001600090815260208190527fada5013122d395ba3c54772283fb069b10426056ef8ca54750cb9bb552a59e7d54919250906001600160a01b03165b6001600160a01b03811660011461044b578083838151811061040c57634e487b7160e01b600052603260045260246000fd5b6001600160a01b039283166020918202929092018101919091529181166000908152918290526040909120541681610443816109f7565b9250506103da565b509091505090565b61045b610783565b6001600160a01b0381161580159061047d57506001600160a01b038116600114155b801561049257506001600160a01b0381163014155b6104ae5760405162461bcd60e51b815260040161017e90610925565b6001600160a01b0381811660009081526020819052604090205416156104e65760405162461bcd60e51b815260040161017e90610982565b6001600160a01b0382161580159061050857506001600160a01b038216600114155b6105245760405162461bcd60e51b815260040161017e90610925565b6001600160a01b038381166000908152602081905260409020548116908316146105605760405162461bcd60e51b815260040161017e906109a1565b6001600160a01b03828116600081815260208190526040808220805486861680855283852080549288166001600160a01b03199384161790559589168452828420805482169096179095559290915281549092169055517ff8d49fc529812e9a7c5c50e69c20f0dccc0db8fa95c98bc58cc9a4f1c1299eaf906105e490849061089a565b60405180910390a17f9465fa0c962cc76958e6373a993326400c1c94f8be2fe3a952adfa7f60b2ea268160405161061b919061089a565b60405180910390a1505050565b60025490565b610636610783565b806001805461064591906109c9565b10156106635760405162461bcd60e51b815260040161017e90610906565b6001600160a01b0382161580159061068557506001600160a01b038216600114155b6106a15760405162461bcd60e51b815260040161017e90610925565b6001600160a01b038381166000908152602081905260409020548116908316146106dd5760405162461bcd60e51b815260040161017e906109a1565b6001600160a01b03828116600081815260208190526040808220805488861684529183208054929095166001600160a01b03199283161790945591815282549091169091556001805491610730836109e0565b91905055507ff8d49fc529812e9a7c5c50e69c20f0dccc0db8fa95c98bc58cc9a4f1c1299eaf82604051610764919061089a565b60405180910390a1806002541461077e5761077e816102bc565b505050565b3330146107a25760405162461bcd60e51b815260040161017e90610963565b565b80356001600160a01b03811681146102b757600080fd5b6000602082840312156107cc578081fd5b6107d5826107a4565b9392505050565b6000806000606084860312156107f0578182fd5b6107f9846107a4565b9250610807602085016107a4565b9150610815604085016107a4565b90509250925092565b600080600060608486031215610832578283fd5b61083b846107a4565b9250610849602085016107a4565b9150604084013590509250925092565b6000806040838503121561086b578182fd5b610874836107a4565b946020939093013593505050565b600060208284031215610893578081fd5b5035919050565b6001600160a01b0391909116815260200190565b6020808252825182820181905260009190848201906040850190845b818110156108ef5783516001600160a01b0316835292840192918401916001016108ca565b50909695505050505050565b901515815260200190565b602080825260059082015264475332303160d81b604082015260600190565b602080825260059082015264475332303360d81b604082015260600190565b60208082526005908201526423a999181960d91b604082015260600190565b602080825260059082015264475330333160d81b604082015260600190565b60208082526005908201526411d4cc8c0d60da1b604082015260600190565b602080825260059082015264475332303560d81b604082015260600190565b90815260200190565b6000828210156109db576109db610a12565b500390565b6000816109ef576109ef610a12565b506000190190565b6000600019821415610a0b57610a0b610a12565b5060010190565b634e487b7160e01b600052601160045260246000fdfea26469706673582212200dbb0330ae717b158e7b5db3762a648dd4d4790d68e393c8a4cef8930571f8b964736f6c63430008000033",
  "immutableReferences": {},
  "source": "/**\n * Owner\n */\n\npragma solidity >=0.7.0 <0.9.0;\n// \nimport \"../common/SelfAuthorized.sol\";\n\n/**\n * OwnerManager\n * SelfAuthorized\n * @title OwnerManager - Manages a set of owners and a threshold to perform actions.\n * @author Stefan George - <stefan@gnosis.pm>\n * @author Richard Meissner - <richard@gnosis.pm>\n */\ncontract OwnerManager is SelfAuthorized {\n    // \n    event AddedOwner(address owner);\n    event RemovedOwner(address owner);\n    event ChangedThreshold(uint256 threshold);\n\n    address internal constant SENTINEL_OWNERS = address(0x1);\n\n    mapping(address => address) internal owners;\n    uint256 internal ownerCount;\n    uint256 internal threshold;\n\n    /**\n     * Owners\n     * @dev Setup function sets initial storage of contract.\n     * @param _owners List of Safe owners.\n     * @param _threshold Number of required confirmations for a Safe transaction.\n     */\n    function setupOwners(address[] memory _owners, uint256 _threshold) internal {\n        // Threshold can only be 0 at initialization.\n        threshold = 0;\n        // Check ensures that setup function can only be called once.\n        require(threshold == 0, \"GS200\");\n        // Validate that threshold is smaller than number of added owners.\n        require(_threshold <= _owners.length, \"GS201\");\n        // There has to be at least one Safe owner.\n        require(_threshold >= 1, \"GS202\");\n        // Initializing Safe owners.\n        address currentOwner = SENTINEL_OWNERS;\n        for (uint256 i = 0; i < _owners.length; i++) {\n            // Owner address cannot be null.\n            address owner = _owners[i];\n            require(owner != address(0) && owner != SENTINEL_OWNERS && owner != address(this) && currentOwner != owner, \"GS203\");\n            // No duplicate owners allowed.\n            require(owners[owner] == address(0), \"GS204\");\n            owners[currentOwner] = owner;\n            currentOwner = owner;\n        }\n        owners[currentOwner] = SENTINEL_OWNERS;\n        ownerCount = _owners.length;\n        threshold = _threshold;\n    }\n\n    /**\n     * owner\n     * @dev Allows to add a new owner to the Safe and update the threshold at the same time.\n     *      This can only be done via a Safe transaction.\n     * @notice Adds the owner `owner` to the Safe and updates the threshold to `_threshold`.\n     * @param owner New owner address.\n     * @param _threshold New threshold.\n     */\n    function addOwnerWithThreshold(address owner, uint256 _threshold) public authorized {\n        // Owner address cannot be null, the sentinel or the Safe itself.\n        require(owner != address(0) && owner != SENTINEL_OWNERS && owner != address(this), \"GS203\");\n        // No duplicate owners allowed.\n        require(owners[owner] == address(0), \"GS204\");\n        owners[owner] = owners[SENTINEL_OWNERS];\n        owners[SENTINEL_OWNERS] = owner;\n        ownerCount++;\n        emit AddedOwner(owner);\n        // Change threshold if threshold was changed.\n        if (threshold != _threshold) changeThreshold(_threshold);\n    }\n\n    /**\n     * owner\n     * @dev Allows to remove an owner from the Safe and update the threshold at the same time.\n     *      This can only be done via a Safe transaction.\n     * @notice Removes the owner `owner` from the Safe and updates the threshold to `_threshold`.\n     * @param prevOwner Owner that pointed to the owner to be removed in the linked list\n     * @param owner Owner address to be removed.\n     * @param _threshold New threshold.\n     */\n    function removeOwner(address prevOwner, address owner, uint256 _threshold) public authorized {\n        // Only allow to remove an owner, if threshold can still be reached.\n        require(ownerCount - 1 >= _threshold, \"GS201\");\n        // Validate owner address and check that it corresponds to owner index.\n        require(owner != address(0) && owner != SENTINEL_OWNERS, \"GS203\");\n        require(owners[prevOwner] == owner, \"GS205\");\n        owners[prevOwner] = owners[owner];\n        owners[owner] = address(0);\n        ownerCount--;\n        emit RemovedOwner(owner);\n        // Change threshold if threshold was changed.\n        if (threshold != _threshold) changeThreshold(_threshold);\n    }\n\n    /**\n     * Ownser\n     * @dev Allows to swap/replace an owner from the Safe with another address.\n     *      This can only be done via a Safe transaction.\n     * @notice Replaces the owner `oldOwner` in the Safe with `newOwner`.\n     * @param prevOwner Owner that pointed to the owner to be replaced in the linked list\n     * @param oldOwner Owner address to be replaced.\n     * @param newOwner New owner address.\n     */\n    function swapOwner(address prevOwner, address oldOwner, address newOwner) public authorized {\n        // Owner address cannot be null, the sentinel or the Safe itself.\n        require(newOwner != address(0) && newOwner != SENTINEL_OWNERS && newOwner != address(this), \"GS203\");\n        // No duplicate owners allowed.\n        require(owners[newOwner] == address(0), \"GS204\");\n        // Validate oldOwner address and check that it corresponds to owner index.\n        require(oldOwner != address(0) && oldOwner != SENTINEL_OWNERS, \"GS203\");\n        require(owners[prevOwner] == oldOwner, \"GS205\");\n        owners[newOwner] = owners[oldOwner];\n        owners[prevOwner] = newOwner;\n        owners[oldOwner] = address(0);\n        emit RemovedOwner(oldOwner);\n        emit AddedOwner(newOwner);\n    }\n\n    /**\n     * \n     * @dev Allows to update the number of required confirmations by Safe owners.\n     *      This can only be done via a Safe transaction.\n     * @notice Changes the threshold of the Safe to `_threshold`.\n     * @param _threshold New threshold.\n     */\n    function changeThreshold(uint256 _threshold) public authorized {\n        // Validate that threshold is smaller than number of owners.\n        require(_threshold <= ownerCount, \"GS201\");\n        // There has to be at least one Safe owner.\n        require(_threshold >= 1, \"GS202\");\n        threshold = _threshold;\n        emit ChangedThreshold(threshold);\n    }\n\n    /**\n     * \n     */\n    function getThreshold() public view returns (uint256) {\n        return threshold;\n    }\n\n    /**\n     * Owner\n     */\n    function isOwner(address owner) public view returns (bool) {\n        return owner != SENTINEL_OWNERS && owners[owner] != address(0);\n    }\n\n    /**\n     * Owner\n     * @dev Returns array of owners.\n     * @return Array of Safe owners.\n     */\n    function getOwners() public view returns (address[] memory) {\n        address[] memory array = new address[](ownerCount);\n\n        // populate return array\n        uint256 index = 0;\n        address currentOwner = owners[SENTINEL_OWNERS];\n        while (currentOwner != SENTINEL_OWNERS) {\n            array[index] = currentOwner;\n            currentOwner = owners[currentOwner];\n            index++;\n        }\n        return array;\n    }\n}\n",
  "sourcePath": "/Users/harukikondo/git/fundraiser-dapp/contracts/safeContracts/base/OwnerManager.sol",
  "compiler": {
    "name": "solc",
    "version": "0.8.0+commit.c7dfd78e.Emscripten.clang"
  },
  "schemaVersion": "3.4.4",
  "updatedAt": "2022-08-27T03:20:55.857Z",
  "devdoc": {
    "author": "Stefan George - <stefan@gnosis.pm>Richard Meissner - <richard@gnosis.pm>",
    "kind": "dev",
    "methods": {
      "addOwnerWithThreshold(address,uint256)": {
        "details": "Allows to add a new owner to the Safe and update the threshold at the same time.      This can only be done via a Safe transaction.",
        "params": {
          "_threshold": "New threshold.",
          "owner": "New owner address."
        }
      },
      "changeThreshold(uint256)": {
        "details": "Allows to update the number of required confirmations by Safe owners.      This can only be done via a Safe transaction.",
        "params": {
          "_threshold": "New threshold."
        }
      },
      "getOwners()": {
        "details": "Returns array of owners.",
        "returns": {
          "_0": "Array of Safe owners."
        }
      },
      "removeOwner(address,address,uint256)": {
        "details": "Allows to remove an owner from the Safe and update the threshold at the same time.      This can only be done via a Safe transaction.",
        "params": {
          "_threshold": "New threshold.",
          "owner": "Owner address to be removed.",
          "prevOwner": "Owner that pointed to the owner to be removed in the linked list"
        }
      },
      "swapOwner(address,address,address)": {
        "details": "Allows to swap/replace an owner from the Safe with another address.      This can only be done via a Safe transaction.",
        "params": {
          "newOwner": "New owner address.",
          "oldOwner": "Owner address to be replaced.",
          "prevOwner": "Owner that pointed to the owner to be replaced in the linked list"
        }
      }
    },
    "title": "OwnerManager - Manages a set of owners and a threshold to perform actions.",
    "version": 1
  },
  "userdoc": {
    "kind": "user",
    "methods": {
      "addOwnerWithThreshold(address,uint256)": {
        "notice": "ownerAdds the owner `owner` to the Safe and updates the threshold to `_threshold`."
      },
      "changeThreshold(uint256)": {
        "notice": "Changes the threshold of the Safe to `_threshold`."
      },
      "getOwners()": {
        "notice": "Owner"
      },
      "getThreshold()": {
        "notice": ""
      },
      "isOwner(address)": {
        "notice": "Owner"
      },
      "removeOwner(address,address,uint256)": {
        "notice": "ownerRemoves the owner `owner` from the Safe and updates the threshold to `_threshold`."
      },
      "swapOwner(address,address,address)": {
        "notice": "OwnserReplaces the owner `oldOwner` in the Safe with `newOwner`."
      }
    },
    "notice": "OwnerManager SelfAuthorized",
    "version": 1
  }
}