{
  "contractName": "PriceConsumerV3",
  "abi": [
    {
      "inputs": [
        {
          "internalType": "address",
          "name": "_proxy",
          "type": "address"
        }
      ],
      "stateMutability": "nonpayable",
      "type": "constructor"
    },
    {
      "inputs": [],
      "name": "getLatestPrice",
      "outputs": [
        {
          "internalType": "int256",
          "name": "",
          "type": "int256"
        }
      ],
      "stateMutability": "view",
      "type": "function"
    }
  ],
  "bytecode": "0x608060405234801561001057600080fd5b5060405161023538038061023583398101604081905261002f91610061565b600180546001600160a01b03199081166001600160a01b0393841617918290556000805492909316911617905561008f565b600060208284031215610072578081fd5b81516001600160a01b0381168114610088578182fd5b9392505050565b6101978061009e6000396000f3fe608060405234801561001057600080fd5b506004361061002b5760003560e01c80638e15f47314610030575b600080fd5b61003861004e565b6040516100459190610158565b60405180910390f35b60008060008060008060008054906101000a90046001600160a01b03166001600160a01b031663feaf968c6040518163ffffffff1660e01b815260040160a06040518083038186803b1580156100a357600080fd5b505afa1580156100b7573d6000803e3d6000fd5b505050506040513d601f19601f820116820180604052508101906100db9190610109565b50919850505050505050505090565b805169ffffffffffffffffffff8116811461010457600080fd5b919050565b600080600080600060a08688031215610120578081fd5b610129866100ea565b945060208601519350604086015192506060860151915061014c608087016100ea565b90509295509295909350565b9081526020019056fea2646970667358221220bde380c213638cce8f6bd3fbbd5a5bef1b862b69ea9a841b6cfdf2120a6bbd6764736f6c63430008000033",
  "immutableReferences": {},
  "source": "/**\n * オラクル処理用のサンプルコード\n */\n\npragma solidity >= 0.8.0;\nimport \"@chainlink/contracts/src/v0.8/interfaces/AggregatorV3Interface.sol\";\n\ncontract PriceConsumerV3 {\n\n    // AggregatorV3Interface型のオブジェクト\n    AggregatorV3Interface internal priceFeed;\n    // 取得したい為替レート、実行環境毎に自分で指定する。\n    address proxy;\n\n    /**\n     * コンストラクター\n     * Aggregator: proxyで指定する。\n     * Address: デプロイ時に指定する。\n     */\n    constructor(address _proxy) {\n        proxy = _proxy;\n        priceFeed = AggregatorV3Interface(proxy); \n    }\n\n    /**\n     * 為替情報を取得するための関数\n     */\n    function getLatestPrice() public view returns (int) {\n        // priceFeedのlatestRoundData関数を呼び出して情報を取得する。\n        (\n            uint80 roundID, \n            int price,\n            uint startedAt,\n            uint timeStamp,\n            uint80 answeredInRound\n        ) = priceFeed.latestRoundData();\n        return price;\n    }\n}",
  "sourcePath": "/Users/harukikondo/git/fundraiser-dapp/contracts/oracles/SampleOracle.sol",
  "compiler": {
    "name": "solc",
    "version": "0.8.0+commit.c7dfd78e.Emscripten.clang"
  },
  "schemaVersion": "3.4.4",
  "updatedAt": "2022-08-27T03:20:55.821Z",
  "devdoc": {
    "kind": "dev",
    "methods": {},
    "version": 1
  },
  "userdoc": {
    "kind": "user",
    "methods": {
      "constructor": {
        "notice": "コンストラクター Aggregator: proxyで指定する。 Address: デプロイ時に指定する。"
      },
      "getLatestPrice()": {
        "notice": "為替情報を取得するための関数"
      }
    },
    "version": 1
  }
}