{
  "contractName": "RandomNumberConsumer",
  "abi": [
    {
      "inputs": [
        {
          "internalType": "address",
          "name": "vrfCoordinator",
          "type": "address"
        },
        {
          "internalType": "address",
          "name": "link",
          "type": "address"
        },
        {
          "internalType": "bytes32",
          "name": "keyHash",
          "type": "bytes32"
        },
        {
          "internalType": "uint256",
          "name": "fee",
          "type": "uint256"
        }
      ],
      "stateMutability": "nonpayable",
      "type": "constructor"
    },
    {
      "anonymous": false,
      "inputs": [
        {
          "indexed": true,
          "internalType": "bytes32",
          "name": "requestId",
          "type": "bytes32"
        },
        {
          "indexed": true,
          "internalType": "uint256",
          "name": "result",
          "type": "uint256"
        }
      ],
      "name": "DiceLanded",
      "type": "event"
    },
    {
      "anonymous": false,
      "inputs": [
        {
          "indexed": true,
          "internalType": "bytes32",
          "name": "requestId",
          "type": "bytes32"
        },
        {
          "indexed": true,
          "internalType": "address",
          "name": "roller",
          "type": "address"
        }
      ],
      "name": "DiceRolled",
      "type": "event"
    },
    {
      "inputs": [],
      "name": "randomResult",
      "outputs": [
        {
          "internalType": "uint256",
          "name": "",
          "type": "uint256"
        }
      ],
      "stateMutability": "view",
      "type": "function"
    },
    {
      "inputs": [
        {
          "internalType": "bytes32",
          "name": "requestId",
          "type": "bytes32"
        },
        {
          "internalType": "uint256",
          "name": "randomness",
          "type": "uint256"
        }
      ],
      "name": "rawFulfillRandomness",
      "outputs": [],
      "stateMutability": "nonpayable",
      "type": "function"
    },
    {
      "inputs": [],
      "name": "s_fee",
      "outputs": [
        {
          "internalType": "uint256",
          "name": "",
          "type": "uint256"
        }
      ],
      "stateMutability": "view",
      "type": "function"
    },
    {
      "inputs": [],
      "name": "s_keyHash",
      "outputs": [
        {
          "internalType": "bytes32",
          "name": "",
          "type": "bytes32"
        }
      ],
      "stateMutability": "view",
      "type": "function"
    },
    {
      "inputs": [
        {
          "internalType": "address",
          "name": "roller",
          "type": "address"
        }
      ],
      "name": "rollDice",
      "outputs": [
        {
          "internalType": "bytes32",
          "name": "requestId",
          "type": "bytes32"
        }
      ],
      "stateMutability": "nonpayable",
      "type": "function"
    },
    {
      "inputs": [
        {
          "internalType": "address",
          "name": "player",
          "type": "address"
        }
      ],
      "name": "house",
      "outputs": [
        {
          "internalType": "string",
          "name": "",
          "type": "string"
        }
      ],
      "stateMutability": "view",
      "type": "function"
    },
    {
      "inputs": [
        {
          "internalType": "uint256",
          "name": "userProvidedSeed",
          "type": "uint256"
        }
      ],
      "name": "getRandomNumber",
      "outputs": [
        {
          "internalType": "bytes32",
          "name": "requestId",
          "type": "bytes32"
        }
      ],
      "stateMutability": "nonpayable",
      "type": "function"
    }
  ],
  "bytecode": "0x60c060405234801561001057600080fd5b50604051610c8d380380610c8d83398101604081905261002f91610073565b6001600160601b0319606094851b811660a0529290931b9091166080526001556002556100b5565b80516001600160a01b038116811461006e57600080fd5b919050565b60008060008060808587031215610088578384fd5b61009185610057565b935061009f60208601610057565b6040860151606090960151949790965092505050565b60805160601c60a05160601c610b9f6100ee6000396000818161012801526106fb01526000818161022a01526106cc0152610b9f6000f3fe608060405234801561001057600080fd5b506004361061007d5760003560e01c806394985ddd1161005b57806394985ddd146100b0578063b1cad5e3146100c5578063b37217a4146100e5578063dd02d9e5146100f85761007d565b806342619f661461008257806345bb327b146100a0578063596c2328146100a8575b600080fd5b61008a61010b565b60405161009791906109db565b60405180910390f35b61008a610111565b61008a610117565b6100c36100be3660046108ed565b61011d565b005b6100d86100d33660046108a6565b61017c565b6040516100979190610a08565b61008a6100f336600461090e565b610215565b61008a6101063660046108a6565b610223565b60035481565b60015481565b60025481565b336001600160a01b037f0000000000000000000000000000000000000000000000000000000000000000161461016e5760405162461bcd60e51b815260040161016590610a6e565b60405180910390fd5b6101788282610391565b5050565b6001600160a01b0381166000908152600560205260409020546060906101b45760405162461bcd60e51b815260040161016590610a45565b6001600160a01b038216600090815260056020526040902054602a14156101ed5760405162461bcd60e51b815260040161016590610a1b565b6001600160a01b03821660009081526005602052604090205461020f90610401565b92915050565b600061020f600154836106c8565b60006002547f00000000000000000000000000000000000000000000000000000000000000006001600160a01b03166370a08231306040518263ffffffff1660e01b81526004016102749190610997565b60206040518083038186803b15801561028c57600080fd5b505afa1580156102a0573d6000803e3d6000fd5b505050506040513d601f19601f820116820180604052508101906102c49190610926565b10156102e25760405162461bcd60e51b815260040161016590610aa5565b6001600160a01b038216600090815260056020526040902054156103185760405162461bcd60e51b815260040161016590610adc565b6103266001546002546106c8565b600081815260046020908152604080832080546001600160a01b0319166001600160a01b0388169081179091558084526005909252808320602a9055519293509183917f923de4fc4aece24a78a9e4ca3009c571a742f81ac2c004a229224b0fd1883bdd91a3919050565b60006103a960016103a384601461080e565b90610821565b6000848152600460209081526040808320546001600160a01b03168352600590915280822083905551919250829185917f909dd726737b7ffa4ae9d137e9edebe8a74a9c2910a4b60e8112f93ab217083791a3505050565b604080516102c08101825260096102808201818152682a30b933b0b93cb2b760b91b6102a0840152825282518084018452818152682630b73734b9ba32b960b91b6020828101919091528084019190915283518085018552600580825264537461726b60d81b828401528486019190915284518086018652600680825265151e5c995b1b60d21b8285015260608681019290925286518088018852948552682130b930ba3432b7b760b91b8585015260808601949094528551808701875260078082526613585c9d195b1b60ca1b8286015260a0870191909152865180880188528381526454756c6c7960d81b8186015260c087015286518088018852858152652137b63a37b760d11b8186015260e08701528651808801885281815266477265796a6f7960c81b81860152610100870152865180880188528381526420b9393cb760d91b818601526101208701528651808801885260048152634672657960e01b818601526101408701528651808801885281815266135bdc9b5bdb9d60ca1b8186015261016087015286518088018852858152655461726c657960d01b8186015261018087015286518088018852838152644461796e6560d81b818601526101a087015286518088018852928352642ab6b132b960d91b838501526101c0860192909252855180870187526008808252672b30b632b93cb7b760c11b828601526101e087019190915286518088018852818152674d616e6465726c7960c01b818601526102008701528651808801885292835266436c6567616e6560c81b83850152610220860192909252855180870187529384526523b637bb32b960d11b8484015261024085019390935284518086019095528452674b6172737461726b60c01b908401526102608201929092528061069e84600161082d565b601481106106bc57634e487b7160e01b600052603260045260246000fd5b60200201519392505050565b60007f00000000000000000000000000000000000000000000000000000000000000006001600160a01b0316634000aea07f00000000000000000000000000000000000000000000000000000000000000008486600060405160200161072f929190610989565b6040516020818303038152906040526040518463ffffffff1660e01b815260040161075c939291906109ab565b602060405180830381600087803b15801561077657600080fd5b505af115801561078a573d6000803e3d6000fd5b505050506040513d601f19601f820116820180604052508101906107ae91906108cd565b5060006107d08460003060008089815260200190815260200160002054610839565b6000858152602081905260409020549091506107ed906001610b04565b6000858152602081905260409020556108068482610873565b949350505050565b600061081a8284610b33565b9392505050565b600061081a8284610b04565b600061081a8284610b1c565b60008484848460405160200161085294939291906109e4565b60408051601f19818403018152919052805160209091012095945050505050565b60008282604051602001610888929190610989565b60405160208183030381529060405280519060200120905092915050565b6000602082840312156108b7578081fd5b81356001600160a01b038116811461081a578182fd5b6000602082840312156108de578081fd5b8151801515811461081a578182fd5b600080604083850312156108ff578081fd5b50508035926020909101359150565b60006020828403121561091f578081fd5b5035919050565b600060208284031215610937578081fd5b5051919050565b60008151808452815b8181101561096357602081850181015186830182015201610947565b818111156109745782602083870101525b50601f01601f19169290920160200192915050565b918252602082015260400190565b6001600160a01b0391909116815260200190565b600060018060a01b0385168252836020830152606060408301526109d2606083018461093e565b95945050505050565b90815260200190565b93845260208401929092526001600160a01b03166040830152606082015260800190565b60006020825261081a602083018461093e565b60208082526010908201526f526f6c6c20696e2070726f677265737360801b604082015260600190565b6020808252600f908201526e111a58d9481b9bdd081c9bdb1b1959608a1b604082015260600190565b6020808252601f908201527f4f6e6c7920565246436f6f7264696e61746f722063616e2066756c66696c6c00604082015260600190565b6020808252601a908201527f4e6f7420656e6f756768204c494e4b20746f2070617920666565000000000000604082015260600190565b6020808252600e908201526d105b1c9958591e481c9bdb1b195960921b604082015260600190565b60008219821115610b1757610b17610b53565b500190565b600082821015610b2e57610b2e610b53565b500390565b600082610b4e57634e487b7160e01b81526012600452602481fd5b500690565b634e487b7160e01b600052601160045260246000fdfea26469706673582212208221697d941110c88378774901a1f84caef4a428f713323bac93bab387c0aa6564736f6c63430008000033",
  "immutableReferences": {
    "73": [
      {
        "length": 32,
        "start": 554
      },
      {
        "length": 32,
        "start": 1740
      }
    ],
    "75": [
      {
        "length": 32,
        "start": 296
      },
      {
        "length": 32,
        "start": 1787
      }
    ]
  },
  "source": "pragma solidity >= 0.8.0;\n\nimport \"@chainlink/contracts/src/v0.8/VRFConsumerBase.sol\";\nimport \"@openzeppelin/contracts/access/Ownable.sol\";\nimport {SafeMath} from \"@openzeppelin/contracts/utils/math/SafeMath.sol\";\n\n\ncontract RandomNumberConsumer is VRFConsumerBase {\n    // \n    bytes32 public s_keyHash;\n    uint256 public s_fee;\n    uint256 public randomResult;\n    uint256 private constant ROLL_IN_PROGRESS = 42;\n    using SafeMath for uint256;\n    \n    mapping(bytes32 => address) private s_rollers;\n    mapping(address => uint256) private s_results;\n    \n    // \n    event DiceRolled(bytes32 indexed requestId, address indexed roller);\n    event DiceLanded(bytes32 indexed requestId, uint256 indexed result);\n\n    /**\n     * \n     */\n    constructor(address vrfCoordinator, address link, bytes32 keyHash, uint256 fee) public VRFConsumerBase(vrfCoordinator, link) {\n        s_keyHash = keyHash;\n        s_fee = fee;\n    }\n\n    function rollDice(address roller) public returns (bytes32 requestId) {\n        require(LINK.balanceOf(address(this)) >= s_fee, \"Not enough LINK to pay fee\");\n        require(s_results[roller] == 0, \"Already rolled\");\n        requestId = requestRandomness(s_keyHash, s_fee);\n        s_rollers[requestId] = roller;\n        s_results[roller] = ROLL_IN_PROGRESS;\n        emit DiceRolled(requestId, roller);\n    }\n    \n    function fulfillRandomness(bytes32 requestId, uint256 randomness) internal override {\n        uint256 d20Value = randomness.mod(20).add(1);\n        s_results[s_rollers[requestId]] = d20Value;\n        emit DiceLanded(requestId, d20Value);\n    }\n    \n    function house(address player) public view returns (string memory) {\n        require(s_results[player] != 0, \"Dice not rolled\");\n        require(s_results[player] != ROLL_IN_PROGRESS, \"Roll in progress\");\n        return getHouseName(s_results[player]);\n    }\n    \n    function getHouseName(uint256 id) private pure returns (string memory) {\n        string[20] memory houseNames = [\n            \"Targaryen\",\n            \"Lannister\",\n            \"Stark\",\n            \"Tyrell\",\n            \"Baratheon\",\n            \"Martell\",\n            \"Tully\",\n            \"Bolton\",\n            \"Greyjoy\",\n            \"Arryn\",\n            \"Frey\",\n            \"Mormont\",\n            \"Tarley\",\n            \"Dayne\",\n            \"Umber\",\n            \"Valeryon\",\n            \"Manderly\",\n            \"Clegane\",\n            \"Glover\",\n            \"Karstark\"\n        ];\n        return houseNames[id.sub(1)];\n    }\n    \n    /**\n     * \n     */\n    function getRandomNumber (uint256 userProvidedSeed) public returns (bytes32 requestId) {\n        return requestRandomness(s_keyHash, userProvidedSeed);\n    }\n    \n    /**\n     *  2\n     */\n    function fulfillRandomness2 (bytes32 requestId, uint256 randomness) internal {\n        randomResult = randomness.mod(20).add(1);\n    }\n}",
  "sourcePath": "/Users/harukikondo/git/fundraiser-dapp/contracts/oracles/RandomNumberConsumer.sol",
  "compiler": {
    "name": "solc",
    "version": "0.8.0+commit.c7dfd78e.Emscripten.clang"
  },
  "schemaVersion": "3.4.4",
  "updatedAt": "2022-08-27T03:20:55.817Z",
  "devdoc": {
    "kind": "dev",
    "methods": {},
    "version": 1
  },
  "userdoc": {
    "kind": "user",
    "methods": {
      "constructor": {
        "notice": ""
      },
      "getRandomNumber(uint256)": {
        "notice": ""
      }
    },
    "version": 1
  }
}