{
  "contractName": "StorageAccessible",
  "abi": [
    {
      "inputs": [
        {
          "internalType": "uint256",
          "name": "offset",
          "type": "uint256"
        },
        {
          "internalType": "uint256",
          "name": "length",
          "type": "uint256"
        }
      ],
      "name": "getStorageAt",
      "outputs": [
        {
          "internalType": "bytes",
          "name": "",
          "type": "bytes"
        }
      ],
      "stateMutability": "view",
      "type": "function"
    },
    {
      "inputs": [
        {
          "internalType": "address",
          "name": "targetContract",
          "type": "address"
        },
        {
          "internalType": "bytes",
          "name": "calldataPayload",
          "type": "bytes"
        }
      ],
      "name": "simulateAndRevert",
      "outputs": [],
      "stateMutability": "nonpayable",
      "type": "function"
    }
  ],
  "bytecode": "0x608060405234801561001057600080fd5b50610301806100206000396000f3fe608060405234801561001057600080fd5b50600436106100365760003560e01c80635624b25b1461003b578063b4faba0914610064575b600080fd5b61004e6100493660046101f1565b610079565b60405161005b9190610212565b60405180910390f35b610077610072366004610130565b61010d565b005b60606000610088836020610265565b67ffffffffffffffff8111156100ae57634e487b7160e01b600052604160045260246000fd5b6040519080825280601f01601f1916602001820160405280156100d8576020820181803683370190505b50905060005b838110156101055784810154602080830284010152806100fd81610284565b9150506100de565b509392505050565b600080825160208401855af480600052503d6020523d600060403e60403d016000fd5b60008060408385031215610142578182fd5b82356001600160a01b0381168114610158578283fd5b915060208381013567ffffffffffffffff80821115610175578384fd5b818601915086601f830112610188578384fd5b81358181111561019a5761019a6102b5565b604051601f8201601f19168101850183811182821017156101bd576101bd6102b5565b60405281815283820185018910156101d3578586fd5b81858501868301378585838301015280955050505050509250929050565b60008060408385031215610203578182fd5b50508035926020909101359150565b6000602080835283518082850152825b8181101561023e57858101830151858201604001528201610222565b8181111561024f5783604083870101525b50601f01601f1916929092016040019392505050565b600081600019048311821515161561027f5761027f61029f565b500290565b60006000198214156102985761029861029f565b5060010190565b634e487b7160e01b600052601160045260246000fd5b634e487b7160e01b600052604160045260246000fdfea26469706673582212202c3de99649f7087bcc3c8f8022ee36d47d9d23b7143b851ec9597b42095b52f464736f6c63430008000033",
  "immutableReferences": {},
  "source": "/**\n * \n */\n\npragma solidity >=0.7.0 <0.9.0;\n\n/**\n * StorageAccessible\n * @title StorageAccessible - generic base contract that allows callers to access all internal storage.\n * @notice See https://github.com/gnosis/util-contracts/blob/bb5fe5fb5df6d8400998094fb1b32a178a47c3a1/contracts/StorageAccessible.sol\n */\ncontract StorageAccessible {\n\n    /**\n     *  \n     * @dev Reads `length` bytes of storage in the currents contract\n     * @param offset - the offset in the current contract's storage in words to start reading from\n     * @param length - the number of words (32 bytes) of data to read\n     * @return the bytes that were read.\n     */\n    function getStorageAt(uint256 offset, uint256 length) public view returns (bytes memory) {\n        bytes memory result = new bytes(length * 32);\n        for (uint256 index = 0; index < length; index++) {\n            // solhint-disable-next-line no-inline-assembly\n            assembly {\n                let word := sload(add(offset, index))\n                mstore(add(add(result, 0x20), mul(index, 0x20)), word)\n            }\n        }\n        return result;\n    }\n\n    /**\n     * @dev Performs a delegatecall on a targetContract in the context of self.\n     * Internally reverts execution to avoid side effects (making it static).\n     *\n     * This method reverts with data equal to `abi.encode(bool(success), bytes(response))`.\n     * Specifically, the `returndata` after a call to this method will be:\n     * `success:bool || response.length:uint256 || response:bytes`.\n     *\n     * @param targetContract Address of the contract containing the code to execute.\n     * @param calldataPayload Calldata that should be sent to the target contract (encoded method name and arguments).\n     */\n    function simulateAndRevert(address targetContract, bytes memory calldataPayload) external {\n        // solhint-disable-next-line no-inline-assembly\n        assembly {\n            let success := delegatecall(gas(), targetContract, add(calldataPayload, 0x20), mload(calldataPayload), 0, 0)\n\n            mstore(0x00, success)\n            mstore(0x20, returndatasize())\n            returndatacopy(0x40, 0, returndatasize())\n            revert(0, add(returndatasize(), 0x40))\n        }\n    }\n}",
  "sourcePath": "/Users/harukikondo/git/fundraiser-dapp/contracts/safeContracts/common/StorageAccessible.sol",
  "compiler": {
    "name": "solc",
    "version": "0.8.0+commit.c7dfd78e.Emscripten.clang"
  },
  "schemaVersion": "3.4.4",
  "updatedAt": "2022-08-27T03:20:55.868Z",
  "devdoc": {
    "kind": "dev",
    "methods": {
      "getStorageAt(uint256,uint256)": {
        "details": "Reads `length` bytes of storage in the currents contract",
        "params": {
          "length": "- the number of words (32 bytes) of data to read",
          "offset": "- the offset in the current contract's storage in words to start reading from"
        },
        "returns": {
          "_0": "the bytes that were read."
        }
      },
      "simulateAndRevert(address,bytes)": {
        "details": "Performs a delegatecall on a targetContract in the context of self. Internally reverts execution to avoid side effects (making it static). This method reverts with data equal to `abi.encode(bool(success), bytes(response))`. Specifically, the `returndata` after a call to this method will be: `success:bool || response.length:uint256 || response:bytes`.",
        "params": {
          "calldataPayload": "Calldata that should be sent to the target contract (encoded method name and arguments).",
          "targetContract": "Address of the contract containing the code to execute."
        }
      }
    },
    "title": "StorageAccessible - generic base contract that allows callers to access all internal storage.",
    "version": 1
  },
  "userdoc": {
    "kind": "user",
    "methods": {
      "getStorageAt(uint256,uint256)": {
        "notice": " "
      }
    },
    "notice": "StorageAccessibleSee https://github.com/gnosis/util-contracts/blob/bb5fe5fb5df6d8400998094fb1b32a178a47c3a1/contracts/StorageAccessible.sol",
    "version": 1
  }
}